:020000040000FA
:2000000000500020ED000000E5000000C9000000E9000000E9000000E9000000000000001A
:20002000000000000000000000000000E9000000E900000000000000E9000000E90000001C
:20004000692F0000E900000025E70000E900000031230000C9290000E9000000E900000012
:20006000E900000051E70000E9000000E9000000E9000000E9000000E9000000E9000000E9
:20008000E9000000E9000000E9000000E9000000E9000000E9000000E9000000E900000018
:2000A000E9000000E9000000E9000000E9000000E9000000E9000000E9000000E9000000F8
:2000C000E9000000F93F00004EF62853CEF200031A68B2F5806F03D01B689B0500D4FEE7B6
:2000E000704700BFFEE700BFFEE700BF10B50AF0EBFF40F2000140F23073C2F20001C2F228
:20010000000399420ED2CC431C4424F0030440F280500434C0F201000023C258CA5004331C
:20012000A342FAD1064807494FF000028842B8BF40F8042BFADB01F06FFAFFF7C5FF10BDD2
:20014000300700205A36002010B542F6C854C2F2000442F6A25340F260706168C2F2000318
:200160000122C2F200001A7005F060F840F278702168C2F20000BDE8104005F057B800BFC2
:200180002DE9F041048882B006460D4644B3B4F5B47F1FD143F25667C2F200073B788B42CB
:2001A00000F0A28042F6A354C2F200042378AB4200F0A680882D00F08F803B78AB4256D02E
:2001C0002378AB4259D04FF4B4730120338002B0BDE8F08100230380032002B0BDE8F081D7
:2001E00040F22C13C0F201039B6801218120984742F6C85342F6A252C2F200030A21C2F21E
:2002000000021E2083E8030014701C7204F0E6FE42F6A353C2F20003187001F06BF940F252
:200220006043C2F200031A7A4FF60C4140321846C0F200011A7201F083F940F22C404FF6DF
:200240001C41C2F20000C0F2000101F079F94FF63040C0F2000002F0AFF9FFF775FF40F2DA
:200260006870C2F20000802104F0C0FDABE740F2B003C0F201039A42A2D140F28070C2F24E
:20028000000004F0DBFF002851D142F6A254C2F200044FF0010840F210350420C0F20105C5
:2002A00001F0D0FB2B699847237842F6A257012BC2F200075CD0002B66D0022B00F08380AF
:2002C0000420B8F1000F02D12378022B75D001F0B9FB2B699847C2E740F26873C2F20003DD
:2002E0009A427FF46AAFC8E740F2B003C0F201039A427FF457AF0192FFF726FF019A51E776
:2003000042F6C858C2F2000840F27870D8F80010C2F20000019204F089FF40F26070D8F83A
:200320000410C2F2000004F081FF019A42E708F07FFCB03004F07EFD054601F0CBFE0446AC
:2003400007F04AFD07F0AAFA10B1437C012B46D040F28070C2F2000004F070FF002894D03D
:2003600040F28070C2F200000A2104F05FFF8CE74FF61063C0F2000340F26040DB6DC2F27C
:200380000000984700233B7040F26070C2F2000004F054FF002893D042F6C857C2F2000716
:2003A00040F260707968C2F2000004F03FFF3B7A012B04BF0223237082E701F04DFB6B69A2
:2003C000404698474BE740F27870C2F2000004F035FF00283FF474AFFFF7B6FE70E72C1BCA
:2003E000802CB5D442F6A254C2F200042378022B02BF40F21035C0F201054FF00008E2D031
:200400004FF0000847E700BF2DE9B0474FF0FF3385B04FF610650F4690460393C0F20005C3
:2004200010B12B6A03A9984740F22C13C0F201035C680120A04782460220A04703998146B4
:200440004B1C08BFD5F8041120D0D5F804314FF610649942C0F2000418D0D4F8B4309942DD
:2004600032D0D4F8901063693846984740F22843C2F200031D6828460FF066FA2946024688
:20048000E36C3846984705B0BDE8B087EB6938469847C9EB491109EB81094FEA69114FF6EA
:2004A0004C4253460091C0F200024021404603F017FE40460FF048FAEB6C02464146384676
:2004C000984705B0BDE8B087E36938469847C9EB491109EB81094FEA69114FF68442534620
:2004E0000091C0F200024021404603F0F9FD40460FF02AFAE36C024641463846984705B00E
:20050000BDE8B08770B54FF0FF3384B04FF610640D4616460393C0F2000408B303A9236A8D
:20052000984703994A1C1BD0D4F80421914219D0D4F8B420914233D0D4F890106369284626
:20054000984740F22843C2F200031E6830460FF0FBF931460246E36C2846984704B070BD3D
:20056000D4F80411E3692846984742F6C852C2F2000250681168137A8DE803004FF69C42A0
:20058000C0F200024021304603F0AAFD30460FF0DBF9E36C024631462846984704B070BDB1
:2005A000E3692846984742F6C852C2F2000250681168137A4FF6D4428DE80300C0F2000255
:2005C000E0E700BF2DE9F04F8DB04FF000090DF1300B4FF6106505914BF8149DC0F2000587
:2005E0004FF600519246AE6D5A46C0F200010746B0470F28CCBF00240124484508BF002458
:20060000002C4CD1A1464FF608515A46C0F200013846B0470F28CCBF00220122002808BF4E
:2006200000229046002A40F086804FF6145138465A46C0F20001B0470F28CCBF00230123E7
:20064000002808BF0023002B40D1184662B2002A51DD660642BF42F6C852C2F2000282F893
:200660000890E50642BF42F6C852C2F200021060A10642BF42F6C853C2F20003C3F804808D
:2006800042F6A353C2F2000340F2504019780022C2F2000004F032FD0DB0BDE8F08F024600
:2006A000079908A8CDF82090CDF82490CDF82890CDF82C900EF0A8FF08A80EF023FF012860
:2006C00052D0484514BF802440249CE700230246079908A8089309930A930B930EF094FF4F
:2006E00008A80EF00FFF45F26212A0F11E01C0F20102914235D96B69A96F059898474FF4A2
:20070000A343C0F201033C201E214FF620528DE80B00C0F2000240210A23504603F0E0FCC4
:2007200050460FF011F9EB6C02465146059898470DB0BDE8F08F00230246079908A8089331
:2007400009930A930B930EF05FFF08A80EF0DAFEA0F10A02322A804694BF44F020048024D2
:2007600063E744F0100471E7814640244BE700BF40F6D403C2F20003186070478079012363
:20078000013803FA00F0C0B2704700BF2DE9F047038886B00446CBB1B3F5AD7F10D143F28D
:2007A0005863C2F200031B788B4220D0882900F0B7804FF4AD730120238006B0BDE8F087A6
:2007C00000230380032006B0BDE8F08740F2AC404FF61C71C2F20000C0F2000100F0B0FE89
:2007E00000F008FA43F216300CF082FFE1E743F2D413C2F200031B7842F6C255C2F20005D9
:20080000002298072A70D4D540F2887643F2E01742F6DC53C2F20003C2F20006C2F20007E5
:20082000304639681A880DF03FF981462870002879D1B379013BDBB2032B40F28D807368BC
:2008400023F07F4323F0FF03002B72D1C3232B70308900F067FA40F62C08C2F20008C8F8CF
:20086000000070B1D0F82C90D0F830A000F0F4F9B9F1000F05D040F288715046C2F200015A
:20088000C8470023C8F800302B78002B91D0C22BD8F8000000F0EC8000F0DEF92A7842F64D
:2008A000C253C32AC2F2000302BF00221A70032104D0BF2A84BFA0221A70022140F2887055
:2008C0003389C2F200000CF033FF40F21073C2F200031E6842F6EC5530460FF035F8024625
:2008E00040F288703146C2F200000DF043FC42F6B253C2F200033E681B7840F288702833B5
:20090000C2F200053146C2F200005F5B0CF01EFF394683B2324605F108000DF0A5F848E72D
:2009200000F016FA45E740F62C080346C2F20008ADE77379032B8BD142F6B253C2F200031E
:200940001B7842F6EC502833C2F20000C15A3289083000F0BDFA7BE742F6B253C2F2000376
:200960001B789E492833CA5A3089083100F04EF940F62C08C2F20008C8F80000002800F057
:20098000AC8073794022CDF80C90CDF81090CDF81490ADF80A20002B6DD140F63000C2F25C
:2009A00000000221452233890CF0C2FEB27A002A6DD104AB40F288700093C2F2000003A9D5
:2009C00000220DF10A030DF079FB40B1BDF80A20049B402A28BF4022ADF80A20059340F6BA
:2009E000D403C2F20003D3F800C0BCF1000F56D040F2887A40F63009D8F80020C2F2000AAB
:200A0000C2F200090DF1140EBDF80A30504649467432CDF800E0E047E0B12A7842F6C253F3
:200A2000C2F20003C2B99AF81620110761D599F90620002A5DDB99F81620120759D440F215
:200A400010724FF63071C2F20002C0F20001A120116018702B7873B32B78D8F80000002BA4
:200A60007FF415AF00283FF4A4AE00F00DF9A0E600F0F2F89DE60CF051FE034640F63000BF
:200A8000C2F20000012145220CF052FE8EE740F630005349C2F200000DF030FA89E740F2D9
:200AA00010734FF65072C2F20003C0F20002A1211A602970D0E7D8F8009040F6300009F1F5
:200AC0003601C2F200000CF041FE80B2A9F834000028C1D1C1232B70BEE740F210734FF611
:200AE0006472C2F20003C0F20002A3211A602970CAE696F91530059A002B1ADB002ADAD0C7
:200B0000013240F6300018BF012200214023C2F200000DF0F1FAB9F89E2040F630003F2AE4
:200B200088BF4022D9F8A010C2F200000DF022FB90E7049B9A4219D0013203992AD0BDF864
:200B40000A30012240F6300AC2F2000A50460DF0D3FAB9F89E30BDF80A2093427FF67AAFD9
:200B60005046DAF8A0100DF005FB73E7B9F89E1040F630098A42C2F2000914D382234FF6DE
:200B80004071C0F2000148460F2289F806300DF0F1FA5FE7B9F89E20BDF80A309A4294BFC0
:200BA00000220122CEE7BDF80A308A1A9A4294BF00220122039948460DF09EFA049BB9F825
:200BC0009E00BDF80A20D9F8A010C01A904238BF0246194448460DF0CDFA3BE7EC2D002022
:200BE0009307002040F28440C2F20000002104F0B7BA00BF41F28413C2F200031A6840F613
:200C0000DC03C2F200031A60704700BFF8B5064640F29440C2F200000D46174604F05EFC9D
:200C20000446B8B1002386800376A968D5F800E06E68EA6840F6D800C4F82210C4F81AE0C7
:200C4000C2F20000C4F81E60C4F826202146678504F0B0FB2046F8BD10B5044690B108300F
:200C600004F002F940F6D8002146C2F2000004F0F5FB40F294402146C2F20000BDE8104062
:200C800004F04ABC10BD00BFF8B5044600F11A052846618D04F13602A38E0CF0E5FE94F8A2
:200CA0003660C6F30116BEB9237E032B19D83BB3E3685B00E36041F2841540F6DC03C2F22B
:200CC0000005C2F200032E681B6804F108002B6004F0A0F82E60F8BD2046BDE8F840FFF7AF
:200CE000BBBF2846618DE56A276B00F05FF82046FFF7B2FF1DB138463146A847F8BDF8BDCD
:200D000003F068F84AF6AB23CAF6AA23A3FB0023DB0903EB4303A0EB831000F28110E0602B
:200D2000C9E700BF10B5044640F6D800C2F2000004F03EFB48B18388A34203D106E0838898
:200D4000A34202D000680028F9D110BD10BD00BF40F6D80010B5C2F2000004F029FB044640
:200D600010B910E0246874B104F1080004F05CF80028F7D0237E204601332376FFF784FF88
:200D80002468002CF0D110BD10B5044640F2A0402146C2F2000004F0BFFB40F6B84021468E
:200DA000C2F20000BDE8104004F058BBF8B5054640F6B840C2F200000E4604F0F9FA044624
:200DC000A0B1002704F11800294610220EF0E8FB10B9238DB34204D02468002CF2D13846D1
:200DE000F8BD2046FFF7D0FF0137F5E70746F6E72DE9F047054640F6B840C2F200000F4606
:200E00009246984604F0D4FA044630B34FF0000901E02468F4B104F11800294610220EF027
:200E2000BFFB0028F5D1268DBE42F2D194F82A604645EED104F12B00514642460EF0B0FB4C
:200E40000028E6D12046FFF79FFF246809F10109002CE0D14846BDE8F0878146FAE700BF3B
:200E60002DE9F843054640F6B840C2F200008846174604F09DFA044640B34FF0000907E0D2
:200E80000EF08EFB10B9238D434507D02468D4B12946102204F11800002DF1D1261DBE4202
:200EA000304608D00EF050FD3946024630460EF077FB0028EAD12046FFF766FF246809F1C2
:200EC0000109002CE4D14846BDE8F8838146FAE72DE9F041054640F6B840C2F200000E4609
:200EE000174604F065FA0446E8B14FF0000801E02468ACB104F11800294610220EF050FB57
:200F00000028F5D1238DB342F2D1A38EBB42EFD12046FFF739FF246808F10108002CE9D185
:200F20004046BDE8F0818046FAE700BF2DE9F0434468DBB0074620460E460EF005FD2146C1
:200F40000546132203A80EF089FD122DCCBF00230123002E08BF0023002B40F085804FF01A
:200F600000094B4608A8012145228DF81F900CF0DFFB4B460122494631A80CF0D9FB03A9FC
:200F800031A80DF035F803A80EF0DEFC064640F6B840C2F2000004F00BFA0446002860D002
:200FA00046F26768C6F266680BE0864206DA3A7AD30603D5A3191B792F2B08D02468002C72
:200FC0004FD0251D28460EF0BFFCB042EDD1294603A832460EF0E8FC0028EFD10CF09EFBE8
:200FE00004F11801228DFFF711FE05460028E5D0A36B88FB0321DA17C2EBE10202EB820260
:20100000B3EB820308BF8DF82530838808A9A386AB88D7F810C0ADF8283031A84023CDF857
:20102000009005F17402E0479DF92630002B05DBA16B08A84B1CA3630DF038F894F82A206A
:2010400004F12B0108A80CF059FF05F1360108A80CF07CFBA8862846FFF716FE2468002CBD
:20106000AFD15BB0BDE8F08303A831462844C5F113020EF0F3FC72E70021FFF757BF00BF42
:201080002DE9F04F0B46897981B00129144602D001B0BDE8F08F92F90620002AF8DBDA7C48
:2010A0005206F5D55A6E92B1012AF1D142F6B252C2F20002127834482832815A03F10B02E8
:2010C0009B7A083001B0BDE8F04FFFF791BE42F6B252C2F20002127842F6EC502832C2F2EB
:2010E0000000175AD3F860A0394652460830DE6D03F10B0993F80A80FFF7B2FE40F2A04045
:20110000C2F2000004F0EAF9B346054670B3122EC4BF1326B3465146324604300EF074FA39
:201120004FF0000AAB44194B8BF804A005F118060FCB86E80F00494642462F8585F82A808F
:2011400005F12B000EF060FA40F6B8402946A5F834A0C2F2000004F02DF9A96B20464B1C59
:20116000AB6301B0BDE8F04F0CF0A0BF4FF68871A3232046C0F200011022A37101B0BDE8B8
:20118000F04F0CF0F7BF00BFEC2D0020F42D00202DE9F04F85B0039191461F46DDF838803E
:2011A00000F002FA04F004F90646002800F0C78000257A1CD8F800A02C460292544508D302
:2011C000BD4212D24FF03C0309F80530D8F800A00135631C534508D3BD423FBF4FF02F0E67
:2011E00009F805E0D8F800A0013573680234184600930EF0A9FB00EB040BD345009B4BD8EF
:2012000006D3BD4204D24FF03E0209F805200135F3680BF10104E3B11A78D2B1D8F800A0D0
:20122000544536D3BD4234D24FF03B0309F80530D8F80020F3680192013592461846009377
:201240000EF082FB0BF1020B00EB0B045445009B3CD8BD4204D9D8F80030621B9A424BD870
:201260003668002E5AD024B9D8F800A05445B0D3A6E7D8F80030A34209D8BD4207D22C2395
:2012800009F80530D8F800A00135013496E79A46FBE7CDF804A0D1E7DDF808E0C4EB0A0A5D
:2012A0004FF69C72BAF1000FA8BF534409EB0500C5EB0E01C0F2000202F012FF0544BD426C
:2012C0002CD2D8F800309B459DD2A1E7019ADDF808E0CBEB020B4FF69C72BBF1000FA8BFA9
:2012E0005B4409EB0500C5EB0E01C0F2000202F0F7FE0544BD42B3D949462A4603980CF092
:2013000039FF039828210CF011FEC6B1D8F800303B44C8F8003005B0BDE8F08F002DEBD1FE
:20132000002CF2D0039882210CF0E2FD4FF640710398C0F200010F220CF01CFFE5E74FF00F
:20134000FF33C8F8003005B0BDE8F08F70B502880546C82A18D0D82A10D01AB1002303806B
:20136000032070BD41F28413C2F200031868852103F0C4FEC8232B80012070BD88291ED03E
:20138000D8232B80012070BD852916D140F6BC40C2F2000004F00CF8044618B9F0E7246868
:2013A000002CEDD0E369002BF9D0A1680029F6D004F10C0003F01AFDF1E7012070BD40F6A5
:2013C000BC40C2F2000003F0F3FF044618B9D7E72468002CD4D0A368002BF9D004F10C063D
:2013E000304603F021FD0028F2D0E3699847304603F006FDECE700BF2DE9F04F87B006AD14
:2014000000244FF6106645F8044DC0F200060391F4682946924699468046A047054640F663
:20142000C040C2F2000003F0C3FF0446002837D0DDF814B00AE006DD217ACB0603D51BF80D
:2014400000102F2909D02468002C29D0676838460EF07AFA85420246EDD1384659460EF0F3
:20146000A3FA03460028EED1029332694046904710F0010F029B1DD1850729D56569002DF2
:2014800026D0109B5246009340464B460399A847237A5B0612D40123184607B0BDE8F08F9D
:2014A00073690398D6F8881098470023184607B0BDE8F08F2569002DE3D1DDE7336E2046DA
:2014C0004146039A98470123184607B0BDE8F08F410702D5A569002DD3D1020702D5E56980
:2014E000002DCED1029303987269D6F88C109047029BDBE738B542F6A453C2F200031C780E
:2015000004B138BD40F6C0400122C2F200004FF610651A70C0F2000503F046FF41F2F93085
:20152000AB68C0F2000098476B68984740F2D0402146C2F20000BDE8384003F011BE00BF5A
:2015400070B5044640F6C0406160C2F20000214603F030FF94F90830002B00DB70BD216A65
:20156000CB69002BFAD08B68002BF7D040F6BC4040F2D045C2F20000C2F2000503F01AFF6B
:20158000284603F01FFE0028E8D041F28416236AC2F20006346803F10C009968356003F0B4
:2015A00025FC3460DAE700BF40F6C040C2F20000704700BFF0B5002783B005463E463C4646
:2015C000284600F03FFA0194019B9E4206DD00BF019B01330193019B9E42F8DC284600F0AF
:2015E0003BFA0194019BC6F5C876B34206DA00BF019B01330193019BB342F8DB0137B7F54C
:20160000487F06D0B7F5C87FCCBFC7F548763E46D6E703B0F0BD00BF2DE9F0414FF4EC74EB
:20162000C1F2000423684FF4804086B05B68C4F2030001219847236801214FF480400A46B2
:201640001B68C4F20300984709F0E8FB01F0A6FC01F034FC00F036FC01F072FC00F0E8F98D
:2016600044F20C000821C4F209010123C4F2090042F22C02C4F2090203600B601846136892
:20168000FFF798FF09F0CEFB00F0C0FD00F0CCFC03F09EFD00F0C2FE03F0A8FC41F234203A
:2016A00002F09EFB01F05AF903F068FE4FF6BC70C0F2000000F080FF4FF6E07000214BF27D
:2016C000AC72C0F2000002F0E3FC4FF6F870C0F2000000F071FF09F0EFFA4FF6B8754FF611
:2016E000B47410F0040FC0F20005C0F200040CBFA846A04609F0E8FA012814BF2F462746EA
:2017000009F0DAFA10F0020F0CBF2E46264609F0D3FA10F0080F08BF2C4640F214003A4664
:20172000334600944146C0F2010002F0B1FC40F2BC500021C2F2000003F012FD03F0EAF9D8
:2017400003F088FA0220FFF735FF40F24800C0F2010002F09DFC40F2A423C0F201031868E1
:2017600000F02AFF40F25000C0F2010002F090FC40F21033C0F20103186800F01DFF40F2B4
:201780005800C0F2010040F2443402F081FCC0F201044FF69C702168C0F2000002F078FC7C
:2017A000E469A04738B1A047014640F26000C0F2010002F06DFC0A2000F0F6FE00260AF010
:2017C0001FFD04A80821039643F2006400F02AFF40F2AC159DF817209DF81680C2F200042B
:2017E000C0F2010504AB03CB42EA0828EF6A2060616002204AF6CD31B84741460320B847B6
:2018000019210120B847082204A96B6B0B209847AB6A03A90120984740F284000399C0F2F2
:20182000010002F035FC42F6905340F29800C2F200034146C0F20100A3F8008002F028FC7D
:201840006268216842F6E453C2F2000319605A600AF06CFE40F240603146C2F2000003F088
:201860007FFC0420FFF7A6FE40F2E0403146C2F2000003F075FC4FF60440C0F2000003F020
:20188000EBF800F0DBFD0820FFF794FE03F0CCFB044600F0EDFD14F0FF0FF7D101F0ACF99F
:2018A000F4E700BF2DE9F04105888046772D42D07E2D36D025B1002303800320BDE8F081D8
:2018C00003F08CFB40F2F046C2F2000643F2566340F6C4443268C2F20003C2F200041870AF
:2018E0002560002A62D02B4642F6D4551F46C2F20005EF549368802000219847236801337A
:2019000056F823202360002AF3D1DBB242F6A551C2F200010B707723A8F800300120BDE8AA
:20192000F08143F25663C2F200031B788B4223D00120BDE8F08142F6A557C2F2000740F6E2
:20194000C44440F6C8463A78C2F20004C2F2000600239342336023600ADA42F6D455C2F210
:201960000005E956002923DB013393422360F4DB3368002BECD1CEE740F6C44442F6D455CA
:2019800042F6A55740F6C846C2F20004C2F20005C2F20007C2F2000623683268E85C511C13
:2019A00000F07F003A78E8543160DDE71346ADE743F2566140F2F042C2F20001C2F20002CD
:2019C000097852F82320002003F098FB0028E3D17E23A8F800300120BDE8F08110B442F6D3
:2019E000A553C2F200031C7804B340F2F042C2F20002136898424FF0000304D106E052F837
:201A0000041F884202D00133A342F8DB42F6D452C2F20002D15C40F2E04061F07F01D15492
:201A2000C2F200005DF8044B03F0BCBB2346EDE708B500F01DF842F6A653C2F200030022DB
:201A40001A7008BD42F6A653C2F200031A78024310461A7000F032B842F6A653C2F20003D6
:201A60001A7822EA000210461A7000F027B800BF10B540F6CC43C2F200031A68EAB901224F
:201A80004FF4DA741A60C1F2000423681920DB6B984723681B20DB6B984723680720DB6BB8
:201AA000984723680620DB6B984742F2A003C022C4F20203C0F600221A6010BD42F6A753AC
:201AC000C2F20003187042F2A002C3074FF0C00148BF42F29003C4F20202C0F6002148BFC1
:201AE000C4F20203116044BF4FF000721A60810741BF42F29003C4F202034FF000621A6067
:201B0000420741BF42F29003C4F2020380221A60030741BF42F29003C4F2020340221A6076
:201B2000704700BF0B2838B52AD00F2843D0122864D013286AD00C2800D038BD40F6D044A5
:201B4000C2F20004204603F09FFB0028F5D02046042103F085FB4FF40353C4F202031D6816
:201B6000C5F3003515B300F0B5FAA368C31AE36040F2F000C0F20100BDE83840FFF72EBF11
:201B800040F6E044C2F20004204603F07DFB0028D3D02046042103F063FB4FF40353C4F26C
:201BA00002031D68C5F3C025002D52D100F092FAE560A06038BD40F6F044C2F20004204670
:201BC00003F062FB0028B8D02046042103F048FB4FF40353C4F202031D68C5F3C035002D91
:201BE000E4D000F077FAA368C31AE36040F2B000C0F20100BDE83840FFF7F0BE4FF480414B
:201C00004FF08052BDE8384000F00EBF40F60054C2F20004204603F037FB00288DD0204621
:201C2000042103F01DFB4FF40353C4F202031D68C5F3C045002DB9D000F04CFAA368C31A0A
:201C4000E36040F2C000C0F20100BDE83840FFF7C5BE00F03FFAA368C31AE36040F2D000B0
:201C6000C0F20100BDE83840FFF7B8BE40B1012803BF40F6E043C2F20003D8680020704725
:201C80004FF40353C4F202031868C0F3C02080F00100704740B1012803BF40F6F043C2F2BC
:201CA0000003D868002070474FF40353C4F202031868C0F3C03080F00100704708B1002092
:201CC00070474FF40353C4F202031868C0F3804080F00100704700BF40B1012803BF40F60D
:201CE0000053C2F20003D868002070474FF40353C4F202031868C0F3C04080F00100704714
:201D000040B1012803BF40F6D043C2F20003D868002070474FF40353C4F202031868C0F349
:201D2000003080F00100704708B54FF4DA73C1F200031B685B689847C0F3804008BD00BF2C
:201D40008138012801D9002070470B20FFF7ECBF8138012801D9002070470F20FFF7E4BFC9
:201D60008138012801D9002070471220FFF7DCBF8138012801D9002070471320FFF7D4BFBE
:201D80008138012801D9002070470C20FFF7CCBF802838B514460CD0812809D151BB4FF466
:201DA000DA73C1F200031B6810465B6B984738BD38BD0122A24042F2E003C4F202034FF49E
:201DC000DA751A60C1F200052B6820469B6B98472B684FF4804220461B680021C2F2070245
:201DE000984741F62531E0B2C0F20001BDE8384001F08EB80122A24042F2E003C4F2020307
:201E00004FF4DA75C1F200051A602B6820469B6B98472B684FF4804220461B68C2F20702E2
:201E2000002198472B6820461B6B984738BD00BF08B50B22FFF7ACFF012008BD08B50F2231
:201E4000FFF7A6FF012008BD08B51222FFF7A0FF012008BD08B51322FFF79AFF012008BD2E
:201E600008B50C22FFF794FF012008BD10B54FF4DA74C1F2000423681A20DB6B984742F2DD
:201E8000A0034FF08062C4F202031A60236817209B6B9847236817209B694FF4C0419847B9
:201EA00010BD00BF10B54FF4DC74C1F20004236804205B699847236804205B6B98470128B8
:201EC000F9D110BD70B508F0A9FF0646FFF7EAFF4FF4DC73C1F200031B684FF4A060DB6929
:201EE000984742F22803C6F20803012142F228021960C4F2080213689B07FCD540F20C50AC
:201F00004FF4DA75C2F20000C1F2000500F0C6FF2B680D20DB6B42F2A0049847C4F2020495
:201F20004FF4005323602B681420DB6B98474FF48013236006B170BDBDE8704008F072BFE1
:201F40000120704710B503210820002208F02CFE49F21C03C4F20C0300221A6008F09EFE05
:201F6000044608F0CDFD204610BD00BF802838B50D4624D0812820D14FF4DA74C1F20004A5
:201F800023681A20DB6B9847236817201B6800214FF4C0429847236817209B6B9847C5B9A8
:201FA00042F2A003C4F202034FF0806240F220501A60C2F2000000F0E1FA012038BD4FF47A
:201FC000DA73C1F200031B681A20DB6B9847012038BD42F290034FF08062C4F2020340F231
:201FE00020501A60C2F2000000F066FA4823C1F20003586C092108F037FD4FF4FA6000F02B
:20200000B3F8012038BD00BF10B54FF4DC74C1F20004236804205B699847236804205B6B6A
:2020200098470128F9D110BDF8B540F23071C2F2000100220023C1E900234FF4DC73C1F275
:2020400000031B6804205B6B9847012801D0FFF7DBFF4FF4DC73C1F200031B680020DB6938
:20206000984742F22803C6F20803012142F228021960C4F2080213689B07FCD50C23C4F2D3
:20208000010319684FF4E47221F4807121F001011960C1F2000213680024C4F201044FF43E
:2020A00004511B682046C0F20041984704233C2108221F46C4F201013126C4F2010240F203
:2020C0002125C4F22433012027600E6015601860F8BD00BF10B442F2080342F20C04C4F239
:2020E0000903C4F209041968226818688142FAD1C90140F2307001EB5262C2F200000023E5
:20210000C0E900235DF8044B03C8704710B542F2080342F20C04C4F20903C4F2090419687F
:20212000226818688142FAD1C90140F2307001EB52620023C2F20000C0E9002302F07EFEBA
:2021400000B910BDBDE8104002F04ABE10B508F065FE42F20803C4F209031C6808B908F0AC
:2021600061FE204610BD00BF38B54FF4DC73C1F200031B6804465B6B04209847012801D049
:20218000FFF742FF4FF4DC72C1F20002126842F25403C4F208031D680020D369984742F208
:2021A0002803C6F20803012142F2280205F001051960C4F2080213689B07FCD52C22C4F28B
:2021C00001020C231460C4F2010319681A4641F4807119601368D805FCD405B138BD4FF409
:2021E000DC73C1F200031B6828461B6A984742F22803C6F20803012142F228021960C4F2B4
:20220000080213689907FCD538BD00BF2DE9F04108F004FE002642F204034FF48032C4F2C7
:20222000090301240027C4F224364FF480714FF4C2753760C1F200051C6019601A602B6837
:2022400080461B683846232198472B6820461B68242198472B6802201B68252198474FF454
:202260000053C4F20903196842F2080241F4E021C4F209021960176008F02EFC42F21C022F
:202280004FF4287300F50070C4F22433C4F209024FF4D8711060C1F200011C6034600B68FA
:2022A00014201B699847B8F1000F01D0BDE8F081BDE8F04108F0B6BD431E042818BF012B17
:2022C00010B42CD810F001021EBF42F21803C4F20903196010F002031EBF42F21C04C4F2E0
:2022E0000904216010F004001EBF42F22004C4F2090421602AB14FF42072C4F224320121F5
:2023000011602BB14FF42873C4F2243301221A6028B14FF43073C4F2243301221A605DF82A
:20232000044B704740F61053C2F200031868704708B50BF02FFF40F61053C2F20003186062
:20234000FFF7E4FEA023C4F224331B68BBB98023C4F224331B6863BBC023C4F224331B681A
:2023600063B14FF4307242F20403C4F224320020C4F209034FF480311060196008BD42F265
:202380000403C4F209034FF480721A6008F0A4FB00F2052020F4FF7242F21C03C4F209037D
:2023A00022F001021A608023C4F224331B68002BD2D04FF4207242F20403C4F22432002052
:2023C000C4F2090301211060196002F019FFC3E7820741BF4FF44063C4F2080301221A60AF
:2023E000C30700D4704708F01DBD00BF08B508F015FD4FF44063C4F208031A68012A03BF1A
:202400004EF25152C1F6CC221A60002308BF0223002814BF184643F0010008BD00224FF6F2
:20242000FF714FF44063C4F20802C0F20F01C4F20803012011601860704700BF38B5FFF7A0
:20244000D5FF00244FF6FF750C214FF48273C4F20804C0F20F050122C4F20033C4F2080113
:2024600025600A601A60BDE83840FFF7B1BF00BF00224FF6FF710C23C4F20802C0F20F0129
:20248000C4F20803012011601860704740F6145008B5C2F2000002F08BFF60B14FF400736C
:2024A000C4F22233012141F214021960C4F2090213689B06FCD508BD70B5044608F0AEFCA9
:2024C0004FF4D075064640F61450C2F200002146C1F2000502F06EFFFFF7D8FF2B68606834
:2024E0001B6898472B6860689B6898471128F9D106B170BDBDE8704008F094BC38B5044682
:2025000070B940F61450C2F2000002F051FF034630B120465A681B681043002BFAD110BB19
:2025200041F20403C4F209031D684FF4C0744FF400710020C4F2223125F4C055C4F222348C
:202540004FF4D0721D60C1F200022060086013680120DB68984741F21402C4F20902136899
:202560009906FCD438BD41F20403C4F209031A6822F4C05242F400621A6038BD38B5054612
:2025800008F04CFC044640F61450C2F20000294602F064FF0020FFF7B1FF04B138BDBDE88A
:2025A000384008F03FBC00BF10B50446C0B200F0EBF9204610BD00BF38B50546002403E06B
:2025C000285D00F0E1F9013428460DF0BDF98442F6D30A2000F0D8F900F0EAF90128FBD015
:2025E000204638BD70B505460E46A8B10078B8B1A1B1002404E015F8010F38B1B44205D057
:2026000000F0C2F96B1C04F10104F4D100F0D0F90128FBD0204670BD0446F7E70C46F5E733
:202620000446F3E710B44FF6C7734FF6CF74C0F20103C0F2010413F8012FFF2A12D1A34212
:20264000F9D141F2F022C5F2000241B10A44002312F8014C013AC45401338B42F8DB5DF87C
:20266000044B70474FF6C872C0F20102EDE700BF802814D081280CD189B94FF4A04240F6DE
:202680001853C4F20902C2F20003116008461960704740F61853C2F20003186870474FF496
:2026A000A04140F618530122C4F209010320C2F20003086010461A60704700BF813801284B
:2026C0009DBF40F61853C2F2000318680020704740F61853C2F200031B6853B101280AD00D
:2026E000022803BF45F22803C4F209031868002070471846704708F0D3B900BF38B54FF4EB
:20270000DC75C1F200052B6802205B6998472B6802205B6B98474FF4DC7301280446C1F246
:202720000003F4D11B684FF40070DB69984742F22803C6F2080342F228021C60C4F20802BC
:2027400013689B07FCD538BD2DE9F0434FF4E87683B0C1F20006FFF7D1FF33684FF480504C
:202760004FF4D878DB68C4F20000C1F200089847D8F8003041F238045B691520C4F2000411
:202780009847236841F2440523F4FE6323F00203C4F2000540F2F2794FF4DA772360C1F2A1
:2027A0000007C5F800903B680320DB6B984742F29003C4F2020308221A603A684FF0FF33A1
:2027C00000934FF48050176CC4F2000002210322B84733684FF480504FF4D8415E68C4F24D
:2027E0000000C0F2DC214FF4E1326023B04741F23403C4F20003142141F22C021960C4F272
:202800000002116840F61C5341F010011160C2F20003196840F2013640F2011041F230029C
:20282000002914BF31460146C4F200021160C5F800901B6843B12368152043F05003236028
:20284000D8F800301B69984703B0BDE8F08300BF08B54FF4DC73C1F200031B6802205B6B1B
:202860009847012801BF42F26C03C4F20803186800F0010018BF002008BD00BF38B5044609
:20288000FFF7E6FF30B141F21802C4F2000213681807FCD4032C06D040F61C53C2F20003AC
:2028A0001B6803B138BDFFF7D3FF38BB4FF4DC75C1F200052B684FF400701B6A9847032C0C
:2028C00041D042F22803C6F20803012142F228021960C4F2080213689907FCD5032000F00D
:2028E000FFFA022000F0FCFA4FF0FF3000F0F8FABDE838404FF0FF3000F0F2BA4FF4E873C2
:20290000C1F200031B684FF48050DB68C4F2000098474FF4D873C1F200031B6815205B69D3
:20292000984741F23803C4F20003186841F2440220F4FE6020F00200C4F2000240F2F271C7
:2029400018601160B2E72B684FF400709B6A98472B684FF400701B6B9847B2E710B508F0CA
:202960005DFA044640F22850C2F2000000F096FA40F61C53C2F2000300221A6004B110BD5E
:20298000BDE8104008F04EBA10B50446FFF760FF08B9FFF7D9FE4FF4E873C1F200031B6879
:2029A0004FF480502146DB69C4F20000984710BD08B5FFF74DFF30B141F21803C4F2000310
:2029C0001868C0F3C00008BD70B5FFF797FE4FF48253C4F200031A6841F24403C4F2000309
:2029E00040F2F27112F0500F196018D041F218054FF4E87640F61C54C4F20005C1F2000675
:202A0000C2F2000406E03368C4F200001B69984723682BB92B684FF48050DB06F3D570BD79
:202A2000C0B29847F6E700BF2DE9F047402382B000240E46174601930546009408F0EEF9A0
:202A4000224642F20403C4F20903C4F224324FF0010E4FF480704FF480314FF4C27814609F
:202A6000C1F20008C3F800E018601960D8F8003020461B6801343F219847042CF6D14FF478
:202A8000C278C1F200080024D8F8003020469B6801343F219847032CF6D142F22C03C4F231
:202AA00009031B68FFF7E4FC40F62050C2F2000002F07EFC044630B1A368032003B19847FF
:202AC0002468002CF8D16B1C12D04FF4D053AA00C4F24423134300214FF4DA721960C1F2AD
:202AE0000002136847F00052324328461B68984744F20C090024C4F209094FF4DC75C9F8FF
:202B00000040C1F200052B6807209B6998476846FFF7D2FC00F0BCFA00F06AFA4FF480529F
:202B2000C4F20902116841F2080321F003011160C4F209031A684FF4825622F00F021A609B
:202B40002B68C4F209069B693820984734600120FFF7D4FC4FF484684FF4C47E4FF4A07060
:202B60004FF4A2710822C4F2043EC4F222384FF0010AC4F22230C4F22231C4F2090242F27D
:202B80002C0742F224233460C4F20907C8F80040C4F20803CEF800A004600C60C9F8004035
:202BA00014603A6819684FF4EC7221F003011960C1F2000213684FF48040C4F2030003213F
:202BC0005B68984741F21803C4F209033460C8F80040C3F800A02B683A689B6B984702B088
:202BE000BDE8F0874EF61053CEF200031A6822F004021A6030BF704770B508F00FF902F07E
:202C000071FA18B1BDE8704008F00CB940F62050C2F2000002F0CCFB0225044648B1636826
:202C200023B19847A84228BF2846C5B22468002CF5D10BF0AFFA4FF42073C4F224331B68A3
:202C40000446002B40F0B88002F0F8F803460146002840F0F280012D00F0CC80022DD1D120
:202C60002846002B00F00581FFF726FB40F62050C2F2000002F09CFB06250446002800F0BE
:202C8000AF80A368022003B198472369246825EA0305002CF5D1FFF7EBFB6A0705F00604D8
:202CA00000F1A180002C40F0E98000F0F1F90020FFF724FC4FF48052C4F20902116841F2AB
:202CC000080321F003011160C4F2090319684FF4DC7241F00F011960C1F20002136839204C
:202CE0009B6998474FF482524FF484610023C4F20902C4F222311360184613600B6008F01E
:202D00002FFD062C00F0C38042F22C0542F22424C4F20804C4F209052B6823684FF4EC76F8
:202D200023F003032360C1F2000633684FF48040C4F2030003215B6898474FF4DC73C1F2DC
:202D400000031B689B6B98472B6808F061FE4FF4C0730022C4F204331A6033684FF4804081
:202D6000C4F203005B6801219847216844F20C0341F003010122C4F2090321601A602B6860
:202D800008F086FEFFF782FBFFF7C0F9FFF770FB40F62050C2F2000002F00AFB044628B1C0
:202DA000E36803B198472468002CF9D108F03AF8BDE8704008F036B842F21803C4F209033D
:202DC0001B681B1A022B52D4A3F28F23002BB8BF0123BFF639AF9D4228BF1D46EDB233E75C
:202DE000FFF746FB062444F20C03C4F2090300221A6057E7002B4ED04FF6F873CFF6FF7361
:202E00001B1BCB4248BF04F1080106D404F58034631A31EA230128BF21460220FFF74CFA7B
:202E20004EF61053CEF200031A6822F004021A6030BFBDE8704007F0F5BF02F009F80646E6
:202E4000FFF748F9361A002E15DDFFF76BFA4FF67153CFF6FF731B1B00EB4621CB424FF05C
:202E600001037FF5F8AE9D4228BF1D46F3E60023B1E7611EF8E600231946F4E74FF4DC732B
:202E8000C1F200031B6820469B6998470DE7022008F07EF838E704F58031BEE7014640F641
:202EA0002050C2F2000002F085BA00BF014640F62050C2F2000002F0D1BA00BF40F620507B
:202EC00008B5C2F2000002F06FFA4FF4C273C1F200031B6803201B682021984708BD00BF2B
:202EE000411C10B5044611D04FF4DA73C1F200031B684FF4C0421B68002198474FF4D0538E
:202F0000A400C4F24423234300221A6010BD00BF38B504460D4607F081FF0121A14042F22A
:202F2000E00240F62453C4F20202C2F20003116043F8245000B138BDBDE8384007F072BF86
:202F400008B5084B002103F1800243F8041F9342FBD14FF4D873C1F200031B6810201B6950
:202F6000984708BD200D0020F8B542F2E003C4F202031D6840F624571D60C2F2000700244F
:202F8000012606FA04F32B42E0B203D057F8243003B198470134202CF3D1F8BD00B585B027
:202FA0000022412302A802920393FFF785FA042007F0DCFF032814D00420032107F0A6FF59
:202FC000042007F0D3FF03280346F9D14FF420400093C4F20C0000214FF040521C2307F0A6
:202FE00043FF02A8FFF7CAFA05B05DF804FB00BF00B583B00022412368468DE80C00FFF7D0
:203000005BFA042007F0B2FF022808D00420022107F07CFF042007F0A9FF0228FAD168466E
:20302000FFF7ACFA03B05DF804FB00BF00B583B00022412368468DE80C00FFF73DFA012043
:2030400007F094FF012803D00320012107F05EFF6846FFF793FA03B05DF804FB00B583B031
:203060000022412368468DE80C00FFF725FA012007F07CFF012805D04823C1F20003986BD1
:2030800007F0D8FC6846FFF779FA03B05DF804FB10B582B041236846002401930094FFF7FC
:2030A0000BFA0320214607F031FF012007F05EFF28B14823C1F20003986B07F0BBFC68468C
:2030C000FFF75CFA02B010BD08B50BF093F848B141F22803C2F200035888022814BF0220D5
:2030E000012008BD022008BD70B582B00BF082F860B941F22800C2F2000001A90BF082F8F0
:20310000012818BF00200CD002B070BD41F22804C2F200046388022B08BF0120E9D102B051
:2031200070BD0BF037F84FF6C076CFF6FF7641F22804361AC2F2000403E00BF02BF8C64213
:203140000AD5608841F228050228C2F20005F4D1831E58425841D7E76888F9E708B5B329A5
:2031600094BF0A46B422014602480CF04DFA002008BD00BFBA1000202DE9F041044607F0EC
:203180004DFE43F204030746C4F2040344B11A6841F21C03C2F200031A60BFB1BDE8F0811E
:2031A000D3F8008041F21C06C2F2000618F1804432684FF0000545F1000500239D4208BF06
:2031C000944207D3C6F80080002FE7D1BDE8F04107F028BE0AF0DEFF40F6A453C2F20003AC
:2031E000196841F22402C2F20002013110601960C6F80080E8E700BF10B588B002A8182178
:2032000040F602020BF07AFA40F27C53C2F200031B689DF81A2019799DF81B4061F305021E
:203220008DF81A20597902A861F387128DF81A209A7940F2505362F34704C2F20003012245
:2032400001A98DF81B4007938DF816200AF0DAFF012818BF002001D008B010BD02A80BF0A1
:2032600027F8421E5042504108B010BD08B5FFF7C3FF012801D0002008BDFFF735FFC0B237
:2032800008BD00BF70B540F6EC75C2F2000542F6A8562C68C2F20006002006E02379022BE2
:2032A00006D024682B68A34211D02379032BF5D133780120002BF4D140F21470C2F200009D
:2032C00001F070FF24682B680120A342EDD170BD10B582B00BF00CFA04460AF08BFF08B9F7
:2032E00002B010BD0120C0F2014001A90AF08AFF0128F5D1638803F44063002BF0D16388C3
:2033000003F44063002BF5D0EAE700BF0B280ED00C2801D001207047D1F1010038BF0020CB
:20332000042A18BF40F00100C0B102207047D1F1010038BF0020082A0CBF024640F00102BB
:20334000002AF2D1094B0139A3F1080013F8012D834201F8012FF9D10020704740F6E873FD
:20336000C2F200031B680B60704700BF5810002010B584B00AF03EFF08B904B010BD002414
:2033800042F2034302A801A902940394ADF808300AF038FF0028F0D09DF90A30803318BFE2
:2033A0002046EAD19DF80C00C0F38100411E48424841E2E710B582B00AF01CFF28B341F2C2
:2033C0002804C2F200046388022B1ED1FFF7D0FF0028FBD1012001A9C0F201400AF012FF80
:2033E00002E06388022B03D10AF004FF0028F8D1638842F2074042F20242934218BF8342C2
:2034000014BF0020012002B010BD012002B010BD10B50BF0D3F9012832D0FFF7A9FF0446DA
:203420000028FAD1FFF7C6FF0BF036F8FFF730FE40F6A853C2F20003197941F2280202298F
:2034400008BF1C7140F63863C2F20003C2F2000254801A79022A04BF00221A7140F6C86376
:20346000C2F200031A79022A04BF00221A7140F65873C2F200031A79022A04BF00221A717F
:20348000012010BD30B585B00AF0B4FEC0B141F22803C2F200035B88022B11D1002442F2A8
:2034A000034503E09DF80A3058060CD102A801A902940394ADF808500AF0A4FE0028F1D1D3
:2034C000FF2005B030BD9DF80C0005B030BD00BF0B2808B501D0012008BDD1F1010338BFC5
:2034E0000023082A0CBF1A4643F00102022002B108BD0E4B083103F1080011F8012D03F8BC
:20350000012F8342F9D10AF075FE0028F0D041F22803C2F200035B88022B05D1FFF74AFF5D
:20352000FFF7E2FD032008BD002008BD4F10002010B50BF043F901280CD00AF05BFE48B11D
:2035400041F22803C2F200035B88022B02D1FFF70FFF08B1002010BDFFF794FFFF28F9D050
:20356000C0F3801010BD00BFF8B50BF027F9012842D0FFF75BFD0AF03DFE002835D140F692
:20358000A85240F6386040F6C86140F65873C2F20002C2F20000C2F20001C2F2000392F8A3
:2035A00005C090F805E04F795E790125882465F3830C65F3830E65F3830765F3830682F85B
:2035C00005C0106080F805E00160C480D480CC804F710B601A60DC805E71FFF73FFD0BF017
:2035E00007F8A8420AD00020F8BD41F22803C2F200035B88022BC2D10120F8BD42F6A85372
:20360000C2F200031878003018BF01200BF00EF8FFF7F2FDA842E6D1BDE8F840FFF764BDC0
:2036200070B584B0072800F2CE80DFE800F022762B373D70850441F22804C2F2000421772C
:203640000AF0D8FD38B36388022B24D1FFF7B2FE012814BF032400240AF0D8FF0020FFF7CF
:203660008BFDFFF741FD01280CBF2046032004B070BD012900F09980002900F090800220B2
:2036800004B070BD41F22804C2F2000461860AF0B1FD0028D7D1002004B070BD41F2280473
:2036A000C2F200042186CBE731F00703E7D141F22804C2F20004257E42F6A85261F30005D1
:2036C000EDB2C1F34000C2F2000245F00205167860F38205607EC1F3800105F0870563F313
:2036E000C71563F3C7108E42607625761170A7D1228B41F21403C2F20003184603A95A80F5
:203700000AF080FD00280CBF03200020AFE731F0010308BFC8B2B2D1A9E7A1F10B030F2B13
:20372000ADD841F22804C2F20004A37BC9B28B4218BFA17384D1AEE701F115031A2B9ED8ED
:2037400040F23C15C0F201050C2455F8342040F23C139142C0F201034FEAC4002CDD14F148
:20376000FF34F2D20AF046FD002880D005EBC40422796079A17902F03F024FF0000360F38F
:20378000871261F34703102403A802A98DF80E208DF80F30ADF80C400AF034FD7BE70191E1
:2037A000FFF736FE0199084661E7FFF7DDFE012814BF032000205AE740F27C520344C2F263
:2037C00000021360CEE7012051E700BF70B50C4682B069B1102800F2AF80DFE800F07E76E0
:2037E0006E668F8C5D542E251DADAD1915100C00022002B070BD05230B600020F9E76FF022
:2038000014030B600020F4E71A230B600020F0E70B230B600020ECE742F6AA53C2F2000314
:203820001B7800200B60E4E742F6A953C2F200031B7800205BB20B60DBE70AF0DBFC0028CE
:203840007CD041F22803C2F200035B88022B08BF002673D1002240F2034301A86946019241
:20386000ADF804300AF0CEFC01280CBF9DF902506FF07F05002E67D1256015F1800F0CBFA1
:2038800003200020B5E741F22803C2F2000393F91C3000200B60ACE740F27C53C2F2000386
:2038A0001B6800201B680B60A3E741F22803C2F200031B8E00200B609BE741F22803C2F210
:2038C00000035B8E00200B6093E741F22803C2F200039B7B00200B608BE70AF08BFC38B165
:2038E00041F22803C2F200035888861E70427041206000207DE7002008607AE7002241F28A
:2039000028030A60C2F200031A7E02F001020A601B7E5D0742F6A853C2F20003187844BFEA
:2039200042F002020A6000283FF463AF0B68002043F004030B605CE701205AE7FFF714FE95
:20394000012804D1064685E7FFF762FD94E76FF07F03236003204CE7F0B589B007460AF002
:2039600049FC002858D041F22803C2F200035B88022B08BF00264FD10AF00CFC4FF6E075E4
:20398000CFF6FF752D1A03E00AF004FCC5424CD5FFF7EEFC01280446F6D0002845D102A8A1
:2039A000182142F601420AF0A9FE42F6A855254BFFB2C2F200058DF81770297806930494C5
:2039C0009DF81430003118BF012164F3030301208DF814300AF06AFE02A801A90AF012FCDF
:2039E00038B3287800E050B3BDF80A3003F44063002BF8D0BDF80A40A4B2B4F5105418BFA4
:203A00000124003018BF01200AF066FE204656B1FFF7FEFC204606E0FFF7A6FD012808BFC9
:203A20000646A9D0012009B0F0BD2EB9022009B0F0BD28780124E4E7FFF7EAFCF6E7FFF78C
:203A4000D1F8CEE7BA10002010B5B32994BF0A46B4220C46014604480BF0D6FD2046BDE826
:203A60001040FFF779BF00BFBA10002038B50AF0A5FE012824D00AF0BDFB38B9FFF774FD6E
:203A800001280ED0FFF7C4FC012038BD41F22803C2F200035B88022BF0D1FFF769FC0028EA
:203AA000FBD10546FFF7EEFCFF2808BF012405D000F0030010F1FF3418BF0124204605B9E0
:203AC00038BDFFF7A5FC204638BD00BF2DE9F04F41F2200885B0C2F2000807460E46D8F82E
:203AE00000500AF087FB48B141F22803C2F200035B88022B02D10020FFF73EFB0AF04AFB7B
:203B00004FF6FA64CFF6FF74241A03E00AF042FBC44209D52B79022BF8D0032B18BF0020D0
:203B200007D005B0BDE8F08F2B79032B18BF0020F7D1D8F8004041F22003227AC2F200038B
:203B4000032A05D9257AEDB2A5F10809B14507DD226800201A602071207205B0BDE8F08F7B
:203B600004F109014A4638460BF04EFDEB1C0535E25C42F6A95B6059C2F2000B8BF800201C
:203B80000390E15C039B42F6AA5A40F6A45201F07F01C2F2000AC2F20002B3F1404F8AF8B5
:203BA0000010126810D98DE80C000AF0F3FA9DE80C0041F22401C2F200010968401AB0F120
:203BC000877F48BF02F1FF3242F65841C2F200016FF4BF76F61809684FF0FF3747F1000763
:203BE000761A67EBE1770024A41942EB070540F238762902C2F2000643F60952002341EACA
:203C000014612002C6E900450BF094F942F6A852C2F2000240F6E8731278C2F2000318605F
:203C20004AB1D8F80030002219684846C8F800101A721A7175E79BF80010042049B289B218
:203C400008F046FC9AF80010032008F041FCE8E710B50AF0CFFAC0B141F22803C2F2000353
:203C60005B88022B11D10020FFF786FABDE8104040F6F47043F65142C2F20000C0F20002F9
:203C80004FF48731002300F081BFFFF76DFC0128ECD10020FFF770FAFFF7BAFBE6E700BFDA
:203CA0002DE9F84F40F23C5040F6A856C2F20006C2F20000FFF7F2F80AF070FC304600216A
:203CC00090220BF07DFD40F6386000219022C2F200000BF075FD40F6C86000219022C2F216
:203CE00000000BF06DFD40F6587000219022C2F2000041F22804C2F200040BF061FD002743
:203D000040F6EC7541F22003C2F20003C2F200052046394680221E6085E8C0000BF050FDCC
:203D20000722022363762276B4F818E041F2A80341F21402C2F20002FF200121C2F200034B
:203D40004FF0A60C42F6010B4FF0190A4FF0B9094FF06F082561A4F800B084F80EA084F89D
:203D60000F90636184F81B8084F81CC0A076617384F8371042F20206A2F802E010711680F5
:203D8000FFF7F2FB0128044618BF3C4602D02046BDE8F88F40F2A410C0F201000AF0BCFCC5
:203DA0002046FFF7E9F940F6F47043F65142C0F200023B46C2F200004FF4873100F0E6FEA7
:203DC00040F214703946C2F2000001F0C9F92046BDE8F88F08B500F0A3F880B208BD00BFB7
:203DE00000F038B938B54FF4DC75C1F200052B6804205B6998472B6804205B6B98474FF4B0
:203E0000DC7301280446C1F20003F4D11B6840F20140DB69984742F22803C6F2080342F2F6
:203E200028021C60C4F2080213689B07FCD538BD41F27013C2F20003186800280CBF022037
:203E4000012070472DE9F04103880646002B4AD0B3F5847F09D140F22E73C2F200031B7885
:203E60008B4207D00120BDE8F081002303800320BDE8F08141F27017C2F200073B68B3B10C
:203E80004FF4E673C1F200031A6848F20403C4F2020352680220D3F80080904700242218F6
:203EA00048F10003194610463B6898473C604FF4DC73C1F200031B6840F201409B6A9847D1
:203EC00042F22803C6F20803012142F228021960C4F2080213689907FCD540F28050C2F265
:203EE0000000FEF7E3FF4FF4847333800120BDE8F08100BF08B54FF4DC73C1F200031B6880
:203F000004205B6B9847012801BF42F23C03C4F208031868C0F3400018BF002008BD00BFCD
:203F200070B541F27013C2F200031B68D3B141F27410C2F200000023C15C41F27412C2F2D0
:203F4000000229B90133042BF6D10020014670BD40F240710024C2F2000101EBC301D4542B
:203F600003C970BDFFF7C6FF002842D048F20803C4F202031A680123C8F2000313409BB949
:203F800049F6F073C4F2020301221A6018680028FCD102464FF4807107F0BEFD4FF42A73A4
:203FA000C4F2502301221A6006F038FF48F208020646C4F202021368D807FCD54FF4E673FD
:203FC000C1F200031A6848F20403C4F20203526802201C68904700222346141843F1000586
:203FE00016B12046294670BD06F01CFF2046294670BDFFF7F7FEB9E738B54FF42A75002467
:20400000C4F2502548F20C032C60C4F2020319684FF4D87221F001011960C1F2000213681B
:2040200031205B699847204622464FF4807107F073FD012240F22E732A60C2F2000340F2BA
:20404000945022461978C2F20000BDE8384001F055B800BF10B540F22E74C2F20004237809
:20406000802B00D010BD00F0B9FF207040F29450C2F200000021BDE8104001F071B800BF07
:2040800008B51AB108461146FEF7ACFA002008BD0FB400B583B004AB53F8041B40F2A45089
:2040A0001A46C2F20000019300F054F803B05DF804EB04B0704700BF38B543681546934233
:2040C00098BF03F1FF3504462A4600680BF09CFA94E80C002A445D1B84E82400002038BD9B
:2040E0000CB430B587B00AAB53F8045B44F2B904029003911A462946C0F2000402AD04A88C
:2041000001930494059500F025F8029B00221A7007B0BDE8304002B0704700BF38B50C4650
:20412000054609E040F20021C0F201012B6868681022103C984718B9102CF3D8204604B989
:2041400038BD40F200212246C0F201012B686868984738BD2DE9F04F40F2582491B0C0F2CE
:204160000104002582468946099204940295884698F80030002B00F0F080252B00F01983BF
:20418000444602E0252B04D02C466378651C002BF8D145450FD0C8EB050641463246DAF8D5
:2041A0000030DAF804009847002840F08F826378029C34440294002B00F0CF806B78002BB2
:2041C00000F0CB8001350024A3F12002AC46102A1CD8DFE802F0181B1B151B1B1B1B1B1BB6
:2041E0001B121B0F1B1B090044F0100401359CF80130E9E744F00104F8E744F00604F5E7E4
:2042000044F00804F2E744F00204EFE7A3F13102D2B2082A00F2E580A3F13002D2B2092A24
:204220009CBF01354FF0000B00F2DE800BEB8B0B03EB4B0BAC4615F8013BABF1300BA3F1DD
:204240003002D2B2092AF1D92E2B00F0D2804FF0FF316C2B00F0EE80682B00F07B81782B8A
:2042600000F28180DFE813F079007F007F007F007F007F007F007F007F007F007F007F0093
:204280007F007F007F007F007F007F007F007F007F007F007F007F007F007F007F007F002E
:2042A0007F007F007F007F007F007F007F007F007F00A2027F007F007F007F007F007F00E9
:2042C0007F007F007F007F007F007F007F007F007F007F007F007F007F007F007F007F00EE
:2042E0007F007F007F007F007F009F027F007F007F009C02990296027F007F007F007F0058
:204300007F007F007F007F007F007F007F007F007F007F007F007F0093027F007F007F0097
:204320007F007F007F007F007F0090027F008D028A028702840281027F008A027F007F003B
:204340007F007F007D007E027B027F007F0078027F0075027F007F007202029811B0BDE805
:20436000F08F44F4E06404F4E063B3F5806F0CF1010800F0CF806DD9B3F5C06F00F0B281EB
:20438000B3F5E06F00F0A781B3F5A06F7FF4F0AE099BBBF1010F1A6803F1040309938CBF82
:2043A0000BF1FF3B4FF0000BE3078DF8282000F13E8350465946FFF7B1FE002840F08681DB
:2043C000029CDAF800305C44DAF804000AA9012202949847002840F079810BF1010B029D83
:2043E00095E02A2B00F0C6802E2B4FF0000B7FF42EAF9CF801300CF10101A3F13002D2B2BC
:20440000092A00F2C4800CF102024FF0000909EB890903EB490913789446A3F13001C9B27F
:204420000929A9F1300902F10102F0D96C2B49467FF412AF9CF801306C2B03BF9CF802307A
:2044400044F080040CF1020C0CF1010C18BF44F0600404E7B3F5807F00F0A780B3F5407F10
:204460007FF486AE099A40F23427116840F22023C0F20103043214F4804FC0F2010718BF23
:204480001F46099200230A46002900F057810DF13A00110902F00F0241EA0371BD5C1E0984
:2044A0000A463346014600F8015952EA0305F0D10DF13B035B1A18BFDD1C00F041817820CA
:2044C00030222323AB4501F8010C01F8022C01F8033CA1F103063AD84FF0000B14F00104EF
:2044E00006D150465946FFF719FE002840F0EE803146DAF80030DAF804002A469847002817
:2045000040F0E48002980544002C40F0FB805D4402952DE6099B1E6804330993002E00F0E7
:204520004A8233781D466BB1731C18781A4601330028FAD1951B8D4294BF0023012300299D
:20454000B8BF0023002B18BF0D46AB45C4D9C5EB0B0BC3E79CF80130682B03BF9CF802308F
:2045600044F020040CF1020C0CF1010C18BF44F0400474E6099B05F1010C1A680433002A9B
:204580000993B8BF44F0010493466B785CE62A2B18BF8C467FF45BAE099A9CF80230111DC0
:2045A00009910CF1020C116853E60029ABBF24F0100401250591059514F4005504F0E0035F
:2045C000039500F0A780402B00F0208200F2F380002B00F0DE81202B40F00882099B1A1D70
:2045E000099293F90020D317002A73F10000C0F2DA81CDE906230025089504F4C053B3F59B
:20460000805F00F06481B3F5C05F00F07F81B3F5006F1CBF0DF13E054FF0000900F0328111
:20462000059941F60803894504EA030341F20802C0F0E580934218BF002600F00A8241F601
:204640000802934206EB090100F0FC8000273A46039870B1089B002B40F00E8104F0060327
:20466000022B00F0CD810498062B08BF012708BF02467B189B458CBFC3EB0B0B4FF0000B38
:2046800014F00103039304D1E10640F19E815E449B463FB11146DAF80030DAF804003A464E
:2046A000984798B9102E344603D8B5E0102C40F2B38040F21021C0F20101DAF80030DAF816
:2046C00004001022103C98470028EFD04FF0FF3011B0BDE8F08F099B029C1A6804331460D0
:2046E000099345E540F26421C0F20101DAF80030DAF80400012298470028E7D1029C0134FC
:20470000029435E550465946FFF708FD00283FF4FEAEDBE7402B00F080815CD8002B00F045
:204720002D81202B40F05B81099B039D18781A1D002108950992CDE906015EE70DF13B01D4
:20474000302301F8013C04250139B8E644F4C85409E644F4106406E644F4806403E644F4B7
:20476000407400E644F48854FDE544F48134FAE544F40074F7E544F40244F4E544F424544E
:20478000F1E544F4A064EEE544F4C134EBE544F4B244E8E544F4A134E5E544F48444E2E59E
:2047A00044F44244DFE544F4E134DCE544F4C064D9E5454602E5602B00F0EB80802B40F01C
:2047C0001581099B073323F0070303F108020992D3E9002308E7602B00F0D080802B40F03B
:2047E000FE80099B039D073323F0070303F10802D3E9000108950992CDE90601FDE6934238
:20480000C9EB01067FF41BAF002E08BF012600273A4606EB09011BE7002C40F0A1802946F4
:20482000DAF80030DAF804004A46984700287FF44DAF029B039C4B441F443E44ACB95E44E3
:20484000029695E4DDE9062313433FF4FFAE40F24C2240F2482314F4804FC0F20102C0F2A7
:20486000010318BF1A460227F2E650465946FFF755FC0028E3D029E740F25022C0F201023C
:204880000127F6E6DDE90601014300F0B480DDE906670DF13D09304639460A2200230AF02A
:2048A00049FB303289F80020304639460A2200230AF040FB06460F4656EA07024D4609F1C1
:2048C000FF39E8D10DF13E03C5EB0309A8E6DDE90623134300F08F80DDE906230DF13D01EF
:2048E000D00840EA4370DE0802F00707334602460D4652EA030007F13001297005F1FF31E2
:20490000EED10DF13E03C5EB030989E640F2342740F2202314F4804FC0F20103C0F2010725
:2049200018BF1F46DDE90623134364D0DDE906230DF13D01100902F00F0540EA03704FEAA2
:20494000131E7E5D0246734652EA03000D460E7001F1FF31EED10DF13E03C5EB03095FE619
:2049600040F210212246C0F20101DAF80030DAF80400984700283FF452AFA7E6039D099BD4
:2049800008951A680021043310460993CDE9060133E6099B1A6804330993D317002A73F167
:2049A0000000BFF626AE504263EB43010125CDE90601089521E6052940F25C26C0F2010628
:2049C0008CBF002301230625BCE5504659460192FFF7A4FB019A00283FF45BAE76E600259C
:2049E000002000210895CDE9060106E600200021CDE90601FFE54FF000090DF13E050FE6D0
:204A000040F25422C0F20102012732E6099B1A1D0992B3F90020D317E6E5099B039D18881E
:204A20001A1D002108950992CDE90601E5E5DAF80030DAF804000AA90122984700287FF437
:204A400045AE50465946FFF769FB00283FF4C5AC3CE60126DBE600BF10B50446006830B1E7
:204A6000002100F07DFB54F8040F0028F8D110BDF8B5038806461546EBB14A2B17D1882907
:204A800046D141F27810C2F2000000F091FC044648B1031D9D4202D126E09D4224D0246899
:204AA000231D002CF9D14A2333800120F8BD002303800320F8BD41F27810C2F2000000F0ED
:204AC00077FC044630B1201DA16800F08FF92468002CF8D142F6AB53C2F2000301221A705F
:204AE0004A2333800120F8BD41F27810C2F20000214600F0B3FC41F284156269A369C2F2F4
:204B000000052F682A600BB1E06998472F60CAE70120F8BD10B542F6AB5341F2781000249B
:204B2000C2F20003C2F200001C7000F03DFC40F2AC502146C2F20000BDE8104000F010BB5C
:204B400070B542F6AB54C2F20004049D267882610446C36145614EB9A16041F278102146E1
:204B6000C2F20000BDE8704000F024BC41F28415C2F200052E6840F2AC53C2F20003043025
:204B80002B6000F033F92E60E7E700BF10B541F28414C2F20004246882B00094FFF7D0FFF4
:204BA00002B010BD70B542F6AB53C2F200031B7804466BB141F28415C2F200052E6840F21E
:204BC000AC53C2F2000304302B6000F019F92E6041F278102146C2F20000BDE8704000F0B5
:204BE000E9BB00BF70B542F6AB53C2F200031B7804466BB141F28415C2F200052E6840F2FA
:204C0000AC53C2F2000304302B6000F003F92E6041F278102146C2F20000BDE8704000F08A
:204C2000C9BB00BF10B542F6AB53C2F200031B78044653B9C360036141F278102146C2F239
:204C40000000BDE8104000F009BC043000F00CF9F2E700BF704700BF10B541F27C14C2F237
:204C600000042368CBB1FDF735FA236859681A689B680A44121A4BB193E812009B682144CA
:204C8000091A8A4228BF0A46002BF5D141F280130244C2F200031A6010BD41F28012C2F27A
:204CA0000002136010BD00BF2DE9F041038805467BB1592B08D1872915D0822926D059239B
:204CC0002B800120BDE8F081002303800320BDE8F08141F27C12C2F20002136059232B8002
:204CE0000120BDE8F08141F27C17C2F200073B68002BE4D0D9688A4203D02BE0D9688A4282
:204D000027D19B68002BF9D13B60D8E741F27C17C2F200074FF000083C68002CCFD00026EC
:204D200004E0A3682646002BC9D01C46204600F0ABFA0028F5D0E0688821224600F0DEF9EA
:204D4000034640F2BC50C2F2000073B100F02AFAE7E73B6099680029B1D0C86882420BBF0E
:204D600089680B4699608968F5E7E360A3682EB1B360C4F80880FFF76FFFCDE73B60F8E715
:204D800010B5044640F2BC50C2F2000000F00AFA41F27C12E368C2F20002116853B149B1E5
:204DA0008C4218BF0B4602D110E09C420ED09B68002BFAD141F28413C2F200031B68A16080
:204DC000E3601460BDE81040FFF746BF41F28413C2F200031B68E360BDE81040FFF73CBFFF
:204DE00040F2BC50C2F2000000F0DCB910B5044600F036FA2046BDE81040FFF7C1BF00BF7D
:204E000010B5044600F034FA2046BDE81040FFF7B7BF00BF10B5044600F030FA2046BDE8AB
:204E20001040FFF7ADBF00BFC068D0F1010038BF0020704705C81044704700BF41F27C13F0
:204E4000C2F200031868003018BF0120704700BF41F27C13C2F20003186820B141F28013ED
:204E6000C2F200031868704710B541F27C13C2F200031A680446904217D04AB193688342C6
:204E80000AD02BB19A68A24207D01346002BF9D10023A360E36010BD1346A2689A60FFF7C8
:204EA000DBFE0023A360E36010BD82681A60FFF7D3FEEDE72DE9F84341F28818C2F2000804
:204EC000D8F8004041F28416221CC2F2000618BF0122844218BF002C054689463768234618
:204EE00004D01B689D4218BF002BFAD163B3AB7BE3B10023AB736AB1A54220464FF087016F
:204F00002A4604D0A37BDB0701D500F029F82468002CF1D1AB683BB14D4505D0356005F1FB
:204F20000C00832100229847D8F80040A54212D04CB12368AB4209D02BB11A68AA4206D079
:204F40001346002BF9D13760BDE8F88323462A681A603760F8E72B683760C8F80030F3E76D
:204F600070B5856804460E468DB141F28413C2F200030220A0731C6004F10C00A8470238E7
:204F8000012805D9832E1CBF0123A37300D070BD20462146BDE87040FFF78CBF70B541F28C
:204FA0008813C2F200031C6842F6AE53C2F2000300261E7084B1012501E0246864B1E37B3C
:204FC000002BFAD0A573E673204682210022FFF7C7FF2468002CF2D170BD00BF42F6AF53E3
:204FE000C2F200031878421C1A70704770B442F6AD5041F2881141F28412002342F6AF557E
:2050000042F6AC54C2F20000C2F20001C2F20002C2F200058A26C2F2000403700B601360C7
:205020002E70237070BC70472DE9F04142F6AE54C2F2000423780BB1FFF7B0FF42F6AD55ED
:20504000C2F20005287818B342F6AC52C2F20002117841F28C1301EB410C4FEA8C0CC2F227
:20506000000303EB0C0701380131BE68C0B201F01F012870117013F80C807F68B6B1B8F171
:20508000810F04BF0123B37306D0B37BDA0703D423781844BDE8F081304641463A46FFF737
:2050A0005FFF287823781844BDE8F08141F28813C2F200031E6836B9EAE7B37BD9070AD42E
:2050C0003668002EEDD02378002BF6D0FFF766FFB37BD907F4D5304641463A46FFF740FFD7
:2050E000EEE700BF42F6AE5242F6AD53C2F20003C2F200021278187810447047F0B442F63E
:20510000AD53C2F200031D78202D08BF012315D042F6AC54C2F20004277841F28C142F4451
:2051200007F01F0707EB4707BF00C2F20004E6190135E1551D7072600023B0601846F0BC94
:20514000704700BF38B5837B41F28414C2F20004DB07256801D5FFF703FF256038BD00BFF5
:2051600070B441F28815C2F200052E680446864218BF002E334604D01B689C4218BF002B25
:20518000FAD1A3420BD0012000232660A073A3810A4620462C60812170BCFFF7D3BF70BCBF
:2051A000704700BF60B1837B013BDBB2012B9FBF42F6AE530122C2F200031A7098BFC273EE
:2051C000704700BF807B003018BF0120704700BF08F0DABF38B541F20C32C2F200020446D1
:2051E000156804986360A060216015B11460002038BD0846146008F0C9FF002038BD00BFAD
:2052000010B541F20C34C2F20004236863B1184600225B68816822609847236823B1186893
:20522000BDE8104008F0B2BF10BD00BF10B541600446FCF78BFF206010BD00BF10B504463C
:20524000FCF784FF616822684FF6FE730A44801AC7F6FF7398428CBF0020012010BD00BFC6
:2052600010B541600446FCF735FF206010BD00BF90E80C0013440360704700BF10B5044688
:20528000FCF728FF206010BD10B50446FCF722FF94E80C00C2F10102104483422CBF002022
:2052A000012010BDF8B504880546672C0ED0792C04D064B3002303800320F8BD852933D14B
:2052C00041F21844C2F200040023236041F2184441F29836C2F20004C2F2000607E00A28C6
:2052E00024D022687E2ADEBF511CB054196041F29030C2F2000000F059F941F21843421C2C
:20530000C2F20003EBD167232B800120F8BDFFF765FE43F2576241F21843C2F20002C2F2D0
:20532000000310701C60D1E70120F8BD41F21844C2F20004276841F2983343F25761C2F26B
:2053400000030026C2F200011A4607F1010E09783046DE55C4F800E0FFF7D0FE41F28413B4
:20536000C2F20003324618688521FFF7C7FE0028AAD179232B800120F8BD00BF08B541F2AE
:20538000903041F21031C2F20000C2F20001802200F004F9BDE8084040F2CC50C2F20000F2
:2053A0000021FFF7DDBE00BF00230360704700BF0068704710B404685CB1A14225D02368C1
:2053C0000BB906E01346994210D01A681C46002AF8D100230B6002680AB911E01A461368B1
:2053E000002BFBD111605DF8044B704764B10A68226000221A6000230B600268002AEED164
:2054000001605DF8044B70470C46226823460260EFE700BF30B4056865B1A94219D02B68C6
:2054200043B12C4600E01346994207D01A681C46002AF8D10D60016030BC704744B10A686C
:20544000226000221A6005680D60016030BC70470D462A682B460260F3E700BF10B40468CF
:205460005CB18C4215D023680BB906E01346994206D01A681C46002AF8D15DF8044B7047FB
:2054800034B11A68226000221A605DF8044B70470C46226823460260F5E700BF03682BB1A3
:2054A00000201B680130002BFBD170471846704700B10068704700BF10B5044662880021AC
:2054C00040680AF07DF923886288A06802FB03F2BDE8104000210AF073B900BF30B4458879
:2054E000BDB141680B7863B14A1C002303E01478114601322CB10133AB42F8DB002030BC9F
:20550000704701220A700588826803FB052030BC70472846F3E700BF70B4458882686DB1FA
:205520008A420FD006880023324402E091420AD022460133AB4202EB0604F7DBFF22104641
:2055400070BC704700234168CA5C002AF7D0013ACA54426870BCD25C1046704783688B4263
:2055600008D84288008800FB023399422CBF0020012070470020704710B4418859B14468F1
:2055800000200346E25C013302B901308B42F9DB5DF8044B70470846FAE700BF0023013AFC
:2055A0000160027143718371704700BF10B40346827940791979801A08421FBF1868541CF4
:2055C0002140805C14BF99714FF0FF305DF8044B704700BF08B546F23D10C0F2000002F043
:2055E00049FE41F29853C2F2000300220120FD21187099705A70DA7008BD00BF30B4137896
:205600000C7A83F002039C4218D00B891BB94B89B3F57F4F33D0012303FA00F041F2244366
:2056200051F8084FC2F200031A68496802F108051D6014605160C0B230BC70474C7A537898
:205640009C42E2D18C7A93789C42DED1CC7AD3789C42DAD10C7B13799C42D6D14C7B5379D6
:205660009C42D2D18C7B93799C42CED1D379CA7B9A42CAD1032303FA00F0C0B2DCE78B89B5
:20568000FE2BC8D1022303FA00F041F22443C2F200031A68C989C0B222F8021B1A60CBE73C
:2056A00010B542F6EC54C2F20004A179022006F00FFFA379112B0FD0062B0DD03A2B05BF47
:2056C00094F8281094F82930002143EA01210120BDE8104006F0FCBE238D618D0120994251
:2056E000A8BF1946BDE8104006F0F2BE10B541F29854C2F200042378012B01D0002010BD28
:2057000001460822A01C09F04BFF0028F6D1204610BD00BF08B50146102006F0E9FE40F2F5
:205720006C33C0F2010345F23D709B68C0F2000000219847BDE80840FCF79ABE10B5084630
:205740000C46114602F0E0F841F6FC23C2F200031B6813B19B682046984741F2A853C2F258
:2057600000031C6010BD00BF2DE9F843002341F2AC5607461A46C2F20006F418A57841F2B2
:20578000AC547133C2F2000435B101320C2AF4D14FF0FF30BDE8F883C2EBC20802EB081887
:2057A00004EB0805697006F0DDFD42F6B156C2F20006327841F2A453C2F200031B68801AA3
:2057C000A87004F8087003EB020906F0CBFD33784946C21AE81C09F017FFA878BDE8F8831D
:2057E0002DE9F04F814685B08B46002A3AD141F2AC566D4D14469446C2F200064FF0FF082F
:205800004FF0FF3A40F24C5135F8063C002B3FD1BAF1FF3F57D00134022C05F1B805F3D1AD
:20582000BAF1FF3F2DD0B82303FB0AFA41F22844C2F2000404EB0A05A5F812B0A5F81090B4
:205840000F2006F061FE0146284606F083F90AF1180020444021FFF703FD4FFA88F005B059
:20586000BDE8F08F41F22845C2F200052E4600241746338A4B452FD00134022C06F1B80652
:20588000F7D14FF0FF084FFA88F005B0BDE8F08F28468DE80210FFF7F7FC9DE802100028C3
:2058A000B6D025F806CCE7B20023F218907820B1985DB84208BF82F802C071338B42F4D1AC
:2058C000BAF1FF3FA7D135F8063C002BA3D15FFA84F84FFA88FA9EE7738A002BCCD00F2041
:2058E00006F012FE0146304606F03AF90028C3D05FFA84F8404639460197FFF735FF00283D
:20590000019A0CDB0028BCDDB82303FB0454A38A1844A0824FFA88F005B0BDE8F08FDFF8F7
:2059200088A0002341F2AC57CDF80C800293A046C2F20007544640F24C5B9A46914634F809
:20594000063CF3B1D0451CD02046FFF79DFCC0B15FFA8AF2B82606FB02514FF00000002391
:2059600048821846F9188E782EB1DE5D964202BF00268E70013071335B45F3D1029B0344F4
:2059800002930AF1010ABAF1020F04F1B804D6D1029E4446DDF80C80002E3FF472AF4946BC
:2059A0004046FFF7E1FEADE7401400202DE9F84314090F2C02F00F050ABF102626463446F0
:2059C0000F2D08BF102507469946A8467CBB08EB06020F2A03DD55B91CBBBDE8F883B81954
:2059E000C2F11002002109F0EBFE002DF4D041F22446C2F20006D6F80090C8F110002A4600
:205A00003844494609F000FE0A2C98BF022D04BFFF22FE234D4404BFFA723B733560BDE81B
:205A2000F88338464946BDE8F84301F053BE224609F0EAFDCBE700BF2DE9F04F0F208BB084
:205A400042F6B05642F6B15406F05EFD4FF00008C2F20006C2F2000406F00CF986F80080C8
:205A600084F8008006F066FC41F2A455C2F200052860042006F034FD2B6841F22042197861
:205A800093F801C001F0F80700B2C2F20002C02F10604CEA012100F09E80E02F40F0878057
:205AA000227893F804909F78D878C1F30A0B531D59464A4640EA07202370FFF791FE421C97
:205AC000029000F0858041F22843C2F20003B82202FB0033B3F814A0CDF80C80DA454FF0D2
:205AE0000108039F34BF4FF0000A4FF0010ACDF8108006F037FC237842F6B1548342C2F2A6
:205B0000000465D806F02EFC3378217803EBC909461A41F6F822B144C2F20002B9F57A7F1D
:205B2000166055D83FB12A68F81811443246019309F06AFD019BBBF1000F12D0039961B188
:205B4000029841F2284241B2C2F20002B82000FB0122991989B291821184BAF1000F40F0F0
:205B60001C81049880F001024AEA0202D2072FD518EA0A0F14BF42F6DC5342F6DC5241F672
:205B8000FC2412BFC2F200039B19C2F20002C2F2000414BFA3F800B01380236823B1FFF735
:205BA0007FFD23685B68984702F090FB10E042F6EC57CDF80880CDF80C80C346C2F20007F2
:205BC0002278995C01F0E00060284ED0412922D00BB0BDE8F08F94F800E09F78D878C1F3FD
:205BE0000A0B0EF104035946424640EA07202370FFF7F6FD411C0290EAD041F22843C2F29B
:205C00000003B82707FB00374FF001082237CDF80C802B68D4E7511CC9B20B4403F12000DE
:205C20003946D3F800A0D3F80490D3F808C0D3F80CE010338342C1F800A0C1F80490C1F86A
:205C400008C0C1F80CE001F11001EAD118685B6808604B6033780399293228334FF0000A7D
:205C600022703370D146049143E7981890F801A002324FFA8AF041F2244913440028C2F276
:205C80000009C9F80030BCBF0133C9F80030CB06049060D501F0080303F0FF00002B40F087
:205CA0008A81D9F800301A78C2F3830242F060023A7013F8012B7880900800F0300040EABD
:205CC0008212C9F800307A7001F0040303F0FF02059233B9D9F8003013F8012BBA71C9F8C2
:205CE000003011F0030115BF40F29823D9F80030C0F2010313F8012B15BF5B5CC9F8003044
:205D0000FB71FA711AF0400FCAF3011300F01D8104980028BBBF21782A6800215218B8BF89
:205D2000917803F0FF02B8BF0909002B00F0868041F29852C2F200021078012800F0C68101
:205D400041F21C4303990022C2F2000392461A6091460491CDE6080700F11781D9F8003032
:205D60001A4632F8010F9278A7F80100FA7013F8040B97F801E082080EF00F0C02F0300E18
:205D80004EEA801002F00F0242F0600240EA0C00C9F800303A70787096E70299B8224FB2F8
:205DA00002FB07F241F22849C2F2000909EB020442F6EC50228CA4F814B004F12201C2F244
:205DC00000000193C04C09F01FFC019B42F6EC5CCDF80C9004F24C55C146C2F2000C984656
:205DE00014F8012C22B114F8031C8F4200F0E9807134AC42F4D14346C846DDF80C90FFB231
:205E0000B82202FB079941F2AC5402980021C2F20004A9F812100A465FFA80FC8946274641
:205E200040F24C55A118887820B1D05D604508BF81F802907132AA42F4D192E607F1080194
:205E40000692079140F2B422C0F20102D25C0F20019206F059FB06990346019A0798FFF703
:205E6000A5FD0AF0080303F0FF010AF00302002B49D01AF0040F20D140F29423C0F2010398
:205E80001988531EDBB2012B98BFD9F80030ADF8241098BF13F8011B07F1180098BFC9F860
:205EA000003040F2B023C0F2010398BF8DF825109A5C09A90023FFF779FD3378059803F173
:205EC00028023270D9F8002028B1117801F0F801F02900F09E802B6842F6B159D21A22703F
:205EE000C2F20009BBF1000F43D0ABF128031A127B713A71BB79112B6FD0039B4FF0000AF7
:205F0000D1460493F5E51AF0040F6ED0049B41F2985A002BBCBF21782B68C2F2000ABCBFCF
:205F20005B1899789AF80030B8BF01F00F01012B00F0DB8041F21C430022C2F200039246E9
:205F40001A609146039A0492D3E540F29C22C0F20102D25C0F20019206F0D6FA40F2A021B7
:205F60000346019AC0F2010107F10800FFF71EFD77E706F0F7F999F800203378801A0344F7
:205F8000283B1A127B713A71B4E7D9F80000602203463A7013F8012B03304FEA920E0EF0B9
:205FA000300E02F00F024EEA02027A701B88C9F800007B8088E6002360223A707B707B8078
:205FC00082E614F8020C21460CEBC000CDF804C009F01AFBDDF804C00AE7BB8803984FF0E3
:205FE000000ABB85D146049083E540F29C23C0F20103102013F802A006F086FA40F2A02157
:2060000003465246C0F2010107F11800FFF7CEFC53E71121B971107800F0F301F03900F000
:206020000400C0B2032900F28380DFE801F04136230292F801E0911C4FEA1E1EAEF5756E62
:206040001FFA8EFE4FEA0E2E4EF0F00EA7F828E05278C9F8001002F00F02A2F5756292B2F3
:20606000120242F0F0027A850A4600285AD03033337030E792F801E0111DAEF5805E1FFAF7
:206080008EFE4FEA0E2E4EF0F00EA7F828E05288C9F800107A850A46E7E7B2F801E0111D9B
:2060A000A7F828E0D278C9F80010A2F58052D6E7B2F801E0511DA7F828E0B2F80320C9F8CA
:2060C00000107A850A46D0E7AF150020507888427FF436AE41F21C41C2F200010A600232FA
:2060E000069207F108020792ACE69AF801308B427FF420AF40F2B421C0F201018A5C41F235
:206100001C43C2F200031020C3F800A0019206F0FBF9019A03460AF1020107F11800FFF779
:2061200045FCCAE632F8021BF985C9F800209EE7039A4FF0000AD1460492DAE42DE9F04F9D
:2061400042F6B05642F6B15B00238BB0C2F20006C2F2000B33708BF80030044606F046F911
:2061600006F0E8F841F6FC23C2F2000341F2A4551B68C2F2000528600BB1FFF791FA08AF58
:206180000597002C00F00D832146384605F0E2FC42F6DC57C2F200073B8804973E2B41D9F8
:2061A0009BF80090D5F80080002309F1020941F22447C2F2000708F80930BE4808F10203B1
:2061C00007973B60FFF792FA002800F07981079F08F103033B608027069742F6EC54C2F242
:2061E000000463782278190941EA0211C9B2880840EA8111C9B218075FFA81FE40D1608894
:2062000000283DD1170705D113F0F00F08BF4FF0780A45D0079F4FF0700A3B6803F801EBCC
:206220003B603DE09BF800802B6808F1010E42F6EC54C2F200045FFA8EFE41229E441A7014
:20624000A44604F1200967460FCF4F45CEF80000CEF80410CEF80820CEF80C30BC460EF186
:20626000100EF0D1BCE80300CEF80000CEF80410337808F1290828338BF8008033709BE0A7
:20628000100703D113F0F00F00F00581079F20683A684FF0600A1346106003F804EB3B60D4
:2062A000A379112B08BF4AF0040A1AF0040F02BF079F3A6802F8013BE37908BF3A60402BF3
:2062C00008BF4AF0020A0ED0FF2B08BF4AF0030A09D0012B08BF4AF0010A04D0079F3A686E
:2062E00002F8013B3A60228942F6EC53C2F200031AB95A89002A00F0B0806F48FFF7F6F959
:2063000041F21C43C2F200031860002800F0DB81417818F8093042F6E45243EA011308F897
:206320000930C2F2000204206349FFF767F960F03F00C0B20690237E42F6EC51FF2BC2F2BD
:20634000000100F0F98101F118000391FFF7CEF941F21C43C2F2000318600399002800F002
:20636000468218F809204378069F134347F0040E08F80930059A183100205FFA8EF9FFF706
:206380003DF9079F49EA00003A685FFA80F9A179282042F6EC5311293070C2F2000300F020
:2063A00063812B689BF80010D21A581803F801A08BF8002080F801900599102006F098F8CB
:2063C00040F22C33C0F201031B6898473778049E002833889BF800A0ACBFC0F17D084FF0CD
:2063E0006808C7EB0302CAEB0801B8BF152042F6DC5642F6B05C42F6B1598A42C2F2000696
:20640000C2F2000CC2F2000914DDC0F178000393CDF808C0069006F099F8039B069FDDF88D
:2064200008C093FBF7F30133834251DB00200BB0BDE8F08F2868E119504409F0E5F8338849
:206440009A44C7EB0A0080B205F06EFF0598FFF761F901200BB0BDE8F08F9A89002A7FF461
:206460004CAFDA89002A7FF448AF1A8A002A7FF444AF5A8A002A7FF440AF9A8A002A7FF4C5
:206480003CAFDB8A002B7FF438AF069F47F04003DBB206934FE7079F21F03F013A680B43C5
:2064A000064813700188D31CA2F801103B604FF0680AF5E6042E0020F42D0020EE2D0020F3
:2064C000BC48FFF713F900287FF481AE069084E641F2A853C2F20003D5F800A099F8007099
:2064E0000793DDF81CE0002351463A460AF10400CEF80030CDF808C009F0FCF8318842F697
:2065000092526FEA81416FEA9141C1F307218AF80010DDF808C0C2F200020437B2F800E0CB
:20652000FBB230889CF80010C3EB08088AF801008AF803E028F007084FEA1E2041F6F827B8
:206540000EF1010EA2F800E08AF8020042460AEB03002144C2F2000789F80030C7F800809F
:20656000CDF808C0039309F04FF8039B03EB080080B205F0D9FE05F0EFFF41F2A45882464C
:20658000C2F2000800283FF451AF0598FFF7C2F8504606F039F8504606F01AF80798DDF8C8
:2065A00008C003681A1F012B18BF012A7FF63EAF3288D8F800306FEAC2426FEAD242C2F3A6
:2065C00007221A709CF800003A68B6F800C0069E4FF0050826F00701861889F80080AA46C7
:2065E00083F801C0B6B23960B8460694079D33E03868DAF800308242A8BF814619719BF85E
:206600000040DAF800000699BCBF9146C8F8002031444A46204408F0F7FF04EB090080B216
:2066200005F082FE05F098FF81460598B9F1000F3FF4FCAEFFF76EF8484605F0E5FF48460E
:2066400005F0C6FF2B683A68191F1644012B18BF0129B6B27FF6EAAE0498F10803889E4217
:20666000C6EB0302C4D3F4E6188D4FF6F07140BA80B24FF2B00E01407145B3F82AE000F0E1
:20668000D6809EFA9EFE1FFA8EFE0EF47F4EBEF5704F00F0188100F47F40B0F5704F00F0FA
:2066A000DF80F021444B1170186802F10508C2F80100424B42461988079F302322F8021B39
:2066C0003A6033706DE6228948F2FE0342F6EC519A42C2F2000112D14B8B83B98B8B73B907
:2066E000CB8B63B942F6E4520831C2F200020420FEF784FF069F3843C0B206901BE6079F60
:20670000DFF8B0E0D7F800C0BEE80F00CCF80410CCF80000CCF80820CCF80C30237EDDF8D0
:206720001CE00CF1100742F6EC51FF2BCEF80070C2F200017FF407AE487E069F022847F0CB
:2067400008095FFA89F94B8B00F09580002B39D18B8B002B36D1E38B42F6EC52C2F200025B
:2067600083BB138C73BB538C23B992F82430002B00F0B58094F8223023BB079F10493A68C8
:20678000069F134603F8010B086847F00909C2F801000979079F06325FFA89F919713A6021
:2067A000F5E540F200313846C0F2010105F0D2F9EEE400BFF42D0020142E00201A2E00200E
:2067C0000F2E0020079FDFF84CE1D7F800C00CF11008BEE80F00C7F80080CCF80820CCF86A
:2067E0000000CCF80410CCF80C304246CFE50A8B48F2FE039A4210D14B8B73B98B8B63B9C4
:20680000CB8B53B9059A1831FEF7F8FE069F3843079F5FFA80F93A68B9E5079FDFF8F4E01A
:20682000D7F800C0DDF818900CF11008D1E79EFA9EFE4FF6F07C1FFA8EFE0EEA0C0C8C4514
:206840007FF423AFF3211170198D588D090A030A03EB011303F5AA63537002F1020828E7DD
:20686000F2231370218D294B090A51701B8802F1040853801DE7002BA4D18B8B002BA1D1BE
:20688000CB8B002B7FF467AF0B8C002B7FF463AF4B8C002B7FF45FAF8B8C002B7FF45BAF65
:2068A00091F82630002B7FF456AF079F91F827303A68069F02F8013B47F00B09079F5FFA09
:2068C00089F93A6063E5F121114B11701B8802F10408A2F80130638D1B0AD370E9E6079F2B
:2068E0003968069F0B4603F8010B32F8250F47F00A0992F802E0079F0A1DA1F801005FFA26
:2069000089F93A6083F802E041E500BF162E0020142E0020042E0020013A30B48D18A94252
