:020000040000FA
:20000000005000206D100000651000004910000069100000691000006910000000000000BA
:200020000000000000000000000000006910000069100000000000006910000069100000DC
:200040000D3F00006910000045FF000069100000AD350000293B00006910000069100000E6
:200060006910000071FF0000691000006910000069100000691000006910000069100000C1
:20008000691000006910000069100000691000006910000069100000691000006910000098
:2000A000691000006910000069100000691000006910000069100000691000006910000078
:2000C0006910000099520000F0B540F68C03C2F200031B6883B09B0703D44FF0004003B03A
:2000E000F0BD0020452103F09DF80DF10601012002220FF091F920B901A802210FF0B2F923
:20010000EBE70DF10601002002220FF085F90028F2D0BDF806305BBA9CB2200BADF804300B
:2001200010F0EAFF10F074FB0646C4F30B000F4610F0F2FF0CA3D3E9002304460D46304672
:20014000394611F04FF802460B462046294611F049F811F0E1FA0021C4F2C82111F03AFC55
:2001600011F088FD03B0F0BD7B14AE47E17A843F08B540F6B003C2F200031B68032B3CD1DC
:20018000431E012B39D842F6D02242F6D223C2F20002C2F20003012812881B8818D0184651
:2001A00010F0AAFF00230022C3F6F06311F01AF800230022C4F2590311F014F811F0ACFA27
:2001C0000021C4F2C82111F005FC11F053FD08BD10B210F0A1FF00230022C3F6F06311F093
:2001E00001F807A3D3E9002310F0FCFF00230022C4F2440310F042FEE0E74FF0004008BDF5
:200200000000000000A064402DE9F04140F6E003C2F200031B6806465BB140F6B803C2F203
:200220000003002210F038051A609A8006D141074FD14FF000452846BDE8F08103F022F973
:2002400042F61834C2F20004206009E003F01AF94FF6F6732268CFF6FF739B1AC34203D5F2
:2002600002F0D0F90028F1D042F6E623C2F200031B78D807DDD540F6B80401206821C2F26E
:20028000000402F0CFFF21463B2006220FF0C4F805460020014602F0C5FF002D00F0898067
:2002A00027786578A078E17822796379202E67702570E070A1706271237170D0102E73D097
:2002C000082E18BF0025B6D1B4F9040002F0A0F85AE003F0D7F842F61834C2F20004206072
:2002E00009E003F0CFF84FF6F6732268CFF6FF739B1AC34203D502F085F90028F1D042F6C9
:20030000E623C2F200031B78DA0792D540F6B80401206821C2F2000402F084FF21464320AF
:2003200006220FF079F80746002847D094F8008094F801C094F802E0E778227963790020DC
:20034000014684F8018084F800C084F803E0A7706271237102F066FF042E0AD0022E08BFE6
:20036000B4F9020007D0012E7FF465AFB4F9040001E0B4F9000010F0CFFE17A3D3E900239C
:2003800011F05AF811F0C8F90021C4F2C82111F021FB11F06FFC05462846BDE8F081B4F983
:2003A000000002F035F8EFE7B4F9020002F030F8EAE7204606210FF055F83AE72046062127
:2003C0000FF050F83846394602F02CFF4FF0004531E700BFAFF3008000000000006060403F
:2003E0002DE9F04F9A4694462AF000488146064658EA0C0093B014461D468B460F4600F015
:200400008A80002221F00040C7F6F0729042029012DDDDF8088008F1404C0CF5801C5CEA28
:20042000060640F082804FF0000BC3F6F07B3046594613B0BDE8F08F14BF00230123B9F150
:20044000000F0CBF002103F001010029E1D19045DFDC14BF00210121BCF1000F0CBF002282
:2004600001F00102002AD4D1002F67DB0492A4B9002940F088800022C3F6F072904500F0F2
:20048000B980B5F1804F04BF484659463CD00022C3F6E072954200F0FF834846594601937B
:2004A000CDF800C010F012FC019BDDF800C056B9029A002A08BF43F00103002B7CD1C3F674
:2004C000F0739A4278D0FB0F049F013B1F430A9300F08B800023C4F2E013984540F3A480B2
:2004E0000023C4F2F033984540F346844FF6FF73DDF80880C3F6EF73984540F3D783002D60
:2005000057DD47A1D1E9000102460B4610F06AFE06468B468BE74FF0000B0646C3F6F07BBA
:200520003046594613B0BDE8F08F42F6D010C0F2010013B0BDE8F04F10F0FCBB4FF6FF70E2
:20054000C4F23F30804565DC4FF6FF70C3F6EF7080458BDD4FEA285240F21340824240F348
:200560008C84C2F5866203322CFA02F000FA02F2624502BF00F00100C0F1020004903FF4BE
:2005800076AF002272E7DDF8088008F1404303F580131E433FF447AF4FF6FF73C3F6EF73FB
:2005A000984540F3B683002DA4BF6646D346BFF63EAF0026B3463AE7002DC0F25484002FD5
:2005C000A6DA029E049F06F1404303F580131F4340F06B8402460B4610F050FC02460B4654
:2005E00010F02AFF06468B4621E7484659464A465B46F1E7002DA8BF4E46BFF618AF0021B2
:200600005B464A460020C3F6F07110F015FF06468B460CE702200490002C3FF429AF3CE73B
:200620009C7500883CE4377E029FB7F5801FA8BF00250CDA00230022C4F24033CDF800C0FB
:2006400010F0D0FDDDF800C002916FF03405DDF8088049F68E024FEA2854C8F31303C0F2A9
:200660000302A4F2FF3693422E4443F07F54D8BF0025119644F44014D8BFAB4610DD4BF2BC
:200680007962C0F20B029342C1BF002501361196A4F58014CEBFAB464FF480254FF0010B8A
:2006A00042F2D051024623464FEACB0BC0F20101CDE9082301EB0B03D3E90067DDE90801A4
:2006C00032463B46CDF800C0CDE90C6710F0D6FBDDE90C2306460F46DDE9080110F0D0FB72
:2006E0000B4600210246C3F6F071002010F0A4FECDE90E01DDE90E233046394610F072FD44
:20070000CDE90601DDE906896110002041F00051CDE9028901F500210290DDE902896B18F6
:2007200000224046494614461D4610F05BFD02460B463046394610F0A1FBDDE90C23064602
:200740000F462046294610F099FB02460B46DDE9080110F093FB02460B464046494610F037
:2007600041FD02460B463046394610F087FBDDE90E2310F037FD06460F46DDE9060102464A
:200780000B4610F02FFD02460B4604460D4610F029FD7FA3D3E90023CDE9080120462946EB
:2007A00010F020FD7CA3D3E9002310F069FB22462B4610F017FD7AA3D3E9002310F060FB76
:2007C00022462B4610F00EFD77A3D3E9002310F057FB22462B4610F005FD75A3D3E9002318
:2007E00010F04EFB22462B4610F0FCFC72A3D3E9002310F045FB02460B46DDE9080110F043
:20080000F1FCDDE9062304460D464046494610F037FB32463B4610F0E5FC22462B4610F065
:200820002FFB4246CDE908014B464046494610F0D9FC00230022C4F20803CDE90C0110F003
:200840001FFBDDE9082310F01BFB02980D46044622462B464046494610F0C4FC2246804664
:2008600089462B463046394610F0BCFC002306460F46204629460022C4F2080310F0FEFA17
:20088000DDE90C2310F0FAFA02460B46DDE9080110F0F4FADDE9062310F0A4FC02460B46F1
:2008A0003046394610F0ECFA06460F4632463B464046494610F0E4FA41A3D3E90023029873
:2008C0000D46044610F08EFC3FA3D3E90023CDE908012046294610F085FC4246CDE90601D6
:2008E0004B462046294610F0C9FA02460B463046394610F0C3FA36A3D3E9002310F072FC5E
:2009000002460B46DDE9060110F0BAFA42F2C053C0F201035B44D3E9002310F0B1FA8046D1
:200920001198894610F0F8FB42F2B053C0F201035B44D3E9006704460D464246DDE90801A9
:200940004B46CDE9066710F09BFADDE9062310F097FA22462B4610F093FA029822462B46F5
:2009600006460F4610F08AFADDE9062310F086FADDE9082310F082FA02460B4640464946C8
:2009800010F07CFACDE90601DDF800C024E000BFEF4E454A287ECA3F65DBC9934A86CD3FD9
:2009A00001411DA96074D13F4D268F515555D53FFFAB6FDBB66DDB3F033333333333E33FE5
:2009C000000000E009C7EE3FF5015B14E02F3EBEFD033ADC09C7EE3FDDF81080DDF82890C5
:2009E00008F1FF3353EA090962464FF0000953464FF000000CBFCBF6F079C3F6F079CDE9E8
:200A000002234FF000080290CDE90A89DDE902896046514642464B46CDF800C010F02EFA3B
:200A20003B46324610F0DEFBDDE90623DDF800C004460D466046514610F0D4FB02460B461E
:200A40002046294610F01CFA3B46CDE9040132464046494610F0C6FB04460D462B46DDE94D
:200A60000401224610F00CFA4FF6FF73C4F28F03994282468B460F4640F31C8101F13F43F7
:200A800003F5E003034340F01A82A7A3D3E90023DDE9040110F0F4F92246804689462B461A
:200AA0005046594610F0EAF902460B464046494610F028FED846002840F015824FEA285389
:200AC000A3F2FE334FF4801119413944C1F30A534FF6FF72A3F2FF36C0F20F02C3F58260B7
:200AE000C1F3130A42FA06F603304AF4801A4AFA00FA21EA0603002F4FF00002204629464B
:200B0000B8BFCAF1000A10F0B9F904460D462246DDE904012B4610F0B3F94FEA0A5B002636
:200B200083A3D3E9002330460F4610F05BFB2246804689462B463046394610F09FF902464C
:200B40000B46DDE9040110F099F97BA3D3E9002310F048FB7AA3D3E9002304460D46304698
:200B6000394610F03FFB02460B462046294610F087F904460D4622462B464046494610F043
:200B80007FF942464B4606460F4610F077F902460B462046294610F071F9324680468946CE
:200BA0003B463046394610F01DFB67A3D3E9002304460D4610F016FB65A3D3E9002310F029
:200BC0005DF922462B4610F00DFB63A3D3E9002310F056F922462B4610F004FB60A3D3E913
:200BE000002310F04BF922462B4610F0FBFA5EA3D3E9002310F044F922462B4610F0F2FADE
:200C000002460B463046394610F038F904460D4622462B463046394610F0E4FA0022CDE9F4
:200C200002014FF080432046294610F027F902460B46DDE9020110F0FFFB424604460D4639
:200C40004B463046394610F0CDFA42464B4610F017F902460B462046294610F00FF9324630
:200C60003B4610F00BF90B4600210246C3F6F071002010F003F98B44BBF5801F0B46024648
:200C8000A8BF5B46C0F23B81DDE90A0110F0AAFA06468B46FFF7CBBB002FFFF6FEAB484675
:200CA000594613B0BDE8F04F0FF050BF002DBFF680AC26E44CF6FF33C4F2900321F00048B2
:200CC000984540F3E88001F17D5303F53C1303F55053034340F00D8122462B4610F0CEF855
:200CE00002460B46DDE9040110F0F8FC00283FF4E5AEDDE90A011EA3D3E9002310F072FAD1
:200D00001BA3D3E9002310F06DFA06468B46FFF78EBB002DBCBF66460AF1004BBFF649AC2F
:200D2000FFF785BBAFF30080FE822B654715973C00000000432EE63FEF39FAFE422EE63FD1
:200D4000396CA80C615C20BED0A4BE726937663EF16BD2C541BDBB3E2CDE25AF6A56113FDF
:200D600093BDBE166CC1663F3E5555555555C53F59F3F8C21F6EA5014FF6FE73DDF8089036
:200D8000C3F6EF73994591DD0023029EC3F6F0739E423FF7B4AB00230022C3F6F073CDF872
:200DA00000C010F06BF85CA3D3E9002304460D4610F018FA5AA3D3E90023804689462046AC
:200DC000294610F00FFA2246CDE902012B462046294610F007FA002306460F46204629469A
:200DE0000022C3F6D07310F0FDF902460B464EA1D1E9000110F042F822462B4610F0F2F99E
:200E00000B4600210246C3F6E071002010F036F802460B463046394610F0E4F944A3D3E9B2
:200E2000002310F0DFF902460B46DDE9020110F025F804460D4622462B464046494610F0AD
:200E40001FF8002042464B4606460F4610F016F802460B462046294610F010F8DDF800C088
:200E6000CDE90601B8E50B4600210246C3F6F071002010F0E1FAFFF7A2BB84BBC2F582621C
:200E8000033248FA02F000FA02F242453DD000220492FFF7EDBA0023C3F6E07398453FF7D0
:200EA0000DAEDDF808B0DA4639E6049E012E08BF01F1004B06467FF42CABFFF7B8BA1EA317
:200EC000D3E90023DDE90A0110F08CF91AA3D3E9002310F087F906468B46FFF7A8BA00202C
:200EE0000490FFF7DABADDE90A0113A3D3E90023EAE713A3D3E90023DDE90A01FEE65246BB
:200F000000F022F802460B46BEE600F00100C0F102000490FFF7ACBA000000604715F73F04
:200F200044DF5DF80BAE543E555555555555D53FFE822B654715F73F9C7500883CE4377ECC
:200F400059F3F8C21F6EA501C1F30A532DE9F041904606460F460A4643BB21F000430343A1
:200F600039D00023C4F25033002210F03BF943F6B043CFF6FF73984506460F463BDBC1F30B
:200F80000A53363B0A46434440F2FE718B4216DD29A1D1E9000132463B460FF061FF26A3A5
:200FA000D3E9002310F01EF9BDE8F08140F2FF74A34227D0434440F2FE718B42E8DC002BC0
:200FC0000BDD22F0FF4222F4E00242EA035730463946BDE8F081BDE8F08113F1350F17DAFE
:200FE0004CF250339845D3DC15A1D1E9000132463B460FF035FF12A3D3E9002310F0F2F889
:20100000BDE8F08102460B460FF03AFFBDE8F08122F0FF4222F4E002363342EA0357002376
:20102000304639460022C3F6904310F0DBF8BDE8F08100BFAFF300809C7500883CE4377ED5
:2010400059F3F8C21F6EA5014EF62853CEF200031A68B2F5806F03D01B689B0500D4FEE70E
:20106000704700BFFEE700BFFEE700BF10B50BF0E7FF40F2000140F2E663C2F20001C2F2F5
:20108000000399420ED2CC431C4424F0030442F694500434C0F201000023C258CA50043373
:2010A000A342FAD1064807494FF000028842B8BF40F8042BFADB00F051FBFFF7C5FF10BD61
:2010C000E8060020A635002008B542F63013C0F201039B6801218120984708BD08B542F6BA
:2010E0003C23C0F201039B6801218120984708BD08B542F64C23C0F201039B680121812091
:20110000984708BD08B542F64013C0F201039B6801218120984708BD08B542F66423C0F295
:2011200001039B683F218120984708BD42F2F85010B5C0F2010002F0EFFA42F6CC23C0F25B
:2011400001035C680120A047014642F22460C0F2010004F0EDF80220A047BDE81040C0EB8B
:20116000401100EB810142F234604911C0F2010004F0DEB810B5041E13DB48F21F51C5F21C
:20118000EB1181FB0431E317C3EB6111642242F2486002FB1142BDE81040C0F2010004F03A
:2011A000C7B82D2002F0B0FA6442E6E72DE9F04F04888FB005461646C4B1B4F5D27F0FD13E
:2011C000882964D043F2A253C2F200031B788B426DD04FF4D27301202B800FB0BDE8F08F75
:2011E0000023038003200FB0BDE8F08F42F25060C0F2010002F090FA42F6AC23C0F2010373
:201200009B6801218120984742F6CC23C0F201039B6801218120984742F25C612046C0F29E
:20122000010103F051F803F079F840F2DC70C2F20000802104F0F8FEFFF778FF42F64C233B
:20124000C0F201039B6801218120984742F64013C0F201039B6801218120984742F63C23B6
:20126000C0F201039B6801218120984742F63013C0F201039B6801218120984742F664237E
:20128000C0F201039B683F2181209847A1E740F2DC73C2F200039E429BD1022000F0A8FCF3
:2012A000FFF744FF3046802104F0BEFE91E742F68423C0F201039E4200F0E680731C00F06C
:2012C000448142F6AC23C0F201039E4200F0448142F63014C0F20104A64200F0948042F6A0
:2012E0003C23C0F201039E4200F0B88142F64C24C0F20104A64200F0768142F64013C0F265
:2013000001039E4200F03A8142F66423C0F201039E427FF45EAF03F0ADFE074642F2C47016
:20132000C0F2010004F004F874680420A047FFF721FF42F2D470C0F2010002F0EDF942F2D6
:20134000E070C0F2010003F0F3FF0220A047FFF711FF42F2D470C0F2010002F0DDF942F26F
:20136000F070C0F2010003F0E3FF0120A047FFF701FF42F2D470C0F2010002F0CDF942F66C
:201380000000C0F2010003F0D3FF2020A047FFF7F1FE42F60C00C0F2010002F0BDF942F6F2
:2013A0001000C0F2010003F0C3FF1020A047FFF7E1FE42F60C00C0F2010002F0ADF942F602
:2013C0001C00C0F2010003F0B3FF0820A047FFF7D1FE42F60C00C0F2010002F09DF9B3682B
:2013E000002181209847C7F30A0140F2B47041F2191201F5A061C2F20000C0F20002002351
:2014000004F0E2FCE5E603F035FE6668C0F30A070220B047B0F1004F07F5A06700F05781A3
:2014200048F21F53C5F2EB1383FB0023C217C2EB6312642303FB120040F28C73C2F2000330
:2014400058801A800120B047B0F1004F00F03881642390FBF3F203FB120040F28C73C2F27D
:201460000003D8809A80A36800218120984740F2947041F2C9023946C2F20000C0F2000230
:20148000002304F0A1FCA4E640F28C70C2F20000B0F8029040F2807340F2787AB0F804807D
:2014A000C2F2000AC2F2000340F2847E19885A88B0F806C00388BAF80070BAF80200BAF87F
:2014C00004B0C2F2000EBAF806A0CDF80090BEF80090CDF80480BEF8028040F2D474CDF8E3
:2014E00008C0BEF804C0C2F20004BEF806E0039727886488049042F27060CDF824C0CDF81B
:2015000028E00C94CDF814B0CDF818A0CDF81C90CDF820800B97C0F2010003F009FF74681B
:201520000020A04706460120A047024642F2E0603146C0F2010003F0FBFE0120A0478028CE
:2015400015DC012000F054FB43E642F22470C0F2010002F0E1F83CE601F05CFA10B101F0B0
:20156000B9FA36E64FF47A7001F05AFA31E642F21070C0F2010002F0CFF8E2E703F07AFDC0
:20158000D6F80480C0F30A090320C047B0F1004F09F5A06900F086800220C0474FF47A77BF
:2015A00090FBF7F307FB130040F27874C2F20004608023800120C04790FBF7F307FB130096
:2015C000B268E080A38000218120904740F2387041F205124946C2F20000C0F20002002397
:2015E00004F0F2FBF5E503F045FD6468C0F30A060120A047B0F1004F06F5A06675D048F2F4
:201600001F53C5F2EB1383FB0023C217C2EB6312642303FB120040F28473C2F200035880B8
:201620001A800220A047B0F1004F57D0642390FBF3F203FB120040F28473C2F20003D880B1
:201640009A8040F2187041F2F1023146C2F20000C0F20002002304F0B7FBBAE503F00AFD4F
:201660007368C0F30A0400209847B0F1004F04F5A0641ED0642390FBF3F203FB120040F2BB
:201680008073C2F2000358801A8040F2587041F2DD022146C2F20000C0F20002002304F03C
:2016A00093FB96E542F2AC70C0F2010002F034F88FE542F26070C0F2010002F02DF8E4E7F3
:2016C00042F24470C0F2010002F026F8CBE642F22870C0F2010002F01FF8B3E642F2907059
:2016E000C0F2010002F018F8ABE742F27870C0F2010002F011F894E7F0B5002783B0054614
:201700003E463C46284600F05DFA0194019B9E4206DD00BF019B01330193019B9E42F8DCA7
:20172000284600F059FA0194019BC6F5C876B34206DA00BF019B01330193019BB342F8DB72
:201740000137B7F5487F06D0B7F5C87FCCBFC7F548763E46D6E703B0F0BD00BF2DE9F04169
:201760004FF4EC74C1F2000423684FF4804086B05B68C4F2030001219847236801214FF4DE
:2017800080400A461B68C4F2030098470BF0FEFA02F0D6FB02F064FB01F02AFA02F0A2FB73
:2017A00000F006FA44F20C000821C4F209010123C4F2090042F22C02C4F2090203600B603A
:2017C00018461368FFF798FF0BF0E4FA01F05CFE01F0B2FD04F014FE01F05EFF04F024FD76
:2017E00041F2342003F04CFC02F068F904F0C4FE42F64400C0F2010001F08EFF42F65C00DD
:2018000000214BF2AC72C0F2010003F091FD42F25C60C0F2010001F07FFF0BF005FA42F6D4
:20182000400542F63C0410F0040FC0F20105C0F201040CBFA846A0460BF0FEF9012814BFDC
:201840002F4627460BF0F0F910F0020F0CBF2E4626460BF0E9F910F0080F08BF2C4642F6A1
:2018600074003A46334600944146C0F2010003F05FFD40F278500021C2F2000004F08EFD90
:2018800004F066FA04F004FB0220FFF735FF42F6A800C0F2010003F04BFD42F66843C0F252
:2018A0000103186801F038FF42F6B000C0F2010003F03EFD42F6D443C0F20103186801F03D
:2018C0002BFF42F6B800C0F2010042F6085403F02FFDC0F2010442F6C0002168C0F201009D
:2018E00003F026FDE469A04738B1A047014642F6C400C0F2010003F01BFD0A2001F004FFAF
:2019000000260CF039FC04A80821039643F24C5401F038FF42F674359DF817209DF816802D
:20192000C2F20004C0F2010504AB03CB42EA0828EF6A2060616002204AF6CD31B8474146DE
:201940000320B84719210120B847082204A96B6B0B209847AB6A03A90120984742F6E80073
:201960000399C0F2010003F0E3FC42F6CC2342F6FC00C2F200034146C0F20100A3F80080DF
:2019800003F0D6FC6268216842F62833C2F2000319605A600CF086FD40F2FC503146C2F28A
:2019A000000004F0FBFC0220FFF7A6FE40F238403146C2F2000004F0F1FC42F2F050C0F2A4
:2019C000010004F067F901F077FE0120FFF794FE04F048FC044601F089FE14F0FF0FF7D1CF
:2019E00002F0DCF8F4E700BF2DE9F04105888046792D42D0802D36D025B1002303800320E3
:201A0000BDE8F08104F008FC40F24846C2F2000643F2A25340F2F0743268C2F20003C2F279
:201A2000000418702560002A62D02B4642F60C351F46C2F20005EF54936880200021984753
:201A40002368013356F823202360002AF3D1DBB242F6E221C2F200010B707923A8F8003061
:201A60000120BDE8F08143F2A253C2F200031B788B4223D00120BDE8F08142F6E227C2F2CF
:201A8000000740F2F07440F2EC763A78C2F20004C2F2000600239342336023600ADA42F6C7
:201AA0000C35C2F20005E956002923DB013393422360F4DB3368002BECD1CEE740F2F0749D
:201AC00042F60C3542F6E22740F2EC76C2F20004C2F20005C2F20007C2F2000623683268AD
:201AE000E85C511C00F07F003A78E8543160DDE71346ADE743F2A25140F24842C2F20001FD
:201B0000C2F20002097852F82320002004F014FC0028E3D18023A8F800300120BDE8F08157
:201B200070B542F6E226C2F2000635780446C5B340F24843C2F200031A68904235D01A46EA
:201B4000002303E052F8041F8C4202D00133AB42F8DB42F60C32C2F20002D15C40F238407B
:201B600061F07F01C2F20000D15404F039FC3078C8B140F24843C2F200031A680021944284
:201B800004D106E053F8042F944202D001318142F8DB42F60C10C0F20100BDE8704003F04D
:201BA000C7BB2B46D5E70146F3E70023D1E700BF08B500F027F842F6E323C2F200030022D8
:201BC0001A7008BD42F6E323C2F200031A78024310461A7000F034B842F6E323C2F2000339
:201BE0001A7822EA000210461A7000F029B800BF42F6E323C2F200031A78424010461A70EC
:201C000000F01EB810B540F2F473C2F200031A68A2B901224FF4DA741A60C1F2000423689C
:201C20000A20DB6B984723680F20DB6B984742F2A003C4F202034FF404421A6010BD00BF55
:201C400042F6E42342F2A002C2F20003C4F202024FF4044118701160C20741BF42F29003ED
:201C6000C4F202034FF480621A60830741BF42F29003C4F202034FF400421A60704700BF89
:201C8000813801289DBF40F63803C2F2000318680020704740F6380342F63010C2F20003E7
:201CA0000322C0F201001A60FFF73ABF10B57721044682B0002001F0B5FA4CB98DF8074079
:201CC0000DF107010122F4200DF0B4FB02B010BD25238DF80730F3E730B5802885B023D009
:201CE00081281AD140F63804C2F200042068C8B1002939D00120FFF7D9FF40F6180041F67F
:201D00009542C2F20000C0F200020321002304F05BF80220206005B030BD40F63803C2F28D
:201D20000003186805B030BD40F63804C2F20004012500207721256001F074FA40F600015B
:201D4000C2F20001182288200DF066FBB62304A901F8013D2A46E0200DF06CFB0020FFF7E7
:201D6000A5FF206805B030BD40F61800C2F20000019104F075F801990846FFF797FF01200B
:201D8000206005B030BD00BF2DE9F04140F63803C2F200031B680546032B40F09E80431E48
:201DA000012B00F29A8040F2F8740023C2F20004184677212360A38001F034FA2146F72039
:201DC00006220DF029FB00287FD0E278207940F60003C2F200036179120342EA0012188893
:201DE00042EA1112C0EB121101FB01F1B3F904700E134000B3F90210C0EBD20207FB06F61C
:201E000001FB02F1B61306EBE1214A10A2F57A42961006FB06F6B3F90870B3F90AC07013AA
:201E200007FB02F700FB0CF0B3F90EC07F100CFB02F207EBE000B3F806C08014B3F91070A9
:201E400000F5004052000CFB00F0F61207FB062627786278B3F90C8094F802C03F034FEA54
:201E6000084447EA0217C013996104EBA60447EA1C1726D07F42A7EB243440F6354606FBAF
:201E800004F404F1434414F5A0044DBFB4FBF0F06400B4FBF0F24200D00800FB00F0B3F9E0
:201EA0001470B3F916609408400B07FB04F400FB06F0B3F91230641304EB2030184402EBBD
:201EC0002010012D0DD0BDE8F081204606210DF0C9FA4FF00040BDE8F0814FF00040BDE8AB
:201EE000F08101EB810101F180000012BDE8F081813801289DBF40F66003C2F2000318685B
:201F00000020704708B542F6501040F66003C2F200030322C0F201001A6001F0FDFBBDE865
:201F2000084042F64010C0F20100FFF7F9BD00BF10B544210446002001F074F942F6CE2398
:201F4000C2F20003002C14BF1024002402201C8019460246BDE810400DF06CBA802870B529
:201F60000D462ED0812826D142F6601040F66004C0F20100C2F2000401F0CEFB2668002E4D
:201F800050D0002D3BD042F68810C0F2010001F0C3FB0120FFF7CCFF40F6400041F60572B1
:201FA000C2F20000C0F200022421002303F00CFF0220206070BD40F66003C2F200031868B4
:201FC00070BD4FF4DA74C1F20004236801209B6B9847236801209B694FF4804198472368DD
:201FE0004FF08041DB69012098470020FFF7A0FF40F66003C2F200030120186070BD40F69C
:202000004000C2F2000003F02BFF2846FFF790FF42F694100123C0F20100236001F07CFB1E
:20202000206870BD42F67810C0F2010001F074FB304670BDF0B540F66003C2F200031968FF
:2020400083B00329044640F09E80820700F0A48003280FD0012866D0022818BF4FF00044FF
:202060006DD042F62020C0F2010001F055FB204603B0F0BD42F6CE2500204421C2F2000588
:2020800001F0D0F82946042002220DF0C5F9002861D140F66405C2F2000540F66400C2F215
:2020A000000004210DF0DEF900202C786978AA78EB7841EA042443EA0225002875D0A80839
:2020C0000FF034FC4FF074510FF084FC0021C4F27A410FF07FFC0FF0CDFD0646A0080FF086
:2020E00025FC4FF074510FF075FC0021C4F27A410FF070FC0FF0BEFD074642F6E4102146B4
:202100002A4600973346C0F2010003F011F940F63C0140F66802C2F20001C2F200020E60A3
:20212000176001249DE740F63C0342F60820C2F20003C0F201001C6801F0EEFA91E740F635
:20214000680342F61420C2F20003C0F201001C6801F0E2FA85E72B885BBA2B8040F664056F
:202160005B04C2F2000598D52946012002220DF053F9002891D02046A91C02220DF04CF9C3
:20218000002892D189E742F6AC10C0F2010003F0CFF84FF000406BE742F6D410C0F2010043
:2021A00001F0BAFA4FF0004062E74FF000405FE740F68C03C2F200031868704770B540F6DF
:2021C0008C04054682B0C2F2000400204521266801F028F875B906F002064FF48653266047
:2021E000ADF806300DF10601022201200DF022F902B070BD41F2C2020123ADF8062023605A
:20220000F0E700BF00B5002083B0452101F00AF801200DF1060102220DF0FEF8BDF906309E
:20222000002B0EDB40F66C0042F20522C2F20000C0F200021021002303F0C6FD03B05DF813
:2022400004FB42F63C20C0F20100FFF769FC40F68C03C2F2000302221A6003B05DF804FBBC
:20226000802810B50C460FD081280BD189B940F66C00C2F2000003F0F3FD2046FFF79EFFC7
:20228000204610BD002010BD0020FFF797FF002010BD0120FFF792FF40F66C0042F20522E0
:2022A000C2F20000C0F200021021002303F08CFD012010BD813801289DBF40F6B003C2F21D
:2022C000000318680020704738B542F6E524C2F2000440F6B0032278C2F2000303211960E7
:2022E000F2B140F6B405C2F200050020432100F099FF0421284600F071FE2070002001469E
:2023000000F090FF2888698842F6D02242F6D22340BA49BAC2F20002C2F2000310801980B3
:20232000012342F64C202370C0F20100BDE83840FFF7F6BB30B5802883B032D0812829D166
:2023400040F6B004C2F20004206840B3002955D042F6E525C2F200052B785BB143210020E4
:2023600000F060FF002000F011FE28700020014600F058FF40F6900042F2C922C2F2000010
:20238000C0F200020321002303F01EFD0220206003B030BD40F6B003C2F20003186803B01F
:2023A00030BD40F6B4030024C2F2000342F6D02542F6D222C2F2000220461C60C2F20005BE
:2023C000432114802C8000F02DFF02A91023022021F8023D02460DF02DF842F6E523C2F287
:2023E000000318702146204600F01CFF40F6B0030120C2F20003186003B030BD40F69000DB
:20240000C2F2000003F02CFD0120206003B030BD08B542F6E923C2F200031B78032B2ED82C
:20242000DFE803F022170C020EF076FE00224FF07D530EF0D7FE0FF06FF908BD0EF06CFE91
:2024400000230022C3F630730EF0CCFE0FF064F908BD0EF061FE00230022C3F620730EF006
:20246000C1FE0FF059F908BD0EF056FE00230022C3F610730EF0B6FE0FF04EF908BD0020D7
:2024800008BD00BF813801289DBF40F6E003C2F2000318680020704740F6E00342F664207E
:2024A000C2F200030222C0F201001A60FFF738BB10B542F6EA24C2F200040120682100F0CE
:2024C000B1FE3F23214601226C2023700CF0B2FF21464F236B20012223700CF0ABFFBDE830
:2024E00010400020014600F09DBE00BF802870B511D0812809D111F03F013FD14FF4025301
:20250000C4F202031B68DB0459D440F6E003C2F20003186870BD4FF4DA74C1F20004236821
:2025200007209B6B9847236807209B694FF40051984723684FF080410720DB699847236806
:202540000C20DB6B984723680C209B6A4FF480614FF44072984742F2A001C4F202014FF4A5
:20256000805040F6E4030860C2F20003002140F6E002C2F200021960106870BD40F6E40325
:2025800042F29005C2F20003C4F202054FF4805640F6E00440F6C00042F22D621960C2F2E5
:2025A00000042E60C2F200000125C0F2000208210023256003F008FC2560284670BD40F6DD
:2025C000E40340F6C000C2F20003C2F20000196003F046FCFFF76CFF42F60402C4F20002AE
:2025E000136813F00103FBD140F6E00242F2A001C2F20002C4F202014FF480501360086043
:20260000106870BD10B542F6E624C2F200040120682100F007FE214601223A200CF0FCFEDD
:202620000020014600F0FEFD207810BD2DE9F04140F6E404C2F20004236813F0380F5ED1C2
:2026400042F6E824C2F20004257803F03F06C5BB7EB9FFF72DFFBDE8F04140F6C00042F2D0
:202660009942C2F20000C0F200020521002303F0ABBB42F6EA27C2F200070120682100F0D7
:20268000D1FD0923394601226B203B700CF0D2FE3F23394601226C203B700CF0CBFE42F664
:2026A000E721C2F2000101221C2025700CF0C2FE39463A2001220CF0AFFE2846294600F03B
:2026C000B1FDF6B22670002EC3D042F6EA24C2F20004F64301206821267000F0A3FD2146DF
:2026E00001226C200CF0A6FE0020014600F09AFD4FF46250C0F201000AF050FBABE742F6E6
:20270000E925C2F200052A78002A99D042F6E726C2F20006002701206821377000F082FDD7
:2027200031461C2001220CF085FE39460646384600F078FD06B12F70236881E708B54FF44D
:20274000DA73C1F200031B685B689847C0F3804008BD00BF40B1012803BF40F6F803C2F299
:202760000003D868002070474FF40353C4F20203186800F0010080F00100704740B1012838
:2027800003BF40F6E803C2F20003D868002070474FF40353C4F202031868C0F3001080F081
:2027A00001007047813801284FF0000000D97047FFF7C4BF8138012801D900207047042080
:2027C000FFF7BCBF802838B514460CD0812809D151BB4FF4DA73C1F200031B6810465B6B49
:2027E000984738BD38BD0122A24042F2E003C4F202034FF4DA751A60C1F200052B6820467C
:202800009B6B98472B684FF4804220461B680021C2F20702984742F67D01E0B2C0F200019A
:20282000BDE8384001F046BB0122A24042F2E003C4F202034FF4DA75C1F200051A602B685B
:2028400020469B6B98472B684FF4804220461B68C2F20702002198472B6820461B6B984791
:2028600038BD00BF08B50022FFF7ACFF012008BD08B50422FFF7A6FF012008BD38B50446A3
:2028800010B104281AD038BD40F6F804C2F20004204603F0F7FD0028F5D02046042103F0CA
:2028A000DDFD4FF40353C4F202031B6813F0010526D100F097FDE560A06038BD40F6E80586
:2028C000C2F20005284603F0DDFD0028DBD02146284603F0C3FD4FF40353C4F202031C68D1
:2028E000C4F30014CCB100F07DFDAB68C31AEB6042F69420C0F20100BDE83840FFF710B970
:2029000000F070FDA368C31AE36042F68420C0F20100BDE83840FFF703B900F063FDEC6035
:20292000A86038BD4FF40353C4F202031868C0F3C00070478138012808B501D9002008BD3E
:202940004FF4DA73C1F200031B6803205B689847C0F3804008BD00BF802810B50CD0812800
:2029600008D14FF4DA73C1F200031B68032061BB5B6B9847012010BD4FF4DA74C1F200049B
:20298000236803205B6B984742F2E002C4F2020208214FF4DC731160C1F200031B684FF46C
:2029A000A060DB69984723684FF400521B68C2F2030203200021984742F6D511C0F20001A4
:2029C000032001F077FA012010BD1B6B9847012010BD00BF40F6081008B5C2F2000003F0C0
:2029E00051FD00B908BD42F6AC20C0F20100FFF797F8BDE8084040F60810C2F2000040217F
:202A000003F02CBD42F6EB23C2F2000300221A70704700BF42F6EB23C2F200031878704777
:202A200038B54FF4DC74C1F2000423680546DB6900209847236800205B6A9847236800204C
:202A4000DB6A984742F22803C6F20803012142F228021960C4F2080213689B07FCD54FF446
:202A6000DA73C1F200031B6815201B6817214FF4C04298470422C4F2010240F20A2142F648
:202A8000EB2340F26C401160C2F200030122C2F200001A7001F0D4F90C23C4F201031A6898
:202AA000002D22F001021A6012DD4FF4D842C0F2DC2292FBF5F528213022C4F20102C4F2DD
:202AC000010168080D6010601A6842F001021A6038BD00BF38B540F26C4042F6EB2300248D
:202AE000C2F20003C2F200001C7001F0B1F90C23C4F201031A684FF4DC7522F001021A60B6
:202B0000C1F200052B6820461B6A98472B6820469B6A98472B6820461B6B984742F2280306
:202B2000C6F20803012142F228021960C4F2080213689907FCD54FF4DA74C1F2000423685A
:202B400015209B6B9847236815201B6A0021984738BD00BF10B54FF4DC74C1F200042368C8
:202B600004205B699847236804205B6B98470128F9D110BDFFF7EEBF032808B503D0BDE877
:202B8000084000F031B9FFF7A5FF42F63013C0F201039B6800218120984742F63C23C0F25B
:202BA00001039B6800218120984742F64013C0F201039B6800218120984742F64C23C0F22F
:202BC00001039B6800218120984742F66423C0F201039B6881200021984742F2A003C4F2A7
:202BE00002034FF480521A60BDE8084000F0FCB870B50AF0CBF80646FFF7ACFF4FF4DC734F
:202C0000C1F200031B684FF4A060DB69984742F22803C6F20803012142F228021960C4F244
:202C2000080213689B07FCD500F0A8F84FF4DA74FFF7E8FE0CF000FD40F28040C1F20004FD
:202C4000C2F2000001F0FCF8236819209B6B984723684FF4005119209B6998472368182034
:202C60009B6B984723684FF4005118209B699847236817209B6B984723684FF40051172038
:202C80009B69984723681B209B6B984723684FF400511B209B69984723681E209B6B9847BB
:202CA00023684FF480411E209B69984723680D20DB6B984742F2A0034FF40055C4F202035D
:202CC0001D6023684FF4807200210D209B6A9847236802209B6B9847236829469B690220D3
:202CE000984723680B209B6B9847236829469B690B20984723681D209B6B984723682946AB
:202D00009B691D20984706B170BDBDE870400AF041B800BF10B54FF4D673C1F200031B681E
:202D20004FF400505B68C4F20000984710F00C0F044608D042F60403C4F2000304221A60D3
:202D400002200AF02BF8D4F1010038BF002010BD08B54FF4DC73C1F200031B6802205B6B1A
:202D60009847012801BF42F26003C4F20803186800F0010018BF002008BD00BF38B54FF417
:202D8000DC75C1F200052B6802205B6998472B6802205B6B98474FF4DC7301280446C1F2C0
:202DA0000003F4D11B684FF44070DB69984742F22803C6F2080342F228021C60C4F20802F6
:202DC00013689B07FCD54FF4D673C1F200031B684FF400504FF4D8411B68C4F20000C0F266
:202DE000DC210122984738BD40F2E26310B5C2F20003FF221A70FFF7ABFF50B142F6040163
:202E00004FF482630022C4F20001C4F205230A601A604FF4DC73C1F200031B684FF4407031
:202E20001B6A984742F22803C6F20803012142F228021960C4F2080213689907FCD54FF424
:202E4000DA74C1F20004236808209B6B984723684FF4005108209B699847236809209B6BF1
:202E6000984723684FF4005109209B699847236805209B6B984723684FF4804105209B69FB
:202E80009847236806209B6B9847236806209B694FF48041984710BD2DE9F84F42F6EC23B4
:202EA000C2F200031A784FF420535200C4F200031A60064642F608020078C4F2000242F698
:202EC000040388461060C4F200031A6842F604045106C4F20004F8D403232360022009F091
:202EE0005DFF2368DA07FCD4FFF714FFB8F1010F034631D968B3344614F8012F42F608070D
:202F000008F1FF3AA31B42F6040BC4F200075345C4F2000B4FF002054FF001093A6008D360
:202F200045451BD214F8012F0135A31B53453A60F6D2CBF80090022009F030FFDBF8003050
:202F4000DB07FBD4FFF7E6FE4545034604D20028E8D10020BDE8F88F002BFAD042F60404DB
:202F6000C4F2000405232360022009F017FF2368DD07FCD4FFF7CEFE42F60402C4F20002C4
:202F800013685C06FCD4BDE8F88F00BF10B542F6EC23C2F200031B784FF4205142F608024D
:202FA0005C00C4F20001C4F2000242F604030C60C4F2000310601A6842F604045206C4F2A2
:202FC0000004F8D407232360022009F0E7FE2368D807FCD4BDE81040FFF79CBE2DE9F04FA0
:202FE00042F6EC23C2F200031C784FF42052640044F00104C4F2000242F6040383B08246FB
:2030000089461460C4F200031D6842F6040615F04005C4F20006F7D10B233360022042F604
:20302000080809F0BBFEC4F2000809F1FF3701234FF0090BAF421BDD53B3336842F604049F
:20304000DB07C4F20004F8D4FFF764FE03460028F0D0D8F8002002200AF805200135C4F854
:2030600000B0EDB2019309F099FEAF42019BE3DC73B142F60404C4F20004052323600220A6
:2030800009F08CFE2368D807FCD4FFF743FE18B9002003B0BDE8F08F42F60803C4F2000378
:2030A0001B68D14442F6040209F8013CC4F2000213685906EDD5FBE72DE9F04F42F6EC2528
:2030C000C2F200052E784FF420547600C4F2000426600478804642F6080083B0C4F20000B9
:2030E00042F6040601920F4699460460C4F20006336842F604045906C4F20004F8D40323C1
:203100002360022009F04AFE2368DA07FCD4FFF701FE012F044625D918B9002003B0BDE8D7
:20312000F08F42F6080642F6040B4FF0010AC4F20006C4F2000B18F8011F012231600220B6
:20314000CBF8002009F02AFEDBF80010CB07FBD4FFF7E0FD0AF1010ABA45044602D20028C9
:20316000DBD0E8E7002CD8D029784FF42053490042F6040641F00101C4F200030B22C4F250
:20318000000619600220326009F008FE42F60808C4F2000809F1FF374FF0000B4FF0090A2B
:2031A000BB451AD2002CB8D0336842F60405DC07C4F20005F8D4FFF7ADFD04460028EFD058
:2031C000D8F80030019A022002F80B30C5F800A009F0E4FD0BF1010BE2E7002C9DD042F624
:2031E0000404C4F2000405232360022009F0D6FD2368D807FCD4FFF78DFD00288DD042F6FD
:203200000803019AC4F200031B68914442F6040209F8013CC4F2000213685906FCD40120F8
:203220007CE700BF42F6EC2310B5C2F2000304461970FFF78DFD38B340F2E263C2F200033D
:203240001A78A2421FD042F604004FF482620021C4F20000C4F205221C70016011601B7801
:20326000ABB1012B35D04FF4D673C1F200031B684FF400504FF4D8411B68C4F20000C0F222
:20328000DC210122984710BDFFF778FDD4E74FF4DA74C1F20004236805209B694FF4C041FC
:2032A0009847236806209B694FF4C041984723684FF4005005210622DB6CC4F2000098470F
:2032C000236808209B6B9847236809209B6B9847C9E74FF4DA74C1F20004236808209B690E
:2032E0004FF4C0419847236809209B694FF4C041984723684FF4005008210922DB6CC4F261
:2033000000009847236805209B6B9847236806209B6B9847A7E700BF10B54FF4DC74C1F24B
:203320000004236804205B699847236804205B6B98470128F9D110BDF8B540F2E861C2F247
:20334000000100220023C1E900234FF4DC73C1F200031B6804205B6B9847012801D0FFF7D6
:20336000DBFF4FF4DC73C1F200031B680020DB69984742F22803C6F20803012142F22802C3
:203380001960C4F2080213689B07FCD50C23C4F2010319684FF4E47221F4807121F00101EA
:2033A0001960C1F2000213680024C4F201044FF404511B682046C0F20041984704233C21AE
:2033C00008221F46C4F201013126C4F2010240F22125C4F22433012027600E60156018600E
:2033E000F8BD00BF10B442F2080342F20C04C4F20903C4F209041968226818688142FAD174
:20340000C90140F2E86001EB5262C2F200000023C0E900235DF8044B03C8704710B542F206
:20342000080342F20C04C4F20903C4F209041968226818688142FAD1C90140F2E86001EB6F
:2034400052620023C2F20000C0E9002302F014FE00B910BDBDE8104002F0E0BD10B509F049
:2034600095FC42F20803C4F209031C6808B909F091FC204610BD00BF704700BF014601201F
:2034800000F058B809F0BCBB2DE9F04109F07EFC002642F204034FF48032C4F209030124C5
:2034A0000027C4F224364FF480714FF4C2753760C1F200051C6019601A602B6880461B688D
:2034C0003846232198472B6820461B68242198472B6802201B68252198474FF40053C4F202
:2034E0000903196842F2080241F4E021C4F209021960176009F084FB42F21C024FF4287372
:2035000000F50070C4F22433C4F209024FF4D8711060C1F200011C6034600B6814201B698D
:203520009847B8F1000F01D0BDE8F081BDE8F04109F030BC431E042818BF012B10B42CD8FA
:2035400010F001021EBF42F21803C4F20903196010F002031EBF42F21C04C4F20904216087
:2035600010F004001EBF42F22004C4F2090421602AB14FF42072C4F22432012111602BB1A3
:203580004FF42873C4F2243301221A6028B14FF43073C4F2243301221A605DF8044B7047DF
:2035A00040F61013C2F200031868704708B5FFF769FF40F61013C2F200031860FFF72EFFFE
:2035C000A023C4F224331B68BBB98023C4F224331B6863BBC023C4F224331B6863B14FF409
:2035E000307242F20403C4F224320020C4F209034FF480311060196008BD42F20403C4F26D
:2036000009034FF480721A6009F0FAFA00F2052020F4FF7242F21C03C4F2090322F001023C
:203620001A608023C4F224331B68002BD2D04FF4207242F20403C4F224320020C4F2090312
:2036400001211060196002F0F3FEC3E7820741BF4FF44063C4F2080301221A60C30700D467
:20366000704709F097BB00BF08B509F08FFB4FF44063C4F208031A68012A03BF4EF2515250
:20368000C1F6CC221A60002308BF0223002814BF184643F0010008BD00224FF6FF714FF490
:2036A0004063C4F20802C0F20F01C4F20803012011601860704700BF38B5FFF7D5FF0024C9
:2036C0004FF6FF750C214FF48273C4F20804C0F20F050122C4F20033C4F2080125600A608A
:2036E0001A60BDE83840FFF7B1BF00BF00224FF6FF710C23C4F20802C0F20F01C4F20803C5
:20370000012011601860704710B50446C0B200F0EBF9204610BD00BF38B50546002403E062
:20372000285D00F0E1F9013428460EF011FF8442F6D30A2000F0D8F900F0EAF90128FBD048
:20374000204638BD70B505460E46A8B10078B8B1A1B1002404E015F8010F38B1B44205D0E5
:2037600000F0C2F96B1C04F10104F4D100F0D0F90128FBD0204670BD0446F7E70C46F5E7C2
:203780000446F3E710B44FF6C7734FF6CF74C0F20103C0F2010413F8012FFF2A12D1A342A1
:2037A000F9D141F2F022C5F2000241B10A44002312F8014C013AC45401338B42F8DB5DF80B
:2037C000044B70474FF6C872C0F20102EDE700BF802814D081280CD189B94FF4A04240F66D
:2037E0001413C4F20902C2F20003116008461960704740F61413C2F20003186870474FF4AD
:20380000A04140F614130122C4F209010320C2F20003086010461A60704700BF813801281D
:203820009DBF40F61413C2F2000318680020704740F61413C2F200031B6853B101280AD023
:20384000022803BF45F22803C4F209031868002070471846704709F0B7B900BF38B54FF494
:20386000DC75C1F200052B6802205B6998472B6802205B6B98474FF4DC7301280446C1F2D5
:203880000003F4D11B684FF40070DB69984742F22803C6F2080342F228021C60C4F208024B
:2038A00013689B07FCD538BD2DE9F0434FF4E87683B0C1F20006FFF7D1FF33684FF48050DB
:2038C0004FF4D878DB68C4F20000C1F200089847D8F8003041F238045B691520C4F20004A0
:2038E0009847236841F2440523F4FE6323F00203C4F2000540F2F2794FF4DA772360C1F230
:203900000007C5F800903B681D20DB6B984742F29003C4F202034FF000521A603A684FF0E0
:20392000FF3300934FF48050176CC4F200001C211D22B84733684FF480504FF4D8415E682B
:20394000C4F20000C0F2DC214FF4E1326023B04741F23403C4F20003142141F22C02196000
:20396000C4F20002116840F6181341F010011160C2F20003196840F2013640F2011041F2EB
:203980003002002914BF31460146C4F200021160C5F800901B6843B12368152043F0500308
:2039A0002360D8F800301B69984703B0BDE8F08308B54FF4DC73C1F200031B6802205B6BE6
:2039C0009847012801BF42F26C03C4F20803186800F0010018BF002008BD00BF38B5044698
:2039E000FFF7E6FF30B141F21802C4F2000213681807FCD4032C06D040F61813C2F200037F
:203A00001B6803B138BDFFF7D3FF38BB4FF4DC75C1F200052B684FF400701B6A9847032C9A
:203A200041D042F22803C6F20803012142F228021960C4F2080213689907FCD51D2000F081
:203A400021FA1C2000F01EFA4FF0FF3000F01AFABDE838404FF0FF3000F014BA4FF4E873AE
:203A6000C1F200031B684FF48050DB68C4F2000098474FF4D873C1F200031B6815205B6962
:203A8000984741F23803C4F20003186841F2440220F4FE6020F00200C4F2000240F2F27156
:203AA00018601160B2E72B684FF400709B6A98472B684FF400701B6B9847B2E710B509F058
:203AC00065F9044640F29440C2F2000000F0B8F940F61813C2F2000300221A6004B110BDAD
:203AE000BDE8104009F056B910B50446FFF760FF08B9FFF7D9FE4FF4E873C1F200031B6800
:203B00004FF480502146DB69C4F20000984710BD08B5FFF74DFF30B141F21803C4F200039E
:203B20001868C0F3C00008BD70B5FFF797FE4FF48253C4F200031A6841F24403C4F2000397
:203B400040F2F27112F0500F196018D041F218054FF4E87640F61814C4F20005C1F2000647
:203B6000C2F2000406E03368C4F200001B69984723682BB92B684FF48050DB06F3D570BD08
:203B8000C0B29847F6E700BF4EF61053CEF200031A6822F004021A6030BF704770B509F0F6
:203BA000F5F802F0BDFB18B1BDE8704009F0F2B840F61C10C2F2000002F0F8FC0225044640
:203BC00048B1636823B19847A84228BF2846C5B22468002CF5D1FFF755FC4FF42073C4F267
:203BE00024331B680446002B40F0B88002F044FA03460146002840F0F280012D00F0CC801A
:203C0000022DD1D12846002B00F00581FFF792FC40F61C10C2F2000002F0C8FC06250446FF
:203C2000002800F0AF80A368022003B198472369246825EA0305002CF5D1FFF757FD6A07A1
:203C400005F0060400F1A180002C40F0E98000F0D3F900200BF042FE4FF48052C4F20902A1
:203C6000116841F2080321F003011160C4F2090319684FF4DC7241F00F011960C1F20002C4
:203C8000136839209B6998474FF482524FF484610023C4F20902C4F22231136018461360FD
:203CA0000B6009F019FD062C00F0C38042F22C0542F22424C4F20804C4F209052B682368A0
:203CC0004FF4EC7623F003032360C1F2000633684FF48040C4F2030003215B6898474FF48A
:203CE000DC73C1F200031B689B6B98472B6809F04BFE4FF4C0730022C4F204331A603368E8
:203D00004FF48040C4F203005B6801219847216844F20C0341F003010122C4F209032160BA
:203D20001A602B6809F070FE0BF0A0FDFFF776FBFFF7DCFC40F61C10C2F2000002F036FC08
:203D4000044628B1E36803B198472468002CF9D109F020F8BDE8704009F01CB842F218035E
:203D6000C4F209031B681B1A022B52D4A3F28F23002BB8BF0123BFF639AF9D4228BF1D46A3
:203D8000EDB233E7FFF7B2FC062444F20C03C4F2090300221A6057E7002B4ED04FF6F873C2
:203DA000CFF6FF731B1BCB4248BF04F1080106D404F58034631A31EA230128BF21460220D1
:203DC000FFF7B8FB4EF61053CEF200031A6822F004021A6030BFBDE8704008F0DBBF02F0F4
:203DE00055F90646FFF7FEFA361A002E15DDFFF7D7FB4FF67153CFF6FF731B1B00EB46213B
:203E0000CB424FF001037FF5F8AE9D4228BF1D46F3E60023B1E7611EF8E600231946F4E7C1
:203E20004FF4DC73C1F200031B6820469B6998470DE7022009F068F838E704F58031BEE791
:203E4000014640F61C10C2F2000002F0B1BB00BF014640F61C10C2F2000002F0FDBB00BF22
:203E600040F61C1008B5C2F2000002F09BFB4FF4C273C1F200031B6803201B682021984770
:203E800008BD00BF411C10B5044611D04FF4DA73C1F200031B684FF4C0421B6800219847C0
:203EA0004FF4D053A400C4F24423234300221A6010BD00BF38B504460D4608F067FF012143
:203EC000A14042F2E00240F62013C4F20202C2F20003116043F8245000B138BDBDE838402E
:203EE00008F058BF08B5084B002103F1800243F8041F9342FBD14FF4D873C1F200031B6846
:203F000010201B69984708BD1C090020F8B542F2E003C4F202031D6840F620171D60C2F262
:203F200000070024012606FA04F32B42E0B203D057F8243003B198470134202CF3D1F8BD36
:203F400000B585B00022412302A8029203930BF0A3FC042008F0C6FF032814D0042003214B
:203F600008F090FF042008F0BDFF03280346F9D14FF420400093C4F20C0000214FF04052BA
:203F80001C2308F02DFF02A80BF0E8FC05B05DF804FB00BF00B583B00022412368468DE8DC
:203FA0000C000BF079FC012008F09CFF012803D00320012108F066FF68460BF0CFFC03B00C
:203FC0005DF804FB00B583B00022412368468DE80C000BF061FC012008F084FF012805D0FE
:203FE0004823C1F20003986B08F0D4FD68460BF0B5FC03B05DF804FB10B582B0412368466A
:204000000024019300940BF047FC0320214608F039FF012008F066FF28B14823C1F20003E4
:20402000986B08F0B7FD68460BF098FC02B010BD2DE9F04F038840F2031293428BB0044694
:204040000D4636D07632934206D003B30023038003200BB0BDE8F08F40F6C410C2F2000098
:2040600002F000F870B340F6D415C2F2000542F6ED262B68C2F200060133092B2B605FDD94
:2040800008F084FE0023337008B908F083FE40F2B843C2F2000340F6C4101968C2F2000083
:2040A00001F0C2FF40F20313012023800BB0BDE8F08F40F6C410C2F2000001F0D3FF28B901
:2040C000832D05D001200BB0BDE8F08F832D03D1002323800220BCE740F6D81AC2F2000A66
:2040E0000021402250460EF0E9F9022501211A2272488AF800508AF801108AF802200EF081
:2041000027FA064600F1010E324609270AF105006A4940F6A01940F6D4158AF803E08AF8E2
:204120000470C2F200090EF0EDF8C2F20005721D002342F6ED26C9F800202B60C2F200068F
:2041400008F024FE01233370002856D00BF04AFC0746002847D042F67433C0F201039B69CA
:20416000984700288CD10BF0D5FE04A8182140F602020BF0BBFE9DF8232040F2DC4302F01F
:2041800001026FF30002C2F200034FF0290E04A803A94FF000088DF8232009938DF822E001
:2041A0008DF81E800BF026FC012831D00120C0F2024002A90BF01EFC17B30BF0B7FE40F610
:2041C000C410C2F200000C2101F02EFF08F0DEFD00233370C8B12B68082B3FF74DAF40F2D0
:2041E000791323806EE7FFF7D5FE0BF0F9FD01287FF446AFFFF7E6FEB7E708F0CBFDA5E72C
:204200000BF042FDFFF7F8FED9E708F0C3FDE2E704A80BF045FC0128C8D140F6A019C2F2EA
:20422000000940F6A41B40F6D81A252342460194C2F2000B4C468046C2F2000A9946204BD4
:20424000CBF8002003F1080E1A609A601A6141F60503100E0492ADF810301A4B014668F3A3
:20426000030168F30300CBF810302368CEF80C2007928BF81B108DF81D0003A904A8059284
:2042800006920992CDF820B08DF81E90CBF81C80CBF808A08BF8063000920BF0ABFB08B9AC
:2042A000019C83E704A80BF0FBFB0128009AF7D109F10109B9F1280FC1D1F1E7BC040020A0
:2042C000A80900205235002070B50C460546E9B10B7823B108460EF03BF91F2800D970BDE6
:2042E00040F2B842C2F20002002151609160D160116151619161D16111622046161D0EF096
:2043000027F92146024630460DF0FCFF002DE6D040F2B843C2F200031D6070BD08B508F03A
:2043200083FC00F0020000F0FF03A8B140F2B843C2F20003187900B908BD002242F6ED2364
:2043400040F2A840C2F200031146C2F200001A7002F024F8012008BD184608BD42F6ED2398
:20436000C2F200031878704708B50BF03BFB48B140F69C43C2F200035888022814BF02208D
:20438000012008BD022008BD70B582B00BF02AFB60B940F69C40C2F2000001A90BF02AFB30
:2043A000012818BF00200CD002B070BD40F69C44C2F200046388022B08BF0120E9D102B0E8
:2043C00070BDFFF75FF84FF6C076CFF6FF7640F69C44361AC2F2000403E0FFF753F8C64264
:2043E0000AD5608840F69C450228C2F20005F4D1831E58425841D7E76888F9E708B5B3293C
:2044000094BF0A46B422014602480DF07BFF002008BD00BF2E0D00202DE9F041044608F093
:20442000B5FC43F204030746C4F2040344B11A6840F69043C2F200031A60BFB1BDE8F0814E
:20444000D3F8008040F69046C2F2000618F1804432684FF0000545F1000500239D4208BF9C
:20446000944207D3C6F80080002FE7D1BDE8F04108F090BCFFF706F840F61823C2F2000331
:20448000196840F69842C2F20002013110601960C6F80080E8E700BF10B588B002A818210E
:2044A00040F602020BF022FD40F23853C2F200031B689DF81A2019799DF81B4061F3050205
:2044C0008DF81A20597902A861F387128DF81A209A7940F20C5362F34704C2F200030122D7
:2044E00001A98DF81B4007938DF816200BF082FA012818BF002001D008B010BD02A80BF04B
:20450000CFFA421E5042504108B010BD08B5FFF7C3FF012801D0002008BDFFF735FFC0B2DA
:2045200008BD00BF70B540F66045C2F2000542F6EE262C68C2F20006002006E02379022BD5
:2045400006D024682B68A34211D02379032BF5D133780120002BF4D140F2CC60C2F2000042
:2045600001F03EFF24682B680120A342EDD170BD10B582B00BF0B4FC04460BF033FA08B928
:2045800002B010BD0120C0F2014001A90BF032FA0128F5D1638803F44063002BF0D163886C
:2045A00003F44063002BF5D0EAE700BF0B280ED00C2801D001207047D1F1010038BF002019
:2045C000042A18BF40F00100C0B102207047D1F1010038BF0020082A0CBF024640F0010209
:2045E000002AF2D1094B0139A3F1080013F8012D834201F8012FF9D10020704740F65C4307
:20460000C2F200031B680B60704700BFCC0C002010B584B00BF0E6F908B904B010BD00244E
:2046200042F2034302A801A902940394ADF808300BF0E0F90028F0D09DF90A30803318BF8C
:204640002046EAD19DF80C00C0F38100411E48424841E2E710B582B00BF0C4F928B340F669
:204660009C44C2F200046388022B1ED1FFF7D0FF0028FBD1012001A9C0F201400BF0BAF976
:2046800002E06388022B03D10BF0ACF90028F8D1638842F2074042F20242934218BF83426C
:2046A00014BF0020012002B010BD012002B010BD10B5FFF753FE012832D0FFF7A9FF0446A8
:2046C0000028FAD1FFF7C6FF0BF0DEFAFFF794FC40F61C23C2F20003197940F69C420229D6
:2046E00008BF1C7140F6AC23C2F20003C2F2000254801A79022A04BF00221A7140F63C334C
:20470000C2F200031A79022A04BF00221A7140F6CC33C2F200031A79022A04BF00221A7198
:20472000012010BD30B585B00BF05CF9C0B140F69C43C2F200035B88022B11D1002442F29A
:20474000034503E09DF80A3058060CD102A801A902940394ADF808500BF04CF90028F1D17C
:20476000FF2005B030BD9DF80C0005B030BD00BF0B2808B501D0012008BDD1F1010338BF12
:204780000023082A0CBF1A4643F00102022002B108BD0E4B083103F1080011F8012D03F809
:2047A000012F8342F9D10BF01DF90028F0D040F69C43C2F200035B88022B05D1FFF74AFF50
:2047C000FFF7E2FD032008BD002008BDC30C002010B5FFF7C3FD01280CD00BF003F948B1D8
:2047E00040F69C43C2F200035B88022B02D1FFF70FFF08B1002010BDFFF794FFFF28F9D0E7
:20480000C0F3801010BD00BFF8B5FFF7A7FD012842D0FFF7BFFB0BF0E5F8002835D140F65B
:204820001C2240F6AC2040F63C3140F6CC33C2F20002C2F20000C2F20001C2F2000392F800
:2048400005C090F805E04F795E790125882465F3830C65F3830E65F3830765F3830682F8A8
:2048600005C0106080F805E00160C480D480CC804F710B601A60DC805E71FFF7A3FB0BF002
:20488000AFFAA8420AD00020F8BD40F69C43C2F200035B88022BC2D10120F8BD42F6EE2348
:2048A000C2F200031878003018BF01200BF0B6FAFFF7F2FDA842E6D1BDE8F840FFF764BD64
:2048C00070B584B0072800F2CE80DFE800F022762B373D70850440F69C44C2F200042177C3
:2048E0000BF080F838B36388022B24D1FFF7B2FE012814BF032400240BF080FA0020FFF7D5
:204900008BFDFFF741FD01280CBF2046032004B070BD012900F09980002900F090800220FF
:2049200004B070BD40F69C44C2F2000461860BF059F80028D7D1002004B070BD40F69C44AE
:20494000C2F200042186CBE731F00703E7D140F69C44C2F20004257E42F6EE2261F3000551
:20496000EDB2C1F34000C2F2000245F00205167860F38205607EC1F3800105F0870563F360
:20498000C71563F3C7108E42607625761170A7D1228B40F68843C2F20003184603A95A808B
:2049A0000BF028F800280CBF03200020AFE731F0010308BFC8B2B2D1A9E7A1F10B030F2BBD
:2049C000ADD840F69C44C2F20004A37BC9B28B4218BFA17384D1AEE701F115031A2B9ED884
:2049E00042F60435C0F201050C2455F8342042F604339142C0F201034FEAC4002CDD14F1BA
:204A0000FF34F2D20AF0EEFF002880D005EBC40422796079A17902F03F024FF0000360F332
:204A2000871261F34703102403A802A98DF80E208DF80F30ADF80C400AF0DCFF7BE7019184
:204A4000FFF736FE0199084661E7FFF7DDFE012814BF032000205AE740F238520344C2F2F4
:204A600000021360CEE7012051E700BF70B50C4682B069B1102800F2AF80DFE800F07E762D
:204A80006E668F8C5D542E251DADAD1915100C00022002B070BD05230B600020F9E76FF06F
:204AA00014030B600020F4E71A230B600020F0E70B230B600020ECE742F6F023C2F200034C
:204AC0001B7800200B60E4E742F6EF23C2F200031B7800205BB20B60DBE70AF083FF00285B
:204AE0007CD040F69C43C2F200035B88022B08BF002673D1002240F2034301A869460192D8
:204B0000ADF804300AF076FF01280CBF9DF902506FF07F05002E67D1256015F1800F0CBF43
:204B200003200020B5E740F69C43C2F2000393F91C3000200B60ACE740F23853C2F2000360
:204B40001B6800201B680B60A3E740F69C43C2F200031B8E00200B609BE740F69C43C2F2EF
:204B600000035B8E00200B6093E740F69C43C2F200039B7B00200B608BE70AF033FF38B150
:204B800040F69C43C2F200035888861E70427041206000207DE7002008607AE7002240F61D
:204BA0009C430A60C2F200031A7E02F001020A601B7E5D0742F6EE23C2F20003187844BF6E
:204BC00042F002020A6000283FF463AF0B68002043F004030B605CE701205AE7FFF714FEE3
:204BE000012804D1064685E7FFF762FD94E76FF07F03236003204CE7F0B589B007460AF050
:204C0000F1FE002858D040F69C43C2F200035B88022B08BF00264FD1FEF734FC4FF6E075AD
:204C2000CFF6FF752D1A03E0FEF72CFCC5424CD5FFF7EEFC01280446F6D0002845D102A8CB
:204C4000182142F601420BF051F942F6EE25254BFFB2C2F200058DF8177029780693049458
:204C60009DF81430003118BF012164F3030301208DF814300BF012F902A801A90AF0BAFEDE
:204C800038B3287800E050B3BDF80A3003F44063002BF8D0BDF80A40A4B2B4F5105418BFF1
:204CA0000124003018BF01200BF00EF9204656B1FFF7FEFC204606E0FFF7A6FD012808BF73
:204CC0000646A9D0012009B0F0BD2EB9022009B0F0BD28780124E4E7FFF7EAFCF6E7FEF7DB
:204CE00053FFCEE72E0D002010B5B32994BF0A46B4220C46014604480DF004FB2046BDE84C
:204D00001040FFF779BF00BF2E0D002038B5FFF725FB012824D00AF065FE38B9FFF774FD26
:204D200001280ED0FFF7C4FC012038BD40F69C43C2F200035B88022BF0D1FFF769FC002880
:204D4000FBD10546FFF7EEFCFF2808BF012405D000F0030010F1FF3418BF0124204605B92D
:204D600038BDFFF7A5FC204638BD00BF2DE9F04F40F6944885B0C2F2000807460E46D8F8C4
:204D800000500AF02FFE48B140F69C43C2F200035B88022B02D10020FFF73EFBFEF772FB43
:204DA0004FF6FA64CFF6FF74241A03E0FEF76AFBC44209D52B79022BF8D0032B18BF0020FB
:204DC00007D005B0BDE8F08F2B79032B18BF0020F7D1D8F8004040F69443227AC2F2000322
:204DE000032A05D9257AEDB2A5F10809B14507DD226800201A602071207205B0BDE8F08FC9
:204E000004F109014A4638460DF07CFAEB1C0535E25C42F6EF2B6059C2F2000B8BF8002026
:204E20000390E15C039B42F6F02A40F6182201F07F01C2F2000AC2F20002B3F1404F8AF8A8
:204E40000010126810D98DE80C00FEF71BFB9DE80C0040F69841C2F200010968401AB0F192
:204E6000877F48BF02F1FF3242F69411C2F200016FF4BF76F61809684FF0FF3747F10007A4
:204E8000761A67EBE1770024A41942EB070540F2F0662902C2F2000643F60952002341EA6F
:204EA00014612002C6E900450CF00AFF42F6EE22C2F2000240F65C431278C2F200031860D6
:204EC0004AB1D8F80030002219684846C8F800101A721A7175E79BF80010042049B289B266
:204EE00009F0B2FA9AF80010032009F0ADFAE8E710B50AF077FDC0B140F69C43C2F2000369
:204F00005B88022B11D10020FFF786FABDE8104040F6684044F6F162C2F20000C0F2000241
:204F20004FF48731002300F04FBFFFF76DFC0128ECD10020FFF770FAFFF7BAFBE6E700BF59
:204F40002DE9F84F40F2F84040F61C26C2F20006C2F20000FEF774FF0AF018FF3046002194
:204F600090220DF0ABFA40F6AC2000219022C2F200000DF0A3FA40F63C3000219022C2F291
:204F800000000DF09BFA40F6CC3000219022C2F2000040F69C44C2F200040DF08FFA00274B
:204FA00040F6604540F69443C2F20003C2F200052046394680221E6085E8C0000DF07EFAF2
:204FC0000722022363762276B4F818E040F61C5340F68842C2F20002FF200121C2F200031B
:204FE0004FF0A60C42F6010B4FF0190A4FF0B9094FF06F082561A4F800B084F80EA084F8EB
:205000000F90636184F81B8084F81CC0A076617384F8371042F20206A2F802E01071168042
:20502000FFF7F2FB0128044618BF3C4602D02046BDE8F88F42F66C30C0F201000AF064FF79
:205040002046FFF7E9F940F6684044F6F162C0F200023B46C2F200004FF4873100F0B4FE21
:2050600040F2CC603946C2F2000001F097F92046BDE8F88F08B500F0A3F880B208BD00BF8E
:2050800000F038B938B54FF4DC75C1F200052B6804205B6998472B6804205B6B98474FF4FD
:2050A000DC7301280446C1F20003F4D11B6840F20140DB69984742F22803C6F2080342F244
:2050C00028021C60C4F2080213689B07FCD538BD40F6E453C2F20003186800280CBF0220CE
:2050E000012070472DE9F04103880646002B4AD0B3F5847F09D140F2E363C2F200031B782E
:205100008B4207D00120BDE8F081002303800320BDE8F08140F6E457C2F200073B68B3B1A2
:205120004FF4E673C1F200031A6848F20403C4F2020352680220D3F8008090470024221843
:2051400048F10003194610463B6898473C604FF4DC73C1F200031B6840F201409B6A98471E
:2051600042F22803C6F20803012142F228021960C4F2080213689907FCD540F23C50C2F2F6
:205180000000FEF765FE4FF4847333800120BDE8F08100BF08B54FF4DC73C1F200031B684C
:2051A00004205B6B9847012801BF42F23C03C4F208031868C0F3400018BF002008BD00BF1B
:2051C00070B540F6E453C2F200031B68D3B140F6E850C2F200000023C15C40F6E852C2F2F9
:2051E000000229B90133042BF6D10020014670BD40F2F8610024C2F2000101EBC301D454D1
:2052000003C970BDFFF7C6FF002842D048F20803C4F202031A680123C8F2000313409BB996
:2052200049F6F073C4F2020301221A6018680028FCD102464FF4807108F02AFC4FF42A7385
:20524000C4F2502301221A6007F0A0FD48F208020646C4F202021368D807FCD54FF4E673E3
:20526000C1F200031A6848F20403C4F20203526802201C68904700222346141843F10005D3
:2052800016B12046294670BD07F084FD2046294670BDFFF7F7FEB9E738B54FF42A7500244D
:2052A000C4F2502548F20C032C60C4F2020319684FF4D87221F001011960C1F20002136869
:2052C00031205B699847204622464FF4807108F0DFFB012240F2E3632A60C2F2000340F2F8
:2052E000505022461978C2F20000BDE8384001F023B800BF10B540F2E364C2F20004237828
:20530000802B00D010BD00F087FF207040F25050C2F200000021BDE8104001F03FB800BFFC
:2053200008B51AB108461146FEF70CFA002008BD0FB400B583B004AB53F8041B40F26050BA
:205340001A46C2F20000019300F022F803B05DF804EB04B0704700BF38B50C46054609E007
:2053600042F6C831C0F201012B6868681022103C984718B9102CF3D8204604B938BD42F660
:20538000C8312246C0F201012B686868984738BD2DE9F04F42F61C4491B0C0F201040025B7
:2053A00082468946099204940295884698F80030002B00F0F080252B00F01983444602E02B
:2053C000252B04D02C466378651C002BF8D145450FD0C8EB050641463246DAF80030DAF8ED
:2053E00004009847002840F08F826378029C34440294002B00F0CF806B78002B00F0CB8027
:2054000001350024A3F12002AC46102A1CD8DFE802F0181B1B151B1B1B1B1B1B1B121B0F47
:205420001B1B090044F0100401359CF80130E9E744F00104F8E744F00604F5E744F00804A8
:20544000F2E744F00204EFE7A3F13102D2B2082A00F2E580A3F13002D2B2092A9CBF013581
:205460004FF0000B00F2DE800BEB8B0B03EB4B0BAC4615F8013BABF1300BA3F13002D2B266
:20548000092AF1D92E2B00F0D2804FF0FF316C2B00F0EE80682B00F07B81782B00F28180FB
:2054A000DFE813F079007F007F007F007F007F007F007F007F007F007F007F007F007F0036
:2054C0007F007F007F007F007F007F007F007F007F007F007F007F007F007F007F007F00DC
:2054E0007F007F007F007F007F007F007F00A2027F007F007F007F007F007F007F007F0097
:205500007F007F007F007F007F007F007F007F007F007F007F007F007F007F007F007F009B
:205520007F007F007F009F027F007F007F009C02990296027F007F007F007F007F007F0005
:205540007F007F007F007F007F007F007F007F007F007F0093027F007F007F007F007F0045
:205560007F007F007F0090027F008D028A028702840281027F008A027F007F007F007F00E9
:205580007D007E027B027F007F0078027F0075027F007F007202029811B0BDE8F08F44F4FA
:2055A000E06404F4E063B3F5806F0CF1010800F0CF806DD9B3F5C06F00F0B281B3F5E06F59
:2055C00000F0A781B3F5A06F7FF4F0AE099BBBF1010F1A6803F1040309938CBF0BF1FF3BF1
:2055E0004FF0000BE3078DF8282000F13E8350465946FFF7B1FE002840F08681029CDAF84F
:2056000000305C44DAF804000AA9012202949847002840F079810BF1010B029D95E02A2BD6
:2056200000F0C6802E2B4FF0000B7FF42EAF9CF801300CF10101A3F13002D2B2092A00F20E
:20564000C4800CF102024FF0000909EB890903EB490913789446A3F13001C9B20929A9F186
:20566000300902F10102F0D96C2B49467FF412AF9CF801306C2B03BF9CF8023044F080043C
:205680000CF1020C0CF1010C18BF44F0600404E7B3F5807F00F0A780B3F5407F7FF486AECF
:2056A000099A42F6FC37116842F6E833C0F20103043214F4804FC0F2010718BF1F460992BC
:2056C00000230A46002900F057810DF13A00110902F00F0241EA0371BD5C1E090A46334669
:2056E000014600F8015952EA0305F0D10DF13B035B1A18BFDD1C00F04181782030222323A9
:20570000AB4501F8010C01F8022C01F8033CA1F103063AD84FF0000B14F0010406D15046C7
:205720005946FFF719FE002840F0EE803146DAF80030DAF804002A469847002840F0E4809D
:2057400002980544002C40F0FB805D4402952DE6099B1E6804330993002E00F04A823378B2
:205760001D466BB1731C18781A4601330028FAD1951B8D4294BF002301230029B8BF002328
:20578000002B18BF0D46AB45C4D9C5EB0B0BC3E79CF80130682B03BF9CF8023044F020047F
:2057A0000CF1020C0CF1010C18BF44F0400474E6099B05F1010C1A680433002A0993B8BF8E
:2057C00044F0010493466B785CE62A2B18BF8C467FF45BAE099A9CF80230111D09910CF1EA
:2057E000020C116853E60029ABBF24F0100401250591059514F4005504F0E003039500F01C
:20580000A780402B00F0208200F2F380002B00F0DE81202B40F00882099B1A1D099293F97E
:205820000020D317002A73F10000C0F2DA81CDE906230025089504F4C053B3F5805F00F0A0
:205840006481B3F5C05F00F07F81B3F5006F1CBF0DF13E054FF0000900F03281059941F6B9
:205860000803894504EA030341F20802C0F0E580934218BF002600F00A8241F608029342A5
:2058800006EB090100F0FC8000273A46039870B1089B002B40F00E8104F00603022B00F097
:2058A000CD810498062B08BF012708BF02467B189B458CBFC3EB0B0B4FF0000B14F00103FB
:2058C000039304D1E10640F19E815E449B463FB11146DAF80030DAF804003A46984798B9D4
:2058E000102E344603D8B5E0102C40F2B38042F6D831C0F20101DAF80030DAF804001022E0
:20590000103C98470028EFD04FF0FF3011B0BDE8F08F099B029C1A6804331460099345E5ED
:2059200042F62841C0F20101DAF80030DAF80400012298470028E7D1029C0134029435E5D5
:2059400050465946FFF708FD00283FF4FEAEDBE7402B00F080815CD8002B00F02D81202BAA
:2059600040F05B81099B039D18781A1D002108950992CDE906015EE70DF13B01302301F82F
:20598000013C04250139B8E644F4C85409E644F4106406E644F4806403E644F4407400E617
:2059A00044F48854FDE544F48134FAE544F40074F7E544F40244F4E544F42454F1E544F488
:2059C000A064EEE544F4C134EBE544F4B244E8E544F4A134E5E544F48444E2E544F442449C
:2059E000DFE544F4E134DCE544F4C064D9E5454602E5602B00F0EB80802B40F01581099B4E
:205A0000073323F0070303F108020992D3E9002308E7602B00F0D080802B40F0FE80099B00
:205A2000039D073323F0070303F10802D3E9000108950992CDE90601FDE69342C9EB01064C
:205A40007FF41BAF002E08BF012600273A4606EB09011BE7002C40F0A1802946DAF800305B
:205A6000DAF804004A46984700287FF44DAF029B039C4B441F443E44ACB95E44029695E482
:205A8000DDE9062313433FF4FFAE42F6144242F6104314F4804FC0F20102C0F2010318BFAF
:205AA0001A460227F2E650465946FFF755FC0028E3D029E742F22062C0F201020127F6E6AF
:205AC000DDE90601014300F0B480DDE906670DF13D09304639460A2200230CF0F1F830328F
:205AE00089F80020304639460A2200230CF0E8F806460F4656EA07024D4609F1FF39E8D17D
:205B00000DF13E03C5EB0309A8E6DDE90623134300F08F80DDE906230DF13D01D00840EA8B
:205B20004370DE0802F00707334602460D4652EA030007F13001297005F1FF31EED10DF1D4
:205B40003E03C5EB030989E642F6FC3742F6E83314F4804FC0F20103C0F2010718BF1F4698
:205B6000DDE90623134364D0DDE906230DF13D01100902F00F0540EA03704FEA131E7E5D80
:205B80000246734652EA03000D460E7001F1FF31EED10DF13E03C5EB03095FE642F6D83192
:205BA0002246C0F20101DAF80030DAF80400984700283FF452AFA7E6039D099B08951A68C6
:205BC0000021043310460993CDE9060133E6099B1A6804330993D317002A73F10000BFF67F
:205BE00026AE504263EB43010125CDE90601089521E6052942F62046C0F201068CBF002333
:205C000001230625BCE5504659460192FFF7A4FB019A00283FF45BAE76E600250020002176
:205C20000895CDE9060106E600200021CDE90601FFE54FF000090DF13E050FE642F618422C
:205C4000C0F20102012732E6099B1A1D0992B3F90020D317E6E5099B039D18881A1D00211C
:205C600008950992CDE90601E5E5DAF80030DAF804000AA90122984700287FF445AE5046B4
:205C80005946FFF769FB00283FF4C5AC3CE60126DBE600BF10B50446006830B1002100F00D
:205CA0007DFB54F8040F0028F8D110BDF8B5038806461546EBB14A2B17D1882946D140F679
:205CC000EC50C2F2000000F071FC044648B1031D9D4202D126E09D4224D02468231D002C91
:205CE000F9D14A2333800120F8BD002303800320F8BD40F6EC50C2F2000000F057FC0446B3
:205D000030B1201DA16800F08FF92468002CF8D142F6F123C2F2000301221A704A23338093
:205D20000120F8BD40F6EC50C2F20000214600F093FC40F6F8556269A369C2F200052F68D7
:205D40002A600BB1E06998472F60CAE70120F8BD10B542F6F12340F6EC500024C2F2000361
:205D6000C2F200001C7000F01DFC40F268502146C2F20000BDE8104000F010BB70B542F6C8
:205D8000F124C2F20004049D267882610446C36145614EB9A16040F6EC502146C2F200006B
:205DA000BDE8704000F004BC40F6F855C2F200052E6840F26853C2F2000304302B6000F0B9
:205DC00033F92E60E7E700BF10B540F6F854C2F20004246882B00094FFF7D0FF02B010BDE7
:205DE00070B542F6F123C2F200031B7804466BB140F6F855C2F200052E6840F26853C2F20F
:205E0000000304302B6000F019F92E6040F6EC502146C2F20000BDE8704000F0C9BB00BF1B
:205E200070B542F6F123C2F200031B7804466BB140F6F855C2F200052E6840F26853C2F2CE
:205E4000000304302B6000F003F92E6040F6EC502146C2F20000BDE8704000F0A9BB00BF11
:205E600010B542F6F123C2F200031B78044653B9C360036140F6EC502146C2F20000BDE8B8
:205E8000104000F0E9BB043000F00CF9F2E700BF704700BF10B540F6F054C2F20004236865
:205EA000CBB1FDF79FFA236859681A689B680A44121A4BB193E812009B682144091A8A42AE
:205EC00028BF0A46002BF5D140F6F4530244C2F200031A6010BD40F6F452C2F20002136034
:205EE00010BD00BF2DE9F041038805467BB1592B08D1872915D0822926D059232B800120F2
:205F0000BDE8F081002303800320BDE8F08140F6F052C2F20002136059232B800120BDE8FE
:205F2000F08140F6F057C2F200073B68002BE4D0D9688A4203D02BE0D9688A4227D19B6843
:205F4000002BF9D13B60D8E740F6F057C2F200074FF000083C68002CCFD0002604E0A368EF
:205F60002646002BC9D01C46204600F08BFA0028F5D0E0688821224600F0DEF9034640F22C
:205F80007850C2F2000073B100F02AFAE7E73B6099680029B1D0C86882420BBF89680B4639
:205FA00099608968F5E7E360A3682EB1B360C4F80880FFF76FFFCDE73B60F8E710B50446F6
:205FC00040F27850C2F2000000F00AFA40F6F052E368C2F20002116853B149B18C4218BF8A
:205FE0000B4602D110E09C420ED09B68002BFAD140F6F853C2F200031B68A160E360146065
:20600000BDE81040FFF746BF40F6F853C2F200031B68E360BDE81040FFF73CBF40F27850B2
:20602000C2F2000000F0DCB910B5044600F016FA2046BDE81040FFF7C1BF00BF10B5044679
:2060400000F014FA2046BDE81040FFF7B7BF00BF10B5044600F010FA2046BDE81040FFF762
:20606000ADBF00BFC068D0F1010038BF0020704705C81044704700BF40F6F053C2F2000376
:206080001868003018BF0120704700BF40F6F053C2F20003186820B140F6F453C2F200032D
:2060A0001868704710B540F6F053C2F200031A680446904217D04AB1936883420AD02BB1BE
:2060C0009A68A24207D01346002BF9D10023A360E36010BD1346A2689A60FFF7DBFE002330
:2060E000A360E36010BD82681A60FFF7D3FEEDE72DE9F84340F6FC58C2F20008D8F80040E7
:2061000040F6F856221CC2F2000618BF0122844218BF002C054689463768234604D01B68C7
:206120009D4218BF002BFAD163B3AB7BE3B10023AB736AB1A54220464FF087012A4604D02F
:20614000A37BDB0701D500F029F82468002CF1D1AB683BB14D4505D0356005F10C0083213D
:2061600000229847D8F80040A54212D04CB12368AB4209D02BB11A68AA4206D01346002B53
:20618000F9D13760BDE8F88323462A681A603760F8E72B683760C8F80030F3E770B585688D
:2061A00004460E468DB140F6F853C2F200030220A0731C6004F10C00A8470238012805D9E9
:2061C000832E1CBF0123A37300D070BD20462146BDE87040FFF78CBF70B540F6FC53C2F23B
:2061E00000031C6842F6F423C2F2000300261E7084B1012501E0246864B1E37B002BFAD02E
:20620000A573E673204682210022FFF7C7FF2468002CF2D170BD00BF42F6F523C2F20003B8
:206220001878421C1A70704770B442F6F32040F6FC5140F6F852002342F6F52542F6F224FA
:20624000C2F20000C2F20001C2F20002C2F200058A26C2F2000403700B6013602E7023707C
:2062600070BC70472DE9F04142F6F424C2F2000423780BB1FFF7B0FF42F6F325C2F20005E7
:20628000287818B342F6F222C2F20002117840F6006301EB410C4FEA8C0CC2F2000303EBC0
:2062A0000C0701380131BE68C0B201F01F012870117013F80C807F68B6B1B8F1810F04BFBD
:2062C0000123B37306D0B37BDA0703D423781844BDE8F081304641463A46FFF75FFF28783A
:2062E00023781844BDE8F08140F6FC53C2F200031E6836B9EAE7B37BD9070AD43668002E57
:20630000EDD02378002BF6D0FFF766FFB37BD907F4D5304641463A46FFF740FFEEE700BFBC
:2063200042F6F42242F6F323C2F20003C2F200021278187810447047F0B442F6F323C2F289
:2063400000031D78202D08BF012315D042F6F224C2F20004277840F600642F4407F01F07B9
:2063600007EB4707BF00C2F20004E6190135E1551D7072600023B0601846F0BC704700BFE9
:2063800038B5837B40F6F854C2F20004DB07256801D5FFF703FF256038BD00BF70B440F608
:2063A000FC55C2F200052E680446864218BF002E334604D01B689C4218BF002BFAD1A342C6
:2063C0000BD0012000232660A073A3810A4620462C60812170BCFFF7D3BF70BC704700BFA7
:2063E00060B1837B013BDBB2012B9FBF42F6F4230122C2F200031A7098BFC273704700BF86
:20640000FDF73AB838B540F68072C2F200020446156804986360A060216015B114600020CA
:2064200038BD08461460FDF729F8002038BD00BF10B540F68074C2F20004236863B1184618
:2064400000225B68816822609847236823B11868BDE81040FDF712B810BD00BF10B5416089
:206460000446FCF7BFFF206010BD00BF90E80C0013440360704700BF10B50446FCF7B2FFAE
:20648000206010BD10B50446FCF7ACFF94E80C00C2F10102104483422CBF0020012010BDB2
:2064A000F8B504880546672C0ED0792C04D064B3002303800320F8BD852933D141F28C0464
:2064C000C2F200040023236041F28C0441F20C06C2F20004C2F2000607E00A2824D022684D
:2064E0007E2ADEBF511CB054196041F20400C2F2000000F0E7F841F28C03421CC2F20003DC
:20650000EBD167232B800120F8BDFFF785FE43F2A35241F28C03C2F20002C2F20003107062
:206520001C60D1E70120F8BD41F28C04C2F20004276841F20C0343F2A351C2F200030026FF
:20654000C2F200011A4607F1010E09783046DE55C4F800E0FFF7F0FE40F6F853C2F200033D
:20656000324618688521FFF7E7FE0028AAD179232B800120F8BD00BF08B541F2040040F6F9
:206580008471C2F20000C2F20001802200F092F8BDE8084040F28850C2F200000021FFF7BF
:2065A000FDBE00BF00230360704700BF0068704710B404685CB1A14225D023680BB906E0FC
:2065C0001346994210D01A681C46002AF8D100230B6002680AB911E01A461368002BFBD152
:2065E00011605DF8044B704764B10A68226000221A6000230B600268002AEED101605DF893
:20660000044B70470C46226823460260EFE700BF30B4056865B1A94219D02B6843B12C4604
:2066200000E01346994207D01A681C46002AF8D10D60016030BC704744B10A68226000221C
:206640001A6005680D60016030BC70470D462A682B460260F3E700BF10B404685CB18C4286
:2066600015D023680BB906E01346994206D01A681C46002AF8D15DF8044B704734B11A685D
:20668000226000221A605DF8044B70470C46226823460260F5E700BF03682BB100201B6855
:2066A0000130002BFBD170471846704700B10068704700BF0023013A01600271437183717D
:2066C000704700BF10B40346827940791979801A08421FBF1868541C2140805C14BF997125
:2066E0004FF0FF305DF8044B704700BF08B547F25520C0F2000003F087FC41F20C23C2F269
:20670000000300220120FD21187099705A70DA7008BD00BF30B413780C7A83F002039C42A1
:2067200018D00B891BB94B89B3F57F4F33D0012303FA00F041F2980351F8084FC2F2000386
:206740001A68496802F108051D6014605160C0B230BC70474C7A53789C42E2D18C7A93781C
:206760009C42DED1CC7AD3789C42DAD10C7B13799C42D6D14C7B53799C42D2D18C7B9379B3
:206780009C42CED1D379CA7B9A42CAD1032303FA00F0C0B2DCE78B89FE2BC8D1022303FA34
:2067A00000F041F29803C2F200031A68C989C0B222F8021B1A60CBE710B542F63034C2F2A6
:2067C0000004A179022007F03FFEA379112B0FD0062B0DD03A2B05BF94F8281094F829302E
:2067E000002143EA01210120BDE8104007F02CBE238D618D01209942A8BF1946BDE81040DD
:2068000007F022BE10B541F20C24C2F200042378012B01D0002010BD01460822A01C0BF014
:206820003DFD0028F6D1204610BD00BF08B50146102007F019FE42F63053C0F2010346F64E
:2068400055009B68C0F2000000219847BDE80840FCF74CBF10B508460C46114602F00CFF8A
:2068600041F27073C2F200031B6813B19B682046984741F21C23C2F200031C6010BD00BF8B
:206880002DE9F843002341F2202607461A46C2F20006F418A57841F220247133C2F20004A8
:2068A00035B101320C2AF4D14FF0FF30BDE8F883C2EBC20802EB081804EB0805697007F0E6
:2068C0000DFD42F6F726C2F20006327841F21823C2F200031B68801AA87004F8087003EB39
:2068E000020907F0FBFC33784946C21AE81C0BF009FDA878BDE8F8832DE9F04F814685B0F3
:206900008B46002A3AD141F220266D4D14469446C2F200064FF0FF084FF0FF3A40F24C51C3
