:020000040000FA
:20000000005000206D100000651000004910000069100000691000006910000000000000BA
:200020000000000000000000000000006910000069100000000000006910000069100000DC
:20004000753A0000691000009DF700006910000095310000913600006910000069100000EC
:2000600069100000C9F7000069100000691000006910000069100000691000006910000071
:20008000691000006910000069100000691000006910000069100000691000006910000098
:2000A000691000006910000069100000691000006910000069100000691000006910000078
:2000C00069100000C94A0000F0B540F2C473C2F200031B6883B09B0703D44FF0004003B06E
:2000E000F0BD0020452102F091FE0DF10601012002220EF08DFD20B901A802210EF0AEFD2C
:20010000EBE70DF10601002002220EF081FD0028F2D0BDF806305BBA9CB2200BADF804300C
:2001200010F038FC0FF0C2FF0646C4F30B000F4610F040FC0CA3D3E9002304460D4630468B
:20014000394610F09DFC02460B462046294610F097FC10F02FFF0021C4F2C82111F088F817
:2001600011F0D6F903B0F0BD7B14AE47E17A843F08B540F2E873C2F200031B68032B3CD1EE
:20018000431E012B39D842F68C1242F68E13C2F20002C2F20003012812881B8818D01846F9
:2001A00010F0F8FB00230022C3F6F06310F068FC00230022C4F2590310F062FC10F0FAFEEA
:2001C0000021C4F2C82111F053F811F0A1F908BD10B210F0EFFB00230022C3F6F06310F0B6
:2001E0004FFC07A3D3E9002310F04AFC00230022C4F2440310F090FAE0E74FF0004008BD0E
:200200000000000000A064402DE9F04140F61803C2F200031B6806465BB140F2F073C2F227
:200220000003002210F038051A609A8006D141074FD14FF000452846BDE8F08102F016FF7A
:2002400042F6D414C2F20004206009E002F00EFF4FF6F6732268CFF6FF739B1AC34203D55D
:2002600002F06CF80028F1D042F6A213C2F200031B78D807DDD540F2F07401206821C2F283
:20028000000402F0C3FD21463B2006220EF0C0FC05460020014602F0B9FD002D00F0898084
:2002A00027786578A078E17822796379202E67702570E070A1706271237170D0102E73D097
:2002C000082E18BF0025B6D1B4F9040001F03CFF5AE002F0CBFE42F6D414C2F2000420603B
:2002E00009E002F0C3FE4FF6F6732268CFF6FF739B1AC34203D502F021F80028F1D042F635
:20030000A213C2F200031B78DA0792D540F2F07401206821C2F2000402F078FD214643206D
:2003200006220EF075FC0746002847D094F8008094F801C094F802E0E778227963790020DD
:20034000014684F8018084F800C084F803E0A7706271237102F05AFD042E0AD0022E08BFF4
:20036000B4F9020007D0012E7FF465AFB4F9040001E0B4F9000010F01DFB17A3D3E9002351
:2003800010F0A8FC10F016FE0021C4F2C82110F06FFF11F0BDF805462846BDE8F081B4F945
:2003A000000001F0D1FEEFE7B4F9020001F0CCFEEAE7204606210EF051FC3AE720460621E6
:2003C0000EF04CFC3846394602F020FD4FF0004531E700BFAFF3008000000000006060404E
:2003E0002DE9F04F9A4694462AF000488146064658EA0C0093B014461D468B460F4600F015
:200400008A80002221F00040C7F6F0729042029012DDDDF8088008F1404C0CF5801C5CEA28
:20042000060640F082804FF0000BC3F6F07B3046594613B0BDE8F08F14BF00230123B9F150
:20044000000F0CBF002103F001010029E1D19045DFDC14BF00210121BCF1000F0CBF002282
:2004600001F00102002AD4D1002F67DB0492A4B9002940F088800022C3F6F072904500F0F2
:20048000B980B5F1804F04BF484659463CD00022C3F6E072954200F0FF834846594601937B
:2004A000CDF800C010F060F8019BDDF800C056B9029A002A08BF43F00103002B7CD1C3F62A
:2004C000F0739A4278D0FB0F049F013B1F430A9300F08B800023C4F2E013984540F3A480B2
:2004E0000023C4F2F033984540F346844FF6FF73DDF80880C3F6EF73984540F3D783002D60
:2005000057DD47A1D1E9000102460B4610F0B8FA06468B468BE74FF0000B0646C3F6F07B70
:200520003046594613B0BDE8F08F42F25400C0F2010013B0BDE8F04F10F04AB84FF6FF7027
:20054000C4F23F30804565DC4FF6FF70C3F6EF7080458BDD4FEA285240F21340824240F348
:200560008C84C2F5866203322CFA02F000FA02F2624502BF00F00100C0F1020004903FF4BE
:2005800076AF002272E7DDF8088008F1404303F580131E433FF447AF4FF6FF73C3F6EF73FB
:2005A000984540F3B683002DA4BF6646D346BFF63EAF0026B3463AE7002DC0F25484002FD5
:2005C000A6DA029E049F06F1404303F580131F4340F06B8402460B4610F09EF802460B460A
:2005E00010F078FB06468B4621E7484659464A465B46F1E7002DA8BF4E46BFF618AF002168
:200600005B464A460020C3F6F07110F063FB06468B460CE702200490002C3FF429AF3CE7F1
:200620009C7500883CE4377E029FB7F5801FA8BF00250CDA00230022C4F24033CDF800C0FB
:2006400010F01EFADDF800C002916FF03405DDF8088049F68E024FEA2854C8F31303C0F25E
:200660000302A4F2FF3693422E4443F07F54D8BF0025119644F44014D8BFAB4610DD4BF2BC
:200680007962C0F20B029342C1BF002501361196A4F58014CEBFAB464FF480254FF0010B8A
:2006A00041F67061024623464FEACB0BC0F20101CDE9082301EB0B03D3E90067DDE90801F1
:2006C00032463B46CDF800C0CDE90C6710F024F8DDE90C2306460F46DDE9080110F01EF8DC
:2006E0000B4600210246C3F6F071002010F0F2FACDE90E01DDE90E233046394610F0C0F9B0
:20070000CDE90601DDE906896110002041F00051CDE9028901F500210290DDE902896B18F6
:2007200000224046494614461D4610F0A9F902460B46304639460FF0EFFFDDE90C23064667
:200740000F46204629460FF0E7FF02460B46DDE908010FF0E1FF02460B464046494610F095
:200760008FF902460B46304639460FF0D5FFDDE90E2310F085F906460F46DDE90601024665
:200780000B4610F07DF902460B4604460D4610F077F97FA3D3E90023CDE908012046294657
:2007A00010F06EF97CA3D3E900230FF0B7FF22462B4610F065F97AA3D3E900230FF0AEFF40
:2007C00022462B4610F05CF977A3D3E900230FF0A5FF22462B4610F053F975A3D3E9002333
:2007E0000FF09CFF22462B4610F04AF972A3D3E900230FF093FF02460B46DDE9080110F056
:200800003FF9DDE9062304460D46404649460FF085FF32463B4610F033F922462B460FF07F
:200820007DFF4246CDE908014B464046494610F027F900230022C4F20803CDE90C010FF067
:200840006DFFDDE908230FF069FF02980D46044622462B464046494610F012F92246804676
:2008600089462B463046394610F00AF9002306460F46204629460022C4F208030FF04CFF7A
:20088000DDE90C230FF048FF02460B46DDE908010FF042FFDDE9062310F0F2F802460B4603
:2008A000304639460FF03AFF06460F4632463B46404649460FF032FF41A3D3E900230298CF
:2008C0000D46044610F0DCF83FA3D3E90023CDE908012046294610F0D3F84246CDE9060142
:2008E0004B46204629460FF017FF02460B46304639460FF011FF36A3D3E9002310F0C0F870
:2009000002460B46DDE906010FF008FF41F66063C0F201035B44D3E900230FF0FFFE80467B
:200920001198894610F046F841F65063C0F201035B44D3E9006704460D464246DDE90801AB
:200940004B46CDE906670FF0E9FEDDE906230FF0E5FE22462B460FF0E1FE029822462B4602
:2009600006460F460FF0D8FEDDE906230FF0D4FEDDE908230FF0D0FE02460B4640464946D5
:200980000FF0CAFECDE90601DDF800C024E000BFEF4E454A287ECA3F65DBC9934A86CD3F88
:2009A00001411DA96074D13F4D268F515555D53FFFAB6FDBB66DDB3F033333333333E33FE5
:2009C000000000E009C7EE3FF5015B14E02F3EBEFD033ADC09C7EE3FDDF81080DDF82890C5
:2009E00008F1FF3353EA090962464FF0000953464FF000000CBFCBF6F079C3F6F079CDE9E8
:200A000002234FF000080290CDE90A89DDE902896046514642464B46CDF800C00FF07CFEEA
:200A20003B46324610F02CF8DDE90623DDF800C004460D466046514610F022F802460B4688
:200A4000204629460FF06AFE3B46CDE9040132464046494610F014F804460D462B46DDE9B1
:200A6000040122460FF05AFE4FF6FF73C4F28F03994282468B460F4640F31C8101F13F43A6
:200A800003F5E003034340F01A82A7A3D3E90023DDE904010FF042FE2246804689462B46C8
:200AA000504659460FF038FE02460B464046494610F076FAD846002840F015824FEA2853ED
:200AC000A3F2FE334FF4801119413944C1F30A534FF6FF72A3F2FF36C0F20F02C3F58260B7
:200AE000C1F3130A42FA06F603304AF4801A4AFA00FA21EA0603002F4FF00002204629464B
:200B0000B8BFCAF1000A0FF007FE04460D462246DDE904012B460FF001FE4FEA0A5B002692
:200B200083A3D3E9002330460F460FF0A9FF2246804689462B46304639460FF0EDFD0246AA
:200B40000B46DDE904010FF0E7FD7BA3D3E900230FF096FF7AA3D3E9002304460D463046F6
:200B600039460FF08DFF02460B46204629460FF0D5FD04460D4622462B46404649460FF0A2
:200B8000CDFD42464B4606460F460FF0C5FD02460B46204629460FF0BFFD324680468946DA
:200BA0003B46304639460FF06BFF67A3D3E9002304460D460FF064FF65A3D3E900230FF088
:200BC000ABFD22462B460FF05BFF63A3D3E900230FF0A4FD22462B460FF052FF60A3D3E9CE
:200BE00000230FF099FD22462B460FF049FF5EA3D3E900230FF092FD22462B460FF040FF98
:200C000002460B46304639460FF086FD04460D4622462B46304639460FF032FF0022CDE951
:200C200002014FF08043204629460FF075FD02460B46DDE9020110F04DF8424604460D469D
:200C40004B46304639460FF01BFF42464B460FF065FD02460B46204629460FF05DFD32463C
:200C60003B460FF059FD0B4600210246C3F6F07100200FF051FD8B44BBF5801F0B460246A6
:200C8000A8BF5B46C0F23B81DDE90A010FF0F8FE06468B46FFF7CBBB002FFFF6FEAB484624
:200CA000594613B0BDE8F04F0FF09EBB002DBFF680AC26E44CF6FF33C4F2900321F0004868
:200CC000984540F3E88001F17D5303F53C1303F55053034340F00D8122462B460FF01CFD03
:200CE00002460B46DDE9040110F046F900283FF4E5AEDDE90A011EA3D3E900230FF0C0FE35
:200D00001BA3D3E900230FF0BBFE06468B46FFF78EBB002DBCBF66460AF1004BBFF649ACDE
:200D2000FFF785BBAFF30080FE822B654715973C00000000432EE63FEF39FAFE422EE63FD1
:200D4000396CA80C615C20BED0A4BE726937663EF16BD2C541BDBB3E2CDE25AF6A56113FDF
:200D600093BDBE166CC1663F3E5555555555C53F59F3F8C21F6EA5014FF6FE73DDF8089036
:200D8000C3F6EF73994591DD0023029EC3F6F0739E423FF7B4AB00230022C3F6F073CDF872
:200DA00000C00FF0B9FC5CA3D3E9002304460D460FF066FE5AA3D3E900238046894620460A
:200DC00029460FF05DFE2246CDE902012B46204629460FF055FE002306460F4620462946F8
:200DE0000022C3F6D0730FF04BFE02460B464EA1D1E900010FF090FC22462B460FF040FEA9
:200E00000B4600210246C3F6E07100200FF084FC02460B46304639460FF032FE44A3D3E90F
:200E200000230FF02DFE02460B46DDE902010FF073FC04460D4622462B46404649460FF00B
:200E40006DFC002042464B4606460F460FF064FC02460B46204629460FF05EFCDDF800C094
:200E6000CDE90601B8E50B4600210246C3F6F07100200FF02FFFFFF7A2BB84BBC2F58262CA
:200E8000033248FA02F000FA02F242453DD000220492FFF7EDBA0023C3F6E07398453FF7D0
:200EA0000DAEDDF808B0DA4639E6049E012E08BF01F1004B06467FF42CABFFF7B8BA1EA317
:200EC000D3E90023DDE90A010FF0DAFD1AA3D3E900230FF0D5FD06468B46FFF7A8BA00208A
:200EE0000490FFF7DABADDE90A0113A3D3E90023EAE713A3D3E90023DDE90A01FEE65246BB
:200F000000F022F802460B46BEE600F00100C0F102000490FFF7ACBA000000604715F73F04
:200F200044DF5DF80BAE543E555555555555D53FFE822B654715F73F9C7500883CE4377ECC
:200F400059F3F8C21F6EA501C1F30A532DE9F041904606460F460A4643BB21F000430343A1
:200F600039D00023C4F2503300220FF089FD43F6B043CFF6FF73984506460F463BDBC1F3BA
:200F80000A53363B0A46434440F2FE718B4216DD29A1D1E9000132463B460FF0AFFB26A35B
:200FA000D3E900230FF06CFDBDE8F08140F2FF74A34227D0434440F2FE718B42E8DC002B6F
:200FC0000BDD22F0FF4222F4E00242EA035730463946BDE8F081BDE8F08113F1350F17DAFE
:200FE0004CF250339845D3DC15A1D1E9000132463B460FF083FB12A3D3E900230FF040FDED
:20100000BDE8F08102460B460FF088FBBDE8F08122F0FF4222F4E002363342EA035700232C
:20102000304639460022C3F690430FF029FDBDE8F08100BFAFF300809C7500883CE4377E83
:2010400059F3F8C21F6EA5014EF62853CEF200031A68B2F5806F03D01B689B0500D4FEE70E
:20106000704700BFFEE700BFFEE700BF10B50BF0E3FB40F2000140F29663C2F20001C2F24D
:20108000000399420ED2CC431C4424F0030442F2DC300434C0F201000023C258CA5004334F
:2010A000A342FAD1064807494FF000028842B8BF40F8042BFADB00F0EDF9FFF7C5FF10BDC7
:2010C000980600206234002008B542F2C003C0F201039B6801218120984708BD08B542F2D7
:2010E000D003C0F201039B6801218120984708BD030910B504460F2B0CD8DFE803F008956D
:2011000085898D9165696D7175797D81999D302002F098FA04F00F04013C0E2C0ED8DFE8D6
:2011200004F012171C21262B30353A3F44494E088F004520BDE8104002F084BA3020BDE835
:20114000104002F07FBA3120BDE8104002F07ABA3220BDE8104002F075BA3320BDE81040F8
:2011600002F070BA3420BDE8104002F06BBA3520BDE8104002F066BA3620BDE8104002F05A
:2011800061BA3720BDE8104002F05CBA3820BDE8104002F057BA3920BDE8104002F052BA44
:2011A0004120BDE8104002F04DBA4220BDE8104002F048BA4320BDE8104002F043BA4420EA
:2011C000BDE8104002F03EBA362002F03BFAA1E7372002F037FA9DE7382002F033FA99E736
:2011E000392002F02FFA95E7412002F02BFA91E7422002F027FA8DE7432002F023FA89E744
:20120000442002F01FFA85E7322002F01BFA81E7332002F017FA7DE7342002F013FA79E7C5
:20122000352002F00FFA75E7312002F00BFA71E7452002F007FA6DE7462002F003FA69E711
:201240004620BDE8104002F0FDB900BF70B5038882B00446B3B1B3F5A07F0ED1882929D0EC
:2012600043F25E43C2F200031B788B4232D04FF4A0730120238002B070BD002303800320BD
:2012800002B070BD40F21470C2F20000802104F0E3FA42F2D003C0F201039B680121812010
:2012A000984742F2C003C0F201039B68012181209847DCE740F21473C2F200039A42D6D147
:2012C0000220019200F030FB019A8021104604F0C3FACCE742F20813C0F201039A426ED029
:2012E00042F2C003C0F201039A4242D042F2D003C0F201039A42BAD155680120A847B0F1C1
:20130000004F11D048F21F53C5F2EB1383FB0023C217C2EB6312642303FB120040F20C7358
:20132000C2F2000358801A800220A847B0F1004F11D048F21F53C5F2EB1383FB0023C217C7
:20134000C2EB6312642303FB120040F20C73C2F20003D8809A8040F2C86041F2DD02C2F2DA
:201360000000C0F200024FF4A061002304F044F97DE7536800209847B0F1004F11D048F2F8
:201380001F53C5F2EB1383FB0023C217C2EB6312642303FB120040F20873C2F200035880B7
:2013A0001A8040F2E86041F2C902C2F20000C0F200024FF4A061002304F01EF957E740F2D1
:2013C0000876C2F20006308840F20C75000AFFF78FFE3078FFF78CFE2C2002F033F9B07823
:2013E000C2F20005FFF784FE3B2002F02BF92888000AFFF77DFE2878FFF77AFE2C2002F0D4
:2014000021F9A878FFF774FE3B2002F01BF9A888000AFFF76DFE2879FFF76AFE2C2002F0F1
:2014200011F9A879FFF764FE012000F07DFA1EE7F0B5002783B005463E463C46284600F0EE
:201440005DFA0194019B9E4206DD00BF019B01330193019B9E42F8DC284600F059FA019488
:20146000019BC6F5C876B34206DA00BF019B01330193019BB342F8DB0137B7F5487F06D0FA
:20148000B7F5C87FCCBFC7F548763E46D6E703B0F0BD00BF2DE9F0414FF4EC74C1F2000453
:2014A00023684FF4804086B05B68C4F2030001219847236801214FF480400A461B68C4F2B2
:2014C000030098470BF05EF802F0EEFA02F07CFA01F082F902F0BAFA00F006FA44F20C0053
:2014E0000821C4F209010123C4F2090042F22C02C4F2090203600B6018461368FFF798FFC9
:201500000BF044F801F0B4FD01F00AFD04F090FB01F0B6FE04F0A0FA41F2342003F0C8F90D
:2015200002F07AF804F040FC41F6B460C0F2010001F0E6FE41F6CC6000214BF2AC72C0F2B3
:20154000010003F00DFB41F6E460C0F2010001F0D7FE0AF065FF41F6B06541F6AC6410F0AA
:20156000040FC0F20105C0F201040CBFA846A0460AF05EFF012814BF2F4627460AF050FFCC
:2015800010F0020F0CBF2E4626460AF049FF10F0080F08BF2C4641F6F8603A4633460094E1
:2015A0004146C0F2010003F0DBFA40F214500021C2F2000004F00AFB03F0E2FF04F080F885
:2015C0000220FFF735FF41F62C70C0F2010003F0C7FA42F2B023C0F20103186801F090FEC9
:2015E00041F63470C0F2010003F0BAFA42F21C33C0F20103186801F083FE41F63C70C0F2F6
:20160000010042F2503403F0ABFAC0F2010441F644702168C0F2010003F0A2FAE469A047D8
:2016200038B1A047014641F64870C0F2010003F097FA0A2001F05CFE00260CF099F904A898
:201640000821039643F2084401F090FE42F2B8159DF817209DF81680C2F20004C0F2010560
:2016600004AB03CB42EA0828EF6A2060616002204AF6CD31B84741460320B8471921012094
:20168000B847082204A96B6B0B209847AB6A03A90120984741F66C700399C0F2010003F07E
:2016A0005FFA42F6881341F68070C2F200034146C0F20100A3F8008003F052FA6268216839
:2016C00042F6E413C2F2000319605A600CF0E6FA40F298503146C2F2000004F077FA022049
:2016E000FFF7A6FE40F238403146C2F2000004F06DFA41F69060C0F2010003F0E3FE01F081
:20170000CFFD0120FFF794FE04F0C4F9044601F0E1FD14F0FF0FF7D101F0F4FFF4E700BF32
:201720002DE9F04105888046792D42D0802D36D025B1002303800320BDE8F08104F084F97E
:2017400040F24846C2F2000643F25E4340F228743268C2F20003C2F2000418702560002A2B
:2017600062D02B4642F6C8151F46C2F20005EF5493688020002198472368013356F8232065
:201780002360002AF3D1DBB242F69E11C2F200010B707923A8F800300120BDE8F08143F25C
:2017A0005E43C2F200031B788B4223D00120BDE8F08142F69E17C2F2000740F2287440F29F
:2017C00024763A78C2F20004C2F2000600239342336023600ADA42F6C815C2F20005E9564C
:2017E000002923DB013393422360F4DB3368002BECD1CEE740F2287442F6C81542F69E175F
:2018000040F22476C2F20004C2F20005C2F20007C2F2000623683268E85C511C00F07F00D1
:201820003A78E8543160DDE71346ADE743F25E4140F24842C2F20001C2F20002097852F8B2
:201840002320002004F090F90028E3D18023A8F800300120BDE8F08170B542F69E16C2F25D
:20186000000635780446C5B340F24843C2F200031A68904235D01A46002303E052F8041F53
:201880008C4202D00133AB42F8DB42F6C812C2F20002D15C40F2384061F07F01C2F2000090
:2018A000D15404F0B5F93078C8B140F24843C2F200031A680021944204D106E053F8042F1A
:2018C000944202D001318142F8DB41F69070C0F20100BDE8704003F043B92B46D5E70146F6
:2018E000F3E70023D1E700BF08B500F027F842F69F13C2F2000300221A7008BD42F69F13AC
:20190000C2F200031A78024310461A7000F034B842F69F13C2F200031A7822EA00021046E6
:201920001A7000F029B800BF42F69F13C2F200031A78424010461A7000F01EB810B540F23B
:201940002C73C2F200031A68A2B901224FF4DA741A60C1F2000423680A20DB6B984723680A
:201960000F20DB6B984742F2A003C4F202034FF404421A6010BD00BF42F6A01342F2A00231
:20198000C2F20003C4F202024FF4044118701160C20741BF42F29003C4F202034FF48062E5
:2019A0001A60830741BF42F29003C4F202034FF400421A60704700BF813801289DBF40F2BC
:2019C0007073C2F2000318680020704740F2707341F6B470C2F200030322C0F201001A609D
:2019E000FFF73ABF10B57721044682B0002001F00DFA4CB98DF807400DF107010122F420F9
:201A00000DF014F902B010BD25238DF80730F3E730B5802885B023D081281AD140F2707400
:201A2000C2F200042068C8B1002939D00120FFF7D9FF40F2507041F6CD12C2F20000C0F25E
:201A400000020321002303F0D7FD0220206005B030BD40F27073C2F20003186805B030BD44
:201A600040F27074C2F20004012500207721256001F0CCF940F23871C2F20001182288200D
:201A80000DF0C6F8B62304A901F8013D2A46E0200DF0CCF80020FFF7A5FF206805B030BDB9
:201AA00040F25070C2F20000019103F0F1FD01990846FFF797FF0120206005B030BD00BF97
:201AC0002DE9F04140F27073C2F200031B680546032B40F09E80431E012B00F29A8040F2DE
:201AE00030740023C2F20004184677212360A38001F08CF92146F72006220DF089F8002809
:201B00007FD0E278207940F23873C2F200036179120342EA0012188842EA1112C0EB121105
:201B200001FB01F1B3F904700E134000B3F90210C0EBD20207FB06F601FB02F1B61306EB52
:201B4000E1214A10A2F57A42961006FB06F6B3F90870B3F90AC0701307FB02F700FB0CF024
:201B6000B3F90EC07F100CFB02F207EBE000B3F806C08014B3F9107000F5004052000CFBD0
:201B800000F0F61207FB062627786278B3F90C8094F802C03F034FEA084447EA0217C0133C
:201BA000996104EBA60447EA1C1726D07F42A7EB243440F6354606FB04F404F1434414F55E
:201BC000A0044DBFB4FBF0F06400B4FBF0F24200D00800FB00F0B3F91470B3F916609408DE
:201BE000400B07FB04F400FB06F0B3F91230641304EB2030184402EB2010012D0DD0BDE8E2
:201C0000F081204606210DF029F84FF00040BDE8F0814FF00040BDE8F08101EB810101F11E
:201C200080000012BDE8F081813801289DBF40F29873C2F2000318680020704708B541F67F
:201C4000D47040F29873C2F200030322C0F201001A6001F055FBBDE8084041F6C470C0F2AF
:201C60000100FFF7F9BD00BF10B544210446002001F0CCF842F68A13C2F20003002C14BF24
:201C80001024002402201C8019460246BDE810400CF0CCBF802870B50D462ED0812826D14D
:201CA00041F6E47040F29874C0F20100C2F2000401F026FB2668002E50D0002D3BD042F296
:201CC0000C00C0F2010001F01BFB0120FFF7CCFF40F2787041F63D42C2F20000C0F2000224
:201CE0002421002303F088FC0220206070BD40F29873C2F20003186870BD4FF4DA74C1F251
:201D00000004236801209B6B9847236801209B694FF48041984723684FF08041DB690120AB
:201D200098470020FFF7A0FF40F29873C2F200030120186070BD40F27870C2F2000003F094
:201D4000A7FC2846FFF790FF42F218000123C0F20100236001F0D4FA206870BD41F6FC7030
:201D6000C0F2010001F0CCFA304670BDF0B540F29873C2F20003196883B00329044640F063
:201D80009E80820700F0A48003280FD0012866D0022818BF4FF000446DD042F2A400C0F2D4
:201DA000010001F0ADFA204603B0F0BD42F68A1500204421C2F2000501F028F8294604200B
:201DC00002220CF025FF002861D140F29C75C2F2000540F29C70C2F2000004210CF03EFF19
:201DE00000202C786978AA78EB7841EA042443EA0225002875D0A8080FF0E6F94FF0745113
:201E00000FF036FA0021C4F27A410FF031FA0FF07FFB0646A0080FF0D7F94FF074510FF098
:201E200027FA0021C4F27A410FF022FA0FF070FB074642F2680021462A4600973346C0F2E8
:201E4000010002F08DFE40F2747140F2A072C2F20001C2F200020E60176001249DE740F27E
:201E6000747342F28C00C2F20003C0F201001C6801F046FA91E740F2A07342F29800C2F25F
:201E80000003C0F201001C6801F03AFA85E72B885BBA2B8040F29C755B04C2F2000598D53C
:201EA0002946012002220CF0B3FE002891D02046A91C02220CF0ACFE002892D189E742F214
:201EC0003000C0F2010002F04BFE4FF000406BE742F25800C0F2010001F012FA4FF0004058
:201EE00062E74FF000405FE740F2C473C2F200031868704770B540F2C474054682B0C2F2BD
:201F0000000400204521266800F080FF75B906F002064FF486532660ADF806300DF106018C
:201F2000022201200CF082FE02B070BD41F2C2020123ADF806202360F0E700BF00B500202D
:201F400083B0452100F062FF01200DF1060102220CF05EFEBDF90630002B0EDB40F2A470AF
:201F600041F63D72C2F20000C0F200021021002303F042FB03B05DF804FB42F2C000C0F2E2
:201F80000100FFF769FC40F2C473C2F2000302221A6003B05DF804FB802810B50C460FD082
:201FA00081280BD189B940F2A470C2F2000003F06FFB2046FFF79EFF204610BD002010BDEA
:201FC0000020FFF797FF002010BD0120FFF792FF40F2A47041F63D72C2F20000C0F200022C
:201FE0001021002303F008FB012010BD813801289DBF40F2E873C2F20003186800207047D0
:2020000038B542F6A114C2F2000440F2E8732278C2F2000303211960F2B140F2EC75C2F2C9
:2020200000050020432100F0F1FE0421284600F0C9FD20700020014600F0E8FE2888698881
:2020400042F68C1242F68E1340BA49BAC2F20002C2F2000310801980012342F2D000237083
:20206000C0F20100BDE83840FFF7F6BB30B5802883B032D0812829D140F2E874C2F200043E
:20208000206840B3002955D042F6A115C2F200052B785BB14321002000F0B8FE002000F0E7
:2020A00069FD28700020014600F0B0FE40F2C87042F20102C2F20000C0F2000203210023CD
:2020C00003F09AFA0220206003B030BD40F2E873C2F20003186803B030BD40F2EC7300241E
:2020E000C2F2000342F68C1542F68E12C2F2000220461C60C2F20005432114802C8000F093
:2021000085FE02A91023022021F8023D02460CF08DFD42F6A113C2F200031870214620461E
:2021200000F074FE40F2E8730120C2F20003186003B030BD40F2C870C2F2000003F0A8FA0D
:202140000120206003B030BD08B542F6A513C2F200031B78032B2ED8DFE803F022170C0212
:202160000EF028FC00224FF07D530EF089FC0EF021FF08BD0EF01EFC00230022C3F63073ED
:202180000EF07EFC0EF016FF08BD0EF013FC00230022C3F620730EF073FC0EF00BFF08BD17
:2021A0000EF008FC00230022C3F610730EF068FC0EF000FF08BD002008BD00BF81380128F2
:2021C0009DBF40F61803C2F2000318680020704740F6180342F2E800C2F200030222C0F24A
:2021E00001001A60FFF738BB10B542F6A614C2F200040120682100F009FE3F23214601227F
:202200006C2023700CF012FD21464F236B20012223700CF00BFDBDE810400020014600F02A
:20222000F5BD00BF802870B511D0812809D111F03F013FD14FF40253C4F202031B68DB04F6
:2022400059D440F61803C2F20003186870BD4FF4DA74C1F20004236807209B6B9847236832
:2022600007209B694FF40051984723684FF080410720DB69984723680C20DB6B9847236884
:202280000C209B6A4FF480614FF44072984742F2A001C4F202014FF4805040F61C030860B7
:2022A000C2F20003002140F61802C2F200021960106870BD40F61C0342F29005C2F200034D
:2022C000C4F202054FF4805640F6180440F2F87042F265321960C2F200042E60C2F20000FE
:2022E0000125C0F2000208210023256003F084F92560284670BD40F61C0340F2F870C2F200
:202300000003C2F20000196003F0C2F9FFF76CFF42F60402C4F20002136813F00103FBD13A
:2023200040F6180242F2A001C2F20002C4F202014FF4805013600860106870BD10B542F679
:20234000A214C2F200040120682100F05FFD214601223A200CF05CFC0020014600F056FD37
:20236000207810BD2DE9F04140F61C04C2F20004236813F0380F5ED142F6A414C2F20004F7
:20238000257803F03F06C5BB7EB9FFF72DFFBDE8F04140F2F87042F2D112C2F20000C0F2A2
:2023A00000020521002303F027B942F6A617C2F200070120682100F029FD092339460122C1
:2023C0006B203B700CF032FC3F23394601226C203B700CF02BFC42F6A311C2F2000101227B
:2023E0001C2025700CF022FC39463A2001220CF00FFC2846294600F009FDF6B22670002EB0
:20240000C3D042F6A614C2F20004F64301206821267000F0FBFC214601226C200CF006FC0B
:202420000020014600F0F2FC4FF46250C0F201000AF0B0F8ABE742F6A515C2F200052A782E
:20244000002A99D042F6A316C2F20006002701206821377000F0DAFC31461C2001220CF02E
:20246000E5FB39460646384600F0D0FC06B12F70236881E708B54FF4DA73C1F200031B68A8
:202480005B689847C0F3804008BD00BF40B1012803BF40F63003C2F20003D8680020704790
:2024A0004FF40353C4F20203186800F0010080F00100704740B1012803BF40F62003C2F246
:2024C0000003D868002070474FF40353C4F202031868C0F3001080F0010070478138012841
:2024E0004FF0000000D97047FFF7C4BF8138012801D9002070470420FFF7BCBF802838B5D7
:2025000014460CD0812809D151BB4FF4DA73C1F200031B6810465B6B984738BD38BD012225
:20252000A24042F2E003C4F202034FF4DA751A60C1F200052B6820469B6B98472B684FF46F
:20254000804220461B680021C2F20702984742F2B551E0B2C0F20001BDE8384001F05EBA6E
:202560000122A24042F2E003C4F202034FF4DA75C1F200051A602B6820469B6B98472B684F
:202580004FF4804220461B68C2F20702002198472B6820461B6B984738BD00BF08B500229F
:2025A000FFF7ACFF012008BD08B50422FFF7A6FF012008BD38B5044610B104281AD038BD2D
:2025C00040F63004C2F20004204603F073FB0028F5D02046042103F059FB4FF40353C4F204
:2025E00002031B6813F0010526D100F0EFFCE560A06038BD40F62005C2F20005284603F0C9
:2026000059FB0028DBD02146284603F03FFB4FF40353C4F202031C68C4F30014CCB100F081
:20262000D5FCAB68C31AEB6042F21810C0F20100BDE83840FFF710B900F0C8FCA368C31A07
:20264000E36042F20810C0F20100BDE83840FFF703B900F0BBFCEC60A86038BD4FF40353E0
:20266000C4F202031868C0F3C00070478138012808B501D9002008BD4FF4DA73C1F2000351
:202680001B6803205B689847C0F3804008BD00BF802810B50CD0812808D14FF4DA73C1F2ED
:2026A00000031B68032061BB5B6B9847012010BD4FF4DA74C1F20004236803205B6B984727
:2026C00042F2E002C4F2020208214FF4DC731160C1F200031B684FF4A060DB6998472368D4
:2026E0004FF400521B68C2F2030203200021984742F20D71C0F20001032001F08FF90120C4
:2027000010BD1B6B9847012010BD00BF40F6400008B5C2F2000003F0CDFA00B908BD42F287
:202720003010C0F20100FFF797F8BDE8084040F64000C2F20000402103F0A8BA10B54FF44C
:20274000DC74C1F20004236804205B699847236804205B6B98470128F9D110BDFFF7EEBF69
:20276000032808B503D0BDE8084000F031B90CF071FB41F6B473C0F201039B680021812096
:20278000984742F2C003C0F201039B6800218120984741F6C473C0F201039B680021812020
:2027A000984742F2D003C0F201039B6800218120984742F2E803C0F201039B68812000213F
:2027C000984742F2A003C4F202034FF480521A60BDE8084000F0FCB870B509F0D3FE06462D
:2027E000FFF7ACFF4FF4DC73C1F200031B684FF4A060DB69984742F22803C6F208030121C3
:2028000042F228021960C4F2080213689B07FCD500F0A8F84FF4DA740CF014FB0CF008FB08
:2028200040F26C40C1F20004C2F2000001F0BCF8236819209B6B984723684FF400511920A9
:202840009B699847236818209B6B984723684FF4005118209B699847236817209B6B98470C
:2028600023684FF4005117209B69984723681B209B6B984723684FF400511B209B69984737
:2028800023681E209B6B984723684FF480411E209B69984723680D20DB6B984742F2A00326
:2028A0004FF40055C4F202031D6023684FF4807200210D209B6A9847236802209B6B9847C4
:2028C000236829469B690220984723680B209B6B9847236829469B690B20984723681D208E
:2028E0009B6B9847236829469B691D20984706B170BDBDE8704009F049BE00BF10B54FF4D9
:20290000D673C1F200031B684FF400505B68C4F20000984710F00C0F044608D042F60403CE
:20292000C4F2000304221A60022009F033FED4F1010038BF002010BD08B54FF4DC73C1F246
:2029400000031B6802205B6B9847012801BF42F26003C4F20803186800F0010018BF002081
:2029600008BD00BF38B54FF4DC75C1F200052B6802205B6998472B6802205B6B98474FF4A5
:20298000DC7301280446C1F20003F4D11B684FF44070DB69984742F22803C6F2080342F20B
:2029A00028021C60C4F2080213689B07FCD54FF4D673C1F200031B684FF400504FF4D8410F
:2029C0001B68C4F20000C0F2DC210122984738BD40F2926310B5C2F20003FF221A70FFF7D4
:2029E000ABFF50B142F604014FF482630022C4F20001C4F205230A601A604FF4DC73C1F2E7
:202A000000031B684FF440701B6A984742F22803C6F20803012142F228021960C4F20802FE
:202A200013689907FCD54FF4DA74C1F20004236808209B6B984723684FF4005108209B697F
:202A40009847236809209B6B984723684FF4005109209B699847236805209B6B98472368B3
:202A60004FF4804105209B699847236806209B6B9847236806209B694FF48041984710BD4F
:202A80002DE9F84F42F6A713C2F200031A784FF420535200C4F200031A60064642F60802D5
:202AA0000078C4F2000242F6040388461060C4F200031A6842F604045106C4F20004F8D411
:202AC00003232360022009F065FD2368DA07FCD4FFF714FFB8F1010F034631D968B33446EA
:202AE00014F8012F42F6080708F1FF3AA31B42F6040BC4F200075345C4F2000B4FF00205C0
:202B00004FF001093A6008D345451BD214F8012F0135A31B53453A60F6D2CBF800900220E1
:202B200009F038FDDBF80030DB07FBD4FFF7E6FE4545034604D20028E8D10020BDE8F88F03
:202B4000002BFAD042F60404C4F2000405232360022009F01FFD2368DD07FCD4FFF7CEFEA3
:202B600042F60402C4F2000213685C06FCD4BDE8F88F00BF10B542F6A713C2F200031B78C6
:202B80004FF4205142F608025C00C4F20001C4F2000242F604030C60C4F2000310601A681E
:202BA00042F604045206C4F20004F8D407232360022009F0EFFC2368D807FCD4BDE8104015
:202BC000FFF79CBE2DE9F04F42F6A713C2F200031C784FF42052640044F00104C4F2000209
:202BE00042F6040383B0824689461460C4F200031D6842F6040615F04005C4F20006F7D10A
:202C00000B233360022042F6080809F0C3FCC4F2000809F1FF3701234FF0090BAF421BDD83
:202C200053B3336842F60404DB07C4F20004F8D4FFF764FE03460028F0D0D8F800200220B0
:202C40000AF805200135C4F800B0EDB2019309F0A1FCAF42019BE3DC73B142F60404C4F27C
:202C6000000405232360022009F094FC2368D807FCD4FFF743FE18B9002003B0BDE8F08FC1
:202C800042F60803C4F200031B68D14442F6040209F8013CC4F2000213685906EDD5FBE7EE
:202CA0002DE9F04F42F6A715C2F200052E784FF420547600C4F2000426600478804642F685
:202CC000080083B0C4F2000042F6040601920F4699460460C4F20006336842F604045906A0
:202CE000C4F20004F8D403232360022009F052FC2368DA07FCD4FFF701FE012F044625D993
:202D000018B9002003B0BDE8F08F42F6080642F6040B4FF0010AC4F20006C4F2000B18F887
:202D2000011F012231600220CBF8002009F032FCDBF80010CB07FBD4FFF7E0FD0AF1010A36
:202D4000BA45044602D20028DBD0E8E7002CD8D029784FF42053490042F6040641F00101CB
:202D6000C4F200030B22C4F2000619600220326009F010FC42F60808C4F2000809F1FF3749
:202D80004FF0000B4FF0090ABB451AD2002CB8D0336842F60405DC07C4F20005F8D4FFF7BB
:202DA000ADFD04460028EFD0D8F80030019A022002F80B30C5F800A009F0ECFB0BF1010B01
:202DC000E2E7002C9DD042F60404C4F2000405232360022009F0DEFB2368D807FCD4FFF7C8
:202DE0008DFD00288DD042F60803019AC4F200031B68914442F6040209F8013CC4F20002A1
:202E000013685906FCD401207CE700BF42F6A71310B5C2F2000304461970FFF78DFD38B319
:202E200040F29263C2F200031A78A2421FD042F604004FF482620021C4F20000C4F2052238
:202E40001C70016011601B78ABB1012B35D04FF4D673C1F200031B684FF400504FF4D84140
:202E60001B68C4F20000C0F2DC210122984710BDFFF778FDD4E74FF4DA74C1F200042368A2
:202E800005209B694FF4C0419847236806209B694FF4C041984723684FF4005005210622A2
:202EA000DB6CC4F200009847236808209B6B9847236809209B6B9847C9E74FF4DA74C1F211
:202EC0000004236808209B694FF4C0419847236809209B694FF4C041984723684FF400501B
:202EE00008210922DB6CC4F200009847236805209B6B9847236806209B6B9847A7E700BF2A
:202F000010B54FF4DC74C1F20004236804205B699847236804205B6B98470128F9D110BD3C
:202F2000F8B540F29861C2F2000100220023C1E900234FF4DC73C1F200031B6804205B6B3D
:202F40009847012801D0FFF7DBFF4FF4DC73C1F200031B680020DB69984742F22803C6F2A3
:202F60000803012142F228021960C4F2080213689B07FCD50C23C4F2010319684FF4E4729C
:202F800021F4807121F001011960C1F2000213680024C4F201044FF404511B682046C0F25D
:202FA0000041984704233C2108221F46C4F201013126C4F2010240F22125C4F22433012070
:202FC00027600E6015601860F8BD00BF10B442F2080342F20C04C4F20903C4F2090419684E
:202FE000226818688142FAD1C90140F2986001EB5262C2F200000023C0E900235DF8044B5E
:2030000003C8704710B542F2080342F20C04C4F20903C4F209041968226818688142FAD148
:20302000C90140F2986001EB52620023C2F20000C0E9002302F038FC00B910BDBDE81040B8
:2030400002F004BC10B509F09DFA42F20803C4F209031C6808B909F099FA204610BD00BFA5
:20306000704700BF0146012000F058B809F0C4B92DE9F04109F086FA002642F204034FF498
:203080008032C4F2090301240027C4F224364FF480714FF4C2753760C1F200051C6019606E
:2030A0001A602B6880461B683846232198472B6820461B68242198472B6802201B682521FB
:2030C00098474FF40053C4F20903196842F2080241F4E021C4F209021960176009F08CF995
:2030E00042F21C024FF4287300F50070C4F22433C4F209024FF4D8711060C1F200011C6041
:2031000034600B6814201B699847B8F1000F01D0BDE8F081BDE8F04109F038BA431E042824
:2031200018BF012B10B42CD810F001021EBF42F21803C4F20903196010F002031EBF42F244
:203140001C04C4F20904216010F004001EBF42F22004C4F2090421602AB14FF42072C4F228
:203160002432012111602BB14FF42873C4F2243301221A6028B14FF43073C4F22433012213
:203180001A605DF8044B704740F64803C2F200031868704708B5FFF769FF40F64803C2F29B
:2031A00000031860FFF72EFFA023C4F224331B68BBB98023C4F224331B6863BBC023C4F2C0
:2031C00024331B6863B14FF4307242F20403C4F224320020C4F209034FF480311060196016
:2031E00008BD42F20403C4F209034FF480721A6009F002F900F2052020F4FF7242F21C037B
:20320000C4F2090322F001021A608023C4F224331B68002BD2D04FF4207242F20403C4F297
:2032200024320020C4F2090301211060196002F017FDC3E7820741BF4FF44063C4F208036B
:2032400001221A60C30700D4704709F09FB900BF08B509F097F94FF44063C4F208031A68FD
:20326000012A03BF4EF25152C1F6CC221A60002308BF0223002814BF184643F0010008BDFE
:2032800000224FF6FF714FF44063C4F20802C0F20F01C4F20803012011601860704700BFAE
:2032A00038B5FFF7D5FF00244FF6FF750C214FF48273C4F20804C0F20F050122C4F2003381
:2032C000C4F2080125600A601A60BDE83840FFF7B1BF00BF00224FF6FF710C23C4F20802BE
:2032E000C0F20F01C4F20803012011601860704710B50446C0B200F0A5F9204610BD00BF89
:2033000038B50546002403E0285D00F09BF9013428460EF06BFD8442F6D30A2000F092F928
:2033200000F0AAF90128FBD0204638BD70B505460E46A8B10078B8B1A1B1002404E015F846
:20334000010F38B1B44205D000F07CF96B1C04F10104F4D100F090F90128FBD0204670BDFE
:203360000446F7E70C46F5E70446F3E710B44FF6C7734FF6CF74C0F20103C0F2010413F890
:20338000012FFF2A12D1A342F9D141F2F022C5F2000241B10A44002312F8014C013AC45437
:2033A00001338B42F8DB5DF8044B70474FF6C872C0F20102EDE700BF38B54FF4DC75C1F2E3
:2033C00000052B6802205B6998472B6802205B6B98474FF4DC7301280446C1F20003F4D1B6
:2033E0001B684FF40070DB69984742F22803C6F2080342F228021C60C4F2080213689B079B
:20340000FCD538BD2DE9F0434FF4E87683B0C1F20006FFF7D1FF33684FF480504FF4D87809
:20342000DB68C4F20000C1F200089847D8F8003041F238045B691520C4F20004984723686D
:2034400041F2440523F4FE6323F00203C4F2000540F2F2794FF4DA772360C1F20007C5F87A
:2034600000903B681D20DB6B984742F29003C4F202034FF000521A603A684FF0FF33009384
:203480004FF48050176CC4F200001C211D22B84733684FF480504FF4D8415E68C4F20000DF
:2034A000C0F2DC214FF4E1326023B04741F23403C4F20003142141F22C021960C4F20002A3
:2034C000116840F64C0341F010011160C2F20003196840F2013640F2011041F230020029C9
:2034E00014BF31460146C4F200021160C5F800901B6843B12368152043F050032360D8F8B5
:2035000000301B69984703B0BDE8F08308B54FF4DC73C1F200031B6802205B6B98470128D5
:2035200001BF42F26C03C4F20803186800F0010018BF002008BD00BF38B50446FFF7E6FF69
:2035400030B141F21802C4F2000213681807FCD4032C06D040F64C03C2F200031B6803B1A3
:2035600038BDFFF7D3FF38BB4FF4DC75C1F200052B684FF400701B6A9847032C41D042F231
:203580002803C6F20803012142F228021960C4F2080213689907FCD51D2000F027FA1C200E
:2035A00000F024FA4FF0FF3000F020FABDE838404FF0FF3000F01ABA4FF4E873C1F20003E2
:2035C0001B684FF48050DB68C4F2000098474FF4D873C1F200031B6815205B69984741F2AB
:2035E0003803C4F20003186841F2440220F4FE6020F00200C4F2000240F2F2711860116024
:20360000B2E72B684FF400709B6A98472B684FF400701B6B9847B2E710B508F0B3FF0446EA
:2036200040F28040C2F2000000F0BEF940F64C03C2F2000300221A6004B110BDBDE81040EE
:2036400008F0A4BF10B50446FFF760FF38B9FFF7D9FE42F24010C0F2010001F081FA4FF407
:20366000E873C1F200031B684FF480502146DB69C4F20000984710BD08B5FFF747FF30B1BC
:2036800041F21803C4F200031868C0F3C00008BD70B5FFF791FE4FF48253C4F200031A686E
:2036A00041F24403C4F2000340F2F27112F0500F196018D041F218054FF4E87640F64C0409
:2036C000C4F20005C1F20006C2F2000406E03368C4F200001B69984723682BB92B684FF4DF
:2036E0008050DB06F3D570BDC0B29847F6E700BF4EF61053CEF200031A6822F004021A60B9
:2037000030BF704770B508F03DFF02F021FA18B1BDE8704008F03ABF40F65000C2F2000054
:2037200002F05CFB0225044648B1636823B19847A84228BF2846C5B22468002CF5D1FFF72E
:2037400095FC4FF42073C4F224331B680446002B40F0B88002F0A8F803460146002840F01B
:20376000F280012D00F0CC80022DD1D12846002B00F00581FFF7D2FC40F65000C2F200008F
:2037800002F02CFB06250446002800F0AF80A368022003B198472369246825EA0305002C39
:2037A000F5D1FFF797FD6A0705F0060400F1A180002C40F0E98000F0D3F900200BF0D2FCCD
:2037C0004FF48052C4F20902116841F2080321F003011160C4F2090319684FF4DC7241F0D1
:2037E0000F011960C1F20002136839209B6998474FF482524FF484610023C4F20902C4F2FB
:2038000022311360184613600B6009F061FB062C00F0C38042F22C0542F22424C4F2080449
:20382000C4F209052B6823684FF4EC7623F003032360C1F2000633684FF48040C4F2030055
:2038400003215B6898474FF4DC73C1F200031B689B6B98472B6809F093FC4FF4C07300223F
:20386000C4F204331A6033684FF48040C4F203005B6801219847216844F20C0341F00301C3
:203880000122C4F2090321601A602B6809F0B8FC0BF030FCFFF7B6FBFFF71CFD40F65000A5
:2038A000C2F2000002F09AFA044628B1E36803B198472468002CF9D108F068FEBDE8704098
:2038C00008F064BE42F21803C4F209031B681B1A022B52D4A3F28F23002BB8BF0123BFF6F0
:2038E00039AF9D4228BF1D46EDB233E7FFF7F2FC062444F20C03C4F2090300221A6057E70F
:20390000002B4ED04FF6F873CFF6FF731B1BCB4248BF04F1080106D404F58034631A31EA10
:20392000230128BF21460220FFF7F8FB4EF61053CEF200031A6822F004021A6030BFBDE8F8
:20394000704008F023BE01F0B9FF0646FFF73EFB361A002E15DDFFF717FC4FF67153CFF673
:20396000FF731B1B00EB4621CB424FF001037FF5F8AE9D4228BF1D46F3E60023B1E7611EA7
:20398000F8E600231946F4E74FF4DC73C1F200031B6820469B6998470DE7022008F0B0FE1C
:2039A00038E704F58031BEE7014640F65000C2F2000002F015BA00BF014640F65000C2F217
:2039C000000002F061BA00BF40F6500008B5C2F2000002F0FFF94FF4C273C1F200031B6889
:2039E00003201B682021984708BD00BF411C10B5044611D04FF4DA73C1F200031B684FF424
:203A0000C0421B68002198474FF4D053A400C4F24423234300221A6010BD00BF38B5044635
:203A20000D4608F0AFFD0121A14042F2E00240F65403C4F20202C2F20003116043F8245058
:203A400000B138BDBDE8384008F0A0BD08B5084B002103F1800243F8041F9342FBD14FF465
:203A6000D873C1F200031B6810201B69984708BD50080020F8B542F2E003C4F202031D68EE
:203A800040F654071D60C2F200070024012606FA04F32B42E0B203D057F8243003B1984713
:203AA0000134202CF3D1F8BD00B585B00022412302A8029203930BF033FB042008F00EFE77
:203AC000032814D00420032108F0D8FD042008F005FE03280346F9D14FF420400093C4F279
:203AE0000C0000214FF040521C2308F075FD02A80BF078FB05B05DF804FB00BF00B583B057
:203B00000022412368468DE80C000BF009FB012008F0E4FD012803D00320012108F0AEFD13
:203B200068460BF05FFB03B05DF804FB00B583B00022412368468DE80C000BF0F1FA0120D7
:203B400008F0CCFD012805D04823C1F20003986B08F038FC68460BF045FB03B05DF804FB66
:203B600010B582B0412368460024019300940BF0D7FA0320214608F081FD012008F0AEFD60
:203B800028B14823C1F20003986B08F01BFC68460BF028FB02B010BD08B50BF067FB48B1BB
:203BA00040F65833C2F200035888022814BF0220012008BD022008BD70B582B00BF056FB1E
:203BC00060B940F65830C2F2000001A90BF056FB012818BF00200CD002B070BD40F65834C7
:203BE000C2F200046388022B08BF0120E9D102B070BDFFF73BFA4FF6C076CFF6FF7640F65E
:203C00005834361AC2F2000403E0FFF72FFAC6420AD5608840F658350228C2F20005F4D1D4
:203C2000831E58425841D7E76888F9E708B5B32994BF0A46B422014602480DF0B1FF0020B2
:203C400008BD00BFEA0B00202DE9F041044608F099FC43F204030746C4F2040344B11A68F0
:203C600040F64C33C2F200031A60BFB1BDE8F081D3F8008040F64C36C2F2000618F180444E
:203C800032684FF0000545F1000500239D4208BF944207D3C6F80080002FE7D1BDE8F04197
:203CA00008F074BCFFF7E2F940F6D403C2F20003196840F65432C2F2000201311060196039
:203CC000C6F80080E8E700BF10B588B002A8182140F602020BF04EFD40F2D443C2F20003B8
:203CE0001B689DF81A2019799DF81B4061F305028DF81A20597902A861F387128DF81A20AE
:203D00009A7940F2A84362F34704C2F20003012201A98DF81B4007938DF816200BF0AEFA77
:203D2000012818BF002001D008B010BD02A80BF0FBFA421E5042504108B010BD08B5FFF7B8
:203D4000C3FF012801D0002008BDFFF735FFC0B208BD00BF70B540F61C35C2F2000542F605
:203D6000A8162C68C2F20006002006E02379022B06D024682B68A34211D02379032BF5D11D
:203D800033780120002BF4D140F27C60C2F2000001F03EFF24682B680120A342EDD170BD67
:203DA00010B582B00BF0E0FC04460BF05FFA08B902B010BD0120C0F2014001A90BF05EFA46
:203DC0000128F5D1638803F44063002BF0D1638803F44063002BF5D0EAE700BF0B280ED06D
:203DE0000C2801D001207047D1F1010038BF0020042A18BF40F00100C0B102207047D1F1CA
:203E0000010038BF0020082A0CBF024640F00102002AF2D1094B0139A3F1080013F8012DC2
:203E2000834201F8012FF9D10020704740F61833C2F200031B680B60704700BF880B0020A4
:203E400010B584B00BF012FA08B904B010BD002442F2034302A801A902940394ADF8083024
:203E60000BF00CFA0028F0D09DF90A30803318BF2046EAD19DF80C00C0F38100411E484220
:203E80004841E2E710B582B00BF0F0F928B340F65834C2F200046388022B1ED1FFF7D0FFD4
:203EA0000028FBD1012001A9C0F201400BF0E6F902E06388022B03D10BF0D8F90028F8D1EB
:203EC000638842F2074042F20242934218BF834214BF0020012002B010BD012002B010BD60
:203EE00010B50BF0A7FC012832D0FFF7A9FF04460028FAD1FFF7C6FF0BF00AFBFFF730FE7A
:203F000040F6D803C2F20003197940F65832022908BF1C7140F66813C2F20003C2F20002EA
:203F200054801A79022A04BF00221A7140F6F813C2F200031A79022A04BF00221A7140F621
:203F40008823C2F200031A79022A04BF00221A71012010BD30B585B00BF088F9C0B140F6A5
:203F60005833C2F200035B88022B11D1002442F2034503E09DF80A3058060CD102A801A92C
:203F800002940394ADF808500BF078F90028F1D1FF2005B030BD9DF80C0005B030BD00BFDE
:203FA0000B2808B501D0012008BDD1F1010338BF0023082A0CBF1A4643F00102022002B112
:203FC00008BD0E4B083103F1080011F8012D03F8012F8342F9D10BF049F90028F0D040F642
:203FE0005833C2F200035B88022B05D1FFF74AFFFFF7E2FD032008BD002008BD7F0B00200E
:2040000010B50BF017FC01280CD00BF02FF948B140F65833C2F200035B88022B02D1FFF75B
:204020000FFF08B1002010BDFFF794FFFF28F9D0C0F3801010BD00BFF8B50BF0FBFB0128BD
:2040400042D0FFF75BFD0BF011F9002835D140F6D80240F6681040F6F81140F68823C2F23B
:204060000002C2F20000C2F20001C2F2000392F805C090F805E04F795E790125882465F399
:20408000830C65F3830E65F3830765F3830682F805C0106080F805E00160C480D480CC8094
:2040A0004F710B601A60DC805E71FFF73FFD0BF0DBFAA8420AD00020F8BD40F65833C2F220
:2040C00000035B88022BC2D10120F8BD42F6A813C2F200031878003018BF01200BF0E2FA2B
:2040E000FFF7F2FDA842E6D1BDE8F840FFF764BD70B584B0072800F2CE80DFE800F022762F
:204100002B373D70850440F65834C2F2000421770BF0ACF838B36388022B24D1FFF7B2FEB8
:20412000012814BF032400240BF0ACFA0020FFF78BFDFFF741FD01280CBF2046032004B094
:2041400070BD012900F09980002900F09080022004B070BD40F65834C2F2000461860BF077
:2041600085F80028D7D1002004B070BD40F65834C2F200042186CBE731F00703E7D140F605
:204180005834C2F20004257E42F6A81261F30005EDB2C1F34000C2F2000245F002051678DA
:2041A00060F38205607EC1F3800105F0870563F3C71563F3C7108E42607625761170A7D1F8
:2041C000228B40F64433C2F20003184603A95A800BF054F800280CBF03200020AFE731F0B6
:2041E000010308BFC8B2B2D1A9E7A1F10B030F2BADD840F65834C2F20004A37BC9B28B4228
:2042000018BFA17384D1AEE701F115031A2B9ED842F24815C0F201050C2455F8342042F2B6
:2042200048139142C0F201034FEAC4002CDD14F1FF34F2D20BF01AF8002880D005EBC4045B
:2042400022796079A17902F03F024FF0000360F3871261F34703102403A802A98DF80E2094
:204260008DF80F30ADF80C400BF008F87BE70191FFF736FE0199084661E7FFF7DDFE012846
:2042800014BF032000205AE740F2D4420344C2F200021360CEE7012051E700BF70B50C46CB
:2042A00082B069B1102800F2AF80DFE800F07E766E668F8C5D542E251DADAD1915100C00FA
:2042C000022002B070BD05230B600020F9E76FF014030B600020F4E71A230B600020F0E7CF
:2042E0000B230B600020ECE742F6AA13C2F200031B7800200B60E4E742F6A913C2F20003F2
:204300001B7800205BB20B60DBE70AF0AFFF00287CD040F65833C2F200035B88022B08BF45
:20432000002673D1002240F2034301A869460192ADF804300AF0A2FF01280CBF9DF902503E
:204340006FF07F05002E67D1256015F1800F0CBF03200020B5E740F65833C2F2000393F94C
:204360001C3000200B60ACE740F2D443C2F200031B6800201B680B60A3E740F65833C2F243
:2043800000031B8E00200B609BE740F65833C2F200035B8E00200B6093E740F65833C2F289
:2043A00000039B7B00200B608BE70AF05FFF38B140F65833C2F200035888861E7042704147
:2043C000206000207DE7002008607AE7002240F658330A60C2F200031A7E02F001020A60F5
:2043E0001B7E5D0742F6A813C2F20003187844BF42F002020A6000283FF463AF0B680020E3
:2044000043F004030B605CE701205AE7FFF714FE012804D1064685E7FFF762FD94E76FF065
:204420007F03236003204CE7F0B589B007460AF01DFF002858D040F65833C2F200035B8835
:20444000022B08BF00264FD1FEF710FE4FF6E075CFF6FF752D1A03E0FEF708FEC5424CD5FF
:20446000FFF7EEFC01280446F6D0002845D102A8182142F601420BF07DF942F6A815254BB1
:20448000FFB2C2F200058DF817702978069304949DF81430003118BF012164F30303012053
:2044A0008DF814300BF03EF902A801A90AF0E6FE38B3287800E050B3BDF80A3003F44063D8
:2044C000002BF8D0BDF80A40A4B2B4F5105418BF0124003018BF01200BF03AF9204656B1C8
:2044E000FFF7FEFC204606E0FFF7A6FD012808BF0646A9D0012009B0F0BD2EB9022009B0E9
:20450000F0BD28780124E4E7FFF7EAFCF6E7FFF7EFF8CEE7EA0B002010B5B32994BF0A46BA
:20452000B4220C46014604480DF03AFB2046BDE81040FFF779BF00BFEA0B002038B50BF049
:2045400079F9012824D00AF091FE38B9FFF774FD01280ED0FFF7C4FC012038BD40F6583357
:20456000C2F200035B88022BF0D1FFF769FC0028FBD10546FFF7EEFCFF2808BF012405D051
:2045800000F0030010F1FF3418BF0124204605B938BDFFF7A5FC204638BD00BF2DE9F04FD9
:2045A00040F6503885B0C2F2000807460E46D8F800500AF05BFE48B140F65833C2F20003C7
:2045C0005B88022B02D10020FFF73EFBFEF74EFD4FF6FA64CFF6FF74241A03E0FEF746FD35
:2045E000C44209D52B79022BF8D0032B18BF002007D005B0BDE8F08F2B79032B18BF0020A0
:20460000F7D1D8F8004040F65033227AC2F20003032A05D9257AEDB2A5F10809B14507DDEC
:20462000226800201A602071207205B0BDE8F08F04F109014A4638460DF0B2FAEB1C053563
:20464000E25C42F6A91B6059C2F2000B8BF800200390E15C039B42F6AA1A40F6D40201F09E
:204660007F01C2F2000AC2F20002B3F1404F8AF80010126810D98DE80C00FEF7F7FC9DE830
:204680000C0040F65431C2F200010968401AB0F1877F48BF02F1FF3242F65001C2F20001C3
:2046A0006FF4BF76F61809684FF0FF3747F10007761A67EBE1770024A41942EB070540F2A9
:2046C000A0662902C2F2000643F60952002341EA14612002C6E900450CF040FF42F6A81255
:2046E000C2F2000240F618331278C2F2000318604AB1D8F80030002219684846C8F80010CE
:204700001A721A7175E79BF80010042049B289B209F096FA9AF80010032009F091FAE8E788
:2047200010B50AF0A3FDC0B140F65833C2F200035B88022B11D10020FFF786FABDE81040B4
:2047400040F6243044F22172C2F20000C0F200024FF48731002300F04FBFFFF76DFC0128FA
:20476000ECD10020FFF770FAFFF7BAFBE6E700BF2DE9F84F40F2944040F6D806C2F2000694
:20478000C2F20000FFF710F90AF044FF3046002190220DF0E1FA40F6681000219022C2F2D3
:2047A00000000DF0D9FA40F6F81000219022C2F200000DF0D1FA40F6882000219022C2F237
:2047C000000040F65834C2F200040DF0C5FA002740F61C3540F65033C2F20003C2F20005CC
:2047E0002046394680221E6085E8C0000DF0B4FA0722022363762276B4F818E040F6D83338
:2048000040F64432C2F20002FF200121C2F200034FF0A60C42F6010B4FF0190A4FF0B909A6
:204820004FF06F082561A4F800B084F80EA084F80F90636184F81B8084F81CC0A07661738E
:2048400084F8371042F20206A2F802E010711680FFF7F2FB0128044618BF3C4602D02046DF
:20486000BDE8F88F42F2B010C0F201000AF090FF2046FFF7E9F940F6243044F22172C0F299
:2048800000023B46C2F200004FF4873100F0B4FE40F27C603946C2F2000001F097F920461C
:2048A000BDE8F88F08B500F0A3F880B208BD00BF00F038B938B54FF4DC75C1F200052B6821
:2048C00004205B6998472B6804205B6B98474FF4DC7301280446C1F20003F4D11B6840F280
:2048E0000140DB69984742F22803C6F2080342F228021C60C4F2080213689B07FCD538BDB5
:2049000040F6A043C2F20003186800280CBF0220012070472DE9F04103880646002B4AD0F7
:20492000B3F5847F09D140F29363C2F200031B788B4207D00120BDE8F081002303800320DC
:20494000BDE8F08140F6A047C2F200073B68B3B14FF4E673C1F200031A6848F20403C4F297
:20496000020352680220D3F8008090470024221848F10003194610463B6898473C604FF484
:20498000DC73C1F200031B6840F201409B6A984742F22803C6F20803012142F2280219601D
:2049A000C4F2080213689907FCD540F2D840C2F20000FFF701F84FF4847333800120BDE8AB
:2049C000F08100BF08B54FF4DC73C1F200031B6804205B6B9847012801BF42F23C03C4F244
:2049E00008031868C0F3400018BF002008BD00BF70B540F6A043C2F200031B68D3B140F68C
:204A0000A440C2F200000023C15C40F6A442C2F2000229B90133042BF6D10020014670BD4C
:204A200040F2A8610024C2F2000101EBC301D45403C970BDFFF7C6FF002842D048F2080357
:204A4000C4F202031A680123C8F2000313409BB949F6F073C4F2020301221A6018680028EF
:204A6000FCD102464FF4807108F00EFC4FF42A73C4F2502301221A6007F084FD48F2080289
:204A80000646C4F202021368D807FCD54FF4E673C1F200031A6848F20403C4F2020352685B
:204AA00002201C68904700222346141843F1000516B12046294670BD07F068FD204629468F
:204AC00070BDFFF7F7FEB9E738B54FF42A750024C4F2502548F20C032C60C4F202031968EF
:204AE0004FF4D87221F001011960C1F20002136831205B699847204622464FF4807108F07F
:204B0000C3FB012240F293632A60C2F2000340F2EC4022461978C2F20000BDE8384001F032
:204B200023B800BF10B540F29364C2F200042378802B00D010BD00F087FF207040F2EC40EE
:204B4000C2F200000021BDE8104001F03FB800BF08B51AB108461146FEF7E8FB002008BDFA
:204B60000FB400B583B004AB53F8041B40F2FC401A46C2F20000019300F022F803B05DF849
:204B800004EB04B0704700BF38B50C46054609E042F20C21C0F201012B6868681022103C93
:204BA000984718B9102CF3D8204604B938BD42F20C212246C0F201012B686868984738BD72
:204BC0002DE9F04F42F2642491B0C0F20104002582468946099204940295884698F80030B8
:204BE000002B00F0F080252B00F01983444602E0252B04D02C466378651C002BF8D1454572
:204C00000FD0C8EB050641463246DAF80030DAF804009847002840F08F826378029C3444E7
:204C20000294002B00F0CF806B78002B00F0CB8001350024A3F12002AC46102A1CD8DFE834
:204C400002F0181B1B151B1B1B1B1B1B1B121B0F1B1B090044F0100401359CF80130E9E7B4
:204C600044F00104F8E744F00604F5E744F00804F2E744F00204EFE7A3F13102D2B2082A5C
:204C800000F2E580A3F13002D2B2092A9CBF01354FF0000B00F2DE800BEB8B0B03EB4B0B45
:204CA000AC4615F8013BABF1300BA3F13002D2B2092AF1D92E2B00F0D2804FF0FF316C2BFA
:204CC00000F0EE80682B00F07B81782B00F28180DFE813F079007F007F007F007F007F00A3
:204CE0007F007F007F007F007F007F007F007F007F007F007F007F007F007F007F007F00C4
:204D00007F007F007F007F007F007F007F007F007F007F007F007F007F007F007F00A2027E
:204D20007F007F007F007F007F007F007F007F007F007F007F007F007F007F007F007F0083
:204D40007F007F007F007F007F007F007F007F007F007F007F009F027F007F007F009C0222
:204D6000990296027F007F007F007F007F007F007F007F007F007F007F007F007F007F000E
:204D80007F007F0093027F007F007F007F007F007F007F007F0090027F008D028A028702D3
:204DA000840281027F008A027F007F007F007F007D007E027B027F007F0078027F007502FB
:204DC0007F007F007202029811B0BDE8F08F44F4E06404F4E063B3F5806F0CF1010800F09E
:204DE000CF806DD9B3F5C06F00F0B281B3F5E06F00F0A781B3F5A06F7FF4F0AE099BBBF1FD
:204E0000010F1A6803F1040309938CBF0BF1FF3B4FF0000BE3078DF8282000F13E8350469F
:204E20005946FFF7B1FE002840F08681029CDAF800305C44DAF804000AA90122029498476E
:204E4000002840F079810BF1010B029D95E02A2B00F0C6802E2B4FF0000B7FF42EAF9CF8D2
:204E600001300CF10101A3F13002D2B2092A00F2C4800CF102024FF0000909EB890903EB92
:204E8000490913789446A3F13001C9B20929A9F1300902F10102F0D96C2B49467FF412AFFD
:204EA0009CF801306C2B03BF9CF8023044F080040CF1020C0CF1010C18BF44F0600404E7E7
:204EC000B3F5807F00F0A780B3F5407F7FF486AE099A42F24027116842F22C23C0F2010316
:204EE000043214F4804FC0F2010718BF1F46099200230A46002900F057810DF13A0011095E
:204F000002F00F0241EA0371BD5C1E090A463346014600F8015952EA0305F0D10DF13B030C
:204F20005B1A18BFDD1C00F04181782030222323AB4501F8010C01F8022C01F8033CA1F163
:204F400003063AD84FF0000B14F0010406D150465946FFF719FE002840F0EE803146DAF8BB
:204F60000030DAF804002A469847002840F0E48002980544002C40F0FB805D4402952DE61B
:204F8000099B1E6804330993002E00F04A8233781D466BB1731C18781A4601330028FAD15A
:204FA000951B8D4294BF002301230029B8BF0023002B18BF0D46AB45C4D9C5EB0B0BC3E7C3
:204FC0009CF80130682B03BF9CF8023044F020040CF1020C0CF1010C18BF44F0400474E6DB
:204FE000099B05F1010C1A680433002A0993B8BF44F0010493466B785CE62A2B18BF8C46DF
:205000007FF45BAE099A9CF80230111D09910CF1020C116853E60029ABBF24F01004012545
:205020000591059514F4005504F0E003039500F0A780402B00F0208200F2F380002B00F0E0
:20504000DE81202B40F00882099B1A1D099293F90020D317002A73F10000C0F2DA81CDE98F
:2050600006230025089504F4C053B3F5805F00F06481B3F5C05F00F07F81B3F5006F1CBF35
:205080000DF13E054FF0000900F03281059941F60803894504EA030341F20802C0F0E580F0
:2050A000934218BF002600F00A8241F60802934206EB090100F0FC8000273A46039870B1C2
:2050C000089B002B40F00E8104F00603022B00F0CD810498062B08BF012708BF02467B187D
:2050E0009B458CBFC3EB0B0B4FF0000B14F00103039304D1E10640F19E815E449B463FB15A
:205100001146DAF80030DAF804003A46984798B9102E344603D8B5E0102C40F2B38042F2B3
:205120001C21C0F20101DAF80030DAF804001022103C98470028EFD04FF0FF3011B0BDE88E
:20514000F08F099B029C1A6804331460099345E542F27021C0F20101DAF80030DAF804004A
:20516000012298470028E7D1029C0134029435E550465946FFF708FD00283FF4FEAEDBE7D1
:20518000402B00F080815CD8002B00F02D81202B40F05B81099B039D18781A1D0021089596
:2051A0000992CDE906015EE70DF13B01302301F8013C04250139B8E644F4C85409E644F413
:2051C000106406E644F4806403E644F4407400E644F48854FDE544F48134FAE544F400742A
:2051E000F7E544F40244F4E544F42454F1E544F4A064EEE544F4C134EBE544F4B244E8E5EF
:2052000044F4A134E5E544F48444E2E544F44244DFE544F4E134DCE544F4C064D9E54546BB
:2052200002E5602B00F0EB80802B40F01581099B073323F0070303F108020992D3E90023BD
:2052400008E7602B00F0D080802B40F0FE80099B039D073323F0070303F10802D3E90001E5
:2052600008950992CDE90601FDE69342C9EB01067FF41BAF002E08BF012600273A4606EBD5
:2052800009011BE7002C40F0A1802946DAF80030DAF804004A46984700287FF44DAF029B9B
:2052A000039C4B441F443E44ACB95E44029695E4DDE9062313433FF4FFAE42F2582242F2BC
:2052C000542314F4804FC0F20102C0F2010318BF1A460227F2E650465946FFF755FC002839
:2052E000E3D029E742F25C22C0F201020127F6E6DDE90601014300F0B480DDE906670DF11A
:205300003D09304639460A2200230CF027F9303289F80020304639460A2200230CF01EF98D
:2053200006460F4656EA07024D4609F1FF39E8D10DF13E03C5EB0309A8E6DDE90623134337
:2053400000F08F80DDE906230DF13D01D00840EA4370DE0802F00707334602460D4652EA38
:20536000030007F13001297005F1FF31EED10DF13E03C5EB030989E642F2402742F22C23FB
:2053800014F4804FC0F20103C0F2010718BF1F46DDE90623134364D0DDE906230DF13D01E6
:2053A000100902F00F0540EA03704FEA131E7E5D0246734652EA03000D460E7001F1FF31B9
:2053C000EED10DF13E03C5EB03095FE642F21C212246C0F20101DAF80030DAF8040098478A
:2053E00000283FF452AFA7E6039D099B08951A680021043310460993CDE9060133E6099B9D
:205400001A6804330993D317002A73F10000BFF626AE504263EB43010125CDE90601089592
:2054200021E6052942F26826C0F201068CBF002301230625BCE5504659460192FFF7A4FB01
:20544000019A00283FF45BAE76E60025002000210895CDE9060106E600200021CDE9060147
:20546000FFE54FF000090DF13E050FE642F26022C0F20102012732E6099B1A1D0992B3F9FD
:205480000020D317E6E5099B039D18881A1D002108950992CDE90601E5E5DAF80030DAF868
:2054A00004000AA90122984700287FF445AE50465946FFF769FB00283FF4C5AC3CE6012601
:2054C000DBE600BF10B50446006830B1002100F07DFB54F8040F0028F8D110BDF8B5038816
:2054E00006461546EBB14A2B17D1882946D140F6A840C2F2000000F071FC044648B1031DB2
:205500009D4202D126E09D4224D02468231D002CF9D14A2333800120F8BD0023038003207F
:20552000F8BD40F6A840C2F2000000F057FC044630B1201DA16800F08FF92468002CF8D137
:2055400042F6AB13C2F2000301221A704A2333800120F8BD40F6A840C2F20000214600F0D2
:2055600093FC40F6B4456269A369C2F200052F682A600BB1E06998472F60CAE70120F8BDC2
:2055800010B542F6AB1340F6A8400024C2F20003C2F200001C7000F01DFC40F20450214621
:2055A000C2F20000BDE8104000F010BB70B542F6AB14C2F20004049D267882610446C36123
:2055C00045614EB9A16040F6A8402146C2F20000BDE8704000F004BC40F6B445C2F20005F7
:2055E0002E6840F20453C2F2000304302B6000F033F92E60E7E700BF10B540F6B444C2F238
:205600000004246882B00094FFF7D0FF02B010BD70B542F6AB13C2F200031B7804466BB125
:2056200040F6B445C2F200052E6840F20453C2F2000304302B6000F019F92E6040F6A8403F
:205640002146C2F20000BDE8704000F0C9BB00BF70B542F6AB13C2F200031B7804466BB1DC
:2056600040F6B445C2F200052E6840F20453C2F2000304302B6000F003F92E6040F6A84015
:205680002146C2F20000BDE8704000F0A9BB00BF10B542F6AB13C2F200031B78044653B92C
:2056A000C360036140F6A8402146C2F20000BDE8104000F0E9BB043000F00CF9F2E700BFE0
:2056C000704700BF10B540F6AC44C2F200042368CBB1FDF77BFC236859681A689B680A4420
:2056E000121A4BB193E812009B682144091A8A4228BF0A46002BF5D140F6B0430244C2F253
:2057000000031A6010BD40F6B042C2F20002136010BD00BF2DE9F041038805467BB1592B95
:2057200008D1872915D0822926D059232B800120BDE8F081002303800320BDE8F08140F6E7
:20574000AC42C2F20002136059232B800120BDE8F08140F6AC47C2F200073B68002BE4D06E
:20576000D9688A4203D02BE0D9688A4227D19B68002BF9D13B60D8E740F6AC47C2F2000703
:205780004FF000083C68002CCFD0002604E0A3682646002BC9D01C46204600F08BFA0028A9
:2057A000F5D0E0688821224600F0DEF9034640F21450C2F2000073B100F02AFAE7E73B60D0
:2057C00099680029B1D0C86882420BBF89680B4699608968F5E7E360A3682EB1B360C4F85C
:2057E0000880FFF76FFFCDE73B60F8E710B5044640F21450C2F2000000F00AFA40F6AC421E
:20580000E368C2F20002116853B149B18C4218BF0B4602D110E09C420ED09B68002BFAD1A2
:2058200040F6B443C2F200031B68A160E3601460BDE81040FFF746BF40F6B443C2F2000375
:205840001B68E360BDE81040FFF73CBF40F21450C2F2000000F0DCB910B5044600F016FABE
:205860002046BDE81040FFF7C1BF00BF10B5044600F014FA2046BDE81040FFF7B7BF00BF05
:2058800010B5044600F010FA2046BDE81040FFF7ADBF00BFC068D0F1010038BF00207047CB
:2058A00005C81044704700BF40F6AC43C2F200031868003018BF0120704700BF40F6AC4332
:2058C000C2F20003186820B140F6B043C2F200031868704710B540F6AC43C2F200031A6886
:2058E0000446904217D04AB1936883420AD02BB19A68A24207D01346002BF9D10023A36003
:20590000E36010BD1346A2689A60FFF7DBFE0023A360E36010BD82681A60FFF7D3FEEDE716
:205920002DE9F84340F6B848C2F20008D8F8004040F6B446221CC2F2000618BF012284422C
:2059400018BF002C054689463768234604D01B689D4218BF002BFAD163B3AB7BE3B100232C
:20596000AB736AB1A54220464FF087012A4604D0A37BDB0701D500F029F82468002CF1D135
:20598000AB683BB14D4505D0356005F10C00832100229847D8F80040A54212D04CB1236804
:2059A000AB4209D02BB11A68AA4206D01346002BF9D13760BDE8F88323462A681A603760F0
:2059C000F8E72B683760C8F80030F3E770B5856804460E468DB140F6B443C2F20003022000
:2059E000A0731C6004F10C00A8470238012805D9832E1CBF0123A37300D070BD2046214657
:205A0000BDE87040FFF78CBF70B540F6B843C2F200031C6842F6AE13C2F2000300261E70FB
:205A200084B1012501E0246864B1E37B002BFAD0A573E673204682210022FFF7C7FF246852
:205A4000002CF2D170BD00BF42F6AF13C2F200031878421C1A70704770B442F6AD1040F63C
:205A6000B84140F6B442002342F6AF1542F6AC14C2F20000C2F20001C2F20002C2F2000512
:205A80008A26C2F2000403700B6013602E70237070BC70472DE9F04142F6AE14C2F2000440
:205AA00023780BB1FFF7B0FF42F6AD15C2F20005287818B342F6AC12C2F20002117840F661
:205AC000BC4301EB410C4FEA8C0CC2F2000303EB0C0701380131BE68C0B201F01F01287059
:205AE000117013F80C807F68B6B1B8F1810F04BF0123B37306D0B37BDA0703D42378184447
:205B0000BDE8F081304641463A46FFF75FFF287823781844BDE8F08140F6B843C2F2000309
:205B20001E6836B9EAE7B37BD9070AD43668002EEDD02378002BF6D0FFF766FFB37BD907B5
:205B4000F4D5304641463A46FFF740FFEEE700BF42F6AE1242F6AD13C2F20003C2F20002D9
:205B60001278187810447047F0B442F6AD13C2F200031D78202D08BF012315D042F6AC1403
:205B8000C2F20004277840F6BC442F4407F01F0707EB4707BF00C2F20004E6190135E155C6
:205BA0001D7072600023B0601846F0BC704700BF38B5837B40F6B444C2F20004DB07256893
:205BC00001D5FFF703FF256038BD00BF70B440F6B845C2F200052E680446864218BF002E01
:205BE000334604D01B689C4218BF002BFAD1A3420BD0012000232660A073A3810A462046B3
:205C00002C60812170BCFFF7D3BF70BC704700BF60B1837B013BDBB2012B9FBF42F6AE13A5
:205C20000122C2F200031A7098BFC273704700BFFDF716BA38B540F63C62C2F20002044679
:205C4000156804986360A060216015B11460002038BD08461460FDF705FA002038BD00BF0F
:205C600010B540F63C64C2F20004236863B1184600225B68816822609847236823B11868C6
:205C8000BDE81040FDF7EEB910BD00BF10B541600446FDF79BF9206010BD00BF90E80C0020
:205CA00013440360704700BF10B50446FDF78EF9206010BD10B50446FDF788F994E80C00D1
:205CC000C2F10102104483422CBF0020012010BDF8B504880546672C0ED0792C04D064B377
:205CE000002303800320F8BD852933D140F64874C2F200040023236040F6487440F6C866CE
:205D0000C2F20004C2F2000607E00A2824D022687E2ADEBF511CB054196040F6C060C2F241
:205D2000000000F0E7F840F64873421CC2F20003EBD167232B800120F8BDFFF785FE43F219
:205D40005F4240F64873C2F20002C2F2000310701C60D1E70120F8BD40F64874C2F2000410
:205D6000276840F6C86343F25F41C2F200030026C2F200011A4607F1010E09783046DE553B
:205D8000C4F800E0FFF7F0FE40F6B443C2F20003324618688521FFF7E7FE0028AAD17923E7
:205DA0002B800120F8BD00BF08B540F6C06040F64061C2F20000C2F20001802200F092F834
:205DC000BDE8084040F22450C2F200000021FFF7FDBE00BF00230360704700BF00687047D0
:205DE00010B404685CB1A14225D023680BB906E01346994210D01A681C46002AF8D100234B
:205E00000B6002680AB911E01A461368002BFBD111605DF8044B704764B10A682260002230
:205E20001A6000230B600268002AEED101605DF8044B70470C46226823460260EFE700BF0F
:205E400030B4056865B1A94219D02B6843B12C4600E01346994207D01A681C46002AF8D14C
:205E60000D60016030BC704744B10A68226000221A6005680D60016030BC70470D462A6869
:205E80002B460260F3E700BF10B404685CB18C4215D023680BB906E01346994206D01A68E5
:205EA0001C46002AF8D15DF8044B704734B11A68226000221A605DF8044B70470C46226876
:205EC00023460260F5E700BF03682BB100201B680130002BFBD170471846704700B1006865
:205EE000704700BF0023013A0160027143718371704700BF10B40346827940791979801AEF
:205F000008421FBF1868541C2140805C14BF99714FF0FF305DF8044B704700BF08B546F6CE
:205F20008520C0F2000003F087FC41F2C803C2F2000300220120FD21187099705A70DA70D9
:205F400008BD00BF30B413780C7A83F002039C4218D00B891BB94B89B3F57F4F33D00123B1
:205F600003FA00F040F6547351F8084FC2F200031A68496802F108051D6014605160C0B299
:205F800030BC70474C7A53789C42E2D18C7A93789C42DED1CC7AD3789C42DAD10C7B137971
:205FA0009C42D6D14C7B53799C42D2D18C7B93799C42CED1D379CA7B9A42CAD1032303FA8D
:205FC00000F0C0B2DCE78B89FE2BC8D1022303FA00F040F65473C2F200031A68C989C0B2BA
:205FE00022F8021B1A60CBE710B542F6EC14C2F20004A179022007F023FEA379112B0FD0FE
:20600000062B0DD03A2B05BF94F8281094F82930002143EA01210120BDE8104007F010BE55
:20602000238D618D01209942A8BF1946BDE8104007F006BE10B541F2C804C2F20004237839
:20604000012B01D0002010BD01460822A01C0BF073FD0028F6D1204610BD00BF08B50146D9
:20606000102007F0FDFD42F27833C0F2010346F285009B68C0F2000000219847BDE808400B
:20608000FDF728B910B508460C46114602F00CFF41F22C63C2F200031B6813B19B68204649
:2060A000984741F2D803C2F200031C6010BD00BF2DE9F843002341F2DC0607461A46C2F24A
:2060C0000006F418A57841F2DC047133C2F2000435B101320C2AF4D14FF0FF30BDE8F88380
:2060E000C2EBC20802EB081804EB0805697007F0F1FC42F6B116C2F20006327841F2D403F6
:20610000C2F200031B68801AA87004F8087003EB020907F0DFFC33784946C21AE81C0BF03F
:206120003FFDA878BDE8F8832DE9F04F814685B08B46002A3AD141F2DC066D4D1446944689
:20614000C2F200064FF0FF084FF0FF3A40F24C5135F8063C002B3FD1BAF1FF3F57D0013409
:20616000022C05F1B805F3D1BAF1FF3F2DD0B82303FB0AFA40F65874C2F2000404EB0A05FF
:20618000A5F812B0A5F810900F2007F075FD0146284607F097F80AF1180020444021FFF7C2
:2061A00075FD4FFA88F005B0BDE8F08F40F65875C2F200052E4600241746338A4B452FD0D6
:2061C0000134022C06F1B806F7D14FF0FF084FFA88F005B0BDE8F08F28468DE80210FFF714
:2061E00069FD9DE802100028B6D025F806CCE7B20023F218907820B1985DB84208BF82F836
:2062000002C071338B42F4D1BAF1FF3FA7D135F8063C002BA3D15FFA84F84FFA88FA9EE7F2
:20622000738A002BCCD00F2007F026FD0146304607F04EF80028C3D05FFA84F840463946C2
:206240000197FFF735FF0028019A0CDB0028BCDDB82303FB0454A38A1844A0824FFA88F074
:2062600005B0BDE8F08FDFF888A0002341F2DC07CDF80C800293A046C2F20007544640F2BA
:206280004C5B9A46914634F8063CF3B1D0451CD02046FFF70FFDC0B15FFA8AF2B82606FB00
:2062A00002514FF00000002348821846F9188E782EB1DE5D964202BF00268E70013071333E
:2062C0005B45F3D1029B034402930AF1010ABAF1020F04F1B804D6D1029E4446DDF80C803C
:2062E000002E3FF472AF49464046FFF7E1FEADE7700F00202DE9F84314090F2C02F00F0550
:206300000ABF1026264634460F2D08BF102507469946A8467CBB08EB06020F2A03DD55B9ED
:206320001CBBBDE8F883B819C2F1100200210BF013FD002DF4D040F65476C2F20006D6F82B
:206340000090C8F110002A46384449460BF028FC0A2C98BF022D04BFFF22FE234D4404BF35
:20636000FA723B733560BDE8F88338464946BDE8F84302F07FBC22460BF012FCCBE700BF52
:206380002DE9F04F0F208BB042F6B01642F6B11407F072FC4FF00008C2F20006C2F2000425
:2063A00007F020F886F8008084F8008007F07AFB41F2D405C2F200052860042007F048FCBC
:2063C0002B6840F65072197893F801C001F0F80700B2C2F20002C02F10604CEA012100F056
:2063E0009E80E02F40F08780227893F804909F78D878C1F30A0B531D59464A4640EA072060
:206400002370FFF791FE421C029000F0858040F65873C2F20003B82202FB0033B3F814A05E
:20642000CDF80C80DA454FF00108039F34BF4FF0000A4FF0010ACDF8108007F04BFB23784F
:2064400042F6B1148342C2F2000465D807F042FB3378217803EBC909461A41F22862B1443B
:20646000C2F20002B9F57A7F166055D83FB12A68F8181144324601930BF092FB019BBBF159
:20648000000F12D0039961B1029840F6587241B2C2F20002B82000FB0122991989B2918224
:2064A0001184BAF1000F40F01C81049880F001024AEA0202D2072FD518EA0A0F14BF42F676
:2064C000D81342F6D81241F22C6412BFC2F200039B19C2F20002C2F2000414BFA3F800B024
:2064E0001380236823B1FFF77FFD23685B68984703F0C0F910E042F6EC17CDF80880CDF822
:206500000C80C346C2F200072278995C01F0E00060284ED0412922D00BB0BDE8F08F94F85E
:2065200000E09F78D878C1F30A0B0EF104035946424640EA07202370FFF7F6FD411C029062
:20654000EAD040F65873C2F20003B82707FB00374FF001082237CDF80C802B68D4E7511C04
:20656000C9B20B4403F120003946D3F800A0D3F80490D3F808C0D3F80CE010338342C1F8E9
:2065800000A0C1F80490C1F808C0C1F80CE001F11001EAD118685B6808604B60337803998D
:2065A000293228334FF0000A22703370D146049143E7981890F801A002324FFA8AF040F6CB
:2065C000547913440028C2F20009C9F80030BCBF0133C9F80030CB06049060D501F008038B
:2065E00003F0FF00002B40F08A81D9F800301A78C2F3830242F060023A7013F8012B788009
:20660000900800F0300040EA8212C9F800307A7001F0040303F0FF02059233B9D9F80030B9
:2066200013F8012BBA71C9F8003011F0030115BF42F2A423D9F80030C0F2010313F8012B45
:2066400015BF5B5CC9F80030FB71FA711AF0400FCAF3011300F01D8104980028BBBF217858
:206660002A6800215218B8BF917803F0FF02B8BF0909002B00F0868041F2C802C2F200022C
:206680001078012800F0C68140F64C7303990022C2F2000392461A6091460491CDE6080728
:2066A00000F11781D9F800301A4632F8010F9278A7F80100FA7013F8040B97F801E082088E
:2066C0000EF00F0C02F0300E4EEA801002F00F0242F0600240EA0C00C9F800303A70787059
:2066E00096E70299B8224FB202FB07F240F65879C2F2000909EB020442F6EC10228CA4F875
:2067000014B004F12201C2F200000193C04C0BF047FA019B42F6EC1CCDF80C9004F24C5539
:20672000C146C2F2000C984614F8012C22B114F8031C8F4200F0E9807134AC42F4D1434672
:20674000C846DDF80C90FFB2B82202FB079941F2DC0402980021C2F20004A9F812100A46F9
:206760005FFA80FC8946274640F24C55A118887820B1D05D604508BF81F802907132AA4278
:20678000F4D192E607F108010692079142F2C022C0F20102D25C0F20019207F06DFA0699D3
:2067A0000346019A0798FFF7A5FD0AF0080303F0FF010AF00302002B49D01AF0040F20D175
:2067C00042F2A023C0F201031988531EDBB2012B98BFD9F80030ADF8241098BF13F8011B92
:2067E00007F1180098BFC9F8003042F2BC23C0F2010398BF8DF825109A5C09A90023FFF7A6
:2068000079FD3378059803F128023270D9F8002028B1117801F0F801F02900F09E802B6803
:2068200042F6B119D21A2270C2F20009BBF1000F43D0ABF128031A127B713A71BB79112B53
:206840006FD0039B4FF0000AD1460493F5E51AF0040F6ED0049B41F2C80A002BBCBF21784C
:206860002B68C2F2000ABCBF5B1899789AF80030B8BF01F00F01012B00F0DB8040F64C7322
:206880000022C2F2000392461A609146039A0492D3E542F2A822C0F20102D25C0F20019268
:2068A00007F0EAF942F2AC210346019AC0F2010107F10800FFF71EFD77E707F00BF999F86A
:2068C00000203378801A0344283B1A127B713A71B4E7D9F80000602203463A7013F8012BCE
:2068E00003304FEA920E0EF0300E02F00F024EEA02027A701B88C9F800007B8088E6002337
:2069000060223A707B707B8082E614F8020C21460CEBC000CDF804C00BF042F9DDF804C06D
