:020000040000FA
:20000000005000206D100000651000004910000069100000691000006910000000000000BA
:200020000000000000000000000000006910000069100000000000006910000069100000DC
:20004000093800006910000015DE000069100000A52F00002534000069100000691000005B
:200060006910000041DE000069100000691000006910000069100000691000006910000012
:20008000691000006910000069100000691000006910000069100000691000006910000098
:2000A000691000006910000069100000691000006910000069100000691000006910000078
:2000C000691000005D480000F0B540F2C473C2F200031B6883B09B0703D44FF0004003B0DC
:2000E000F0BD0020452102F099FD0DF10601012002220DF0A9F820B901A802210DF0CAF8F9
:20010000EBE70DF10601002002220DF09DF80028F2D0BDF806305BBA9CB2200BADF80430F6
:2001200010F0B8FA0FF042FE0646C4F30B000F4610F0C0FA0CA3D3E9002304460D46304610
:20014000394610F01DFB02460B462046294610F017FB10F0AFFD0021C4F2C82110F008FF15
:2001600011F056F803B0F0BD7B14AE47E17A843F08B540F2E873C2F200031B68032B3CD16F
:20018000431E012B39D842F68C1242F68E13C2F20002C2F20003012812881B8818D01846F9
:2001A00010F078FA00230022C3F6F06310F0E8FA00230022C4F2590310F0E2FA10F07AFDF0
:2001C0000021C4F2C82110F0D3FE11F021F808BD10B210F06FFA00230022C3F6F06310F033
:2001E000CFFA07A3D3E9002310F0CAFA00230022C4F2440310F010F9E0E74FF0004008BD93
:200200000000000000A064402DE9F04140F61803C2F200031B6806465BB140F2F073C2F227
:200220000003002210F038051A609A8006D141074FD14FF000452846BDE8F08102F01EFE73
:2002400042F6D414C2F20004206009E002F016FE4FF6F6732268CFF6FF739B1AC34203D556
:2002600001F074FF0028F1D042F6A213C2F200031B78D807DDD540F2F07401206821C2F275
:20028000000402F0CBFC21463B2006220CF0DCFF05460020014602F0C1FC002D00F0898059
:2002A00027786578A078E17822796379202E67702570E070A1706271237170D0102E73D097
:2002C000082E18BF0025B6D1B4F9040001F044FE5AE002F0D3FD42F6D414C2F2000420602D
:2002E00009E002F0CBFD4FF6F6732268CFF6FF739B1AC34203D501F029FF0028F1D042F620
:20030000A213C2F200031B78DA0792D540F2F07401206821C2F2000402F080FC2146432066
:2003200006220CF091FF0746002847D094F8008094F801C094F802E0E778227963790020C0
:20034000014684F8018084F800C084F803E0A7706271237102F062FC042E0AD0022E08BFED
:20036000B4F9020007D0012E7FF465AFB4F9040001E0B4F9000010F09DF917A3D3E90023D3
:2003800010F028FB10F096FC0021C4F2C82110F0EFFD10F03DFF05462846BDE8F081B4F944
:2003A000000001F0D9FDEFE7B4F9020001F0D4FDEAE7204606210CF06DFF3AE720460621BB
:2003C0000CF068FF3846394602F028FC4FF0004531E700BFAFF3008000000000006060402A
:2003E0002DE9F04F9A4694462AF000488146064658EA0C0093B014461D468B460F4600F015
:200400008A80002221F00040C7F6F0729042029012DDDDF8088008F1404C0CF5801C5CEA28
:20042000060640F082804FF0000BC3F6F07B3046594613B0BDE8F08F14BF00230123B9F150
:20044000000F0CBF002103F001010029E1D19045DFDC14BF00210121BCF1000F0CBF002282
:2004600001F00102002AD4D1002F67DB0492A4B9002940F088800022C3F6F072904500F0F2
:20048000B980B5F1804F04BF484659463CD00022C3F6E072954200F0FF834846594601937B
:2004A000CDF800C00FF0E0FE019BDDF800C056B9029A002A08BF43F00103002B7CD1C3F6A5
:2004C000F0739A4278D0FB0F049F013B1F430A9300F08B800023C4F2E013984540F3A480B2
:2004E0000023C4F2F033984540F346844FF6FF73DDF80880C3F6EF73984540F3D783002D60
:2005000057DD47A1D1E9000102460B4610F038F906468B468BE74FF0000B0646C3F6F07BF1
:200520003046594613B0BDE8F08F41F68850C0F2010013B0BDE8F04F0FF0CABE4FF6FF701B
:20054000C4F23F30804565DC4FF6FF70C3F6EF7080458BDD4FEA285240F21340824240F348
:200560008C84C2F5866203322CFA02F000FA02F2624502BF00F00100C0F1020004903FF4BE
:2005800076AF002272E7DDF8088008F1404303F580131E433FF447AF4FF6FF73C3F6EF73FB
:2005A000984540F3B683002DA4BF6646D346BFF63EAF0026B3463AE7002DC0F25484002FD5
:2005C000A6DA029E049F06F1404303F580131F4340F06B8402460B460FF01EFF02460B4684
:2005E00010F0F8F906468B4621E7484659464A465B46F1E7002DA8BF4E46BFF618AF0021EA
:200600005B464A460020C3F6F07110F0E3F906468B460CE702200490002C3FF429AF3CE773
:200620009C7500883CE4377E029FB7F5801FA8BF00250CDA00230022C4F24033CDF800C0FB
:2006400010F09EF8DDF800C002916FF03405DDF8088049F68E024FEA2854C8F31303C0F2E0
:200660000302A4F2FF3693422E4443F07F54D8BF0025119644F44014D8BFAB4610DD4BF2BC
:200680007962C0F20B029342C1BF002501361196A4F58014CEBFAB464FF480254FF0010B8A
:2006A00041F61031024623464FEACB0BC0F20101CDE9082301EB0B03D3E90067DDE9080181
:2006C00032463B46CDF800C0CDE90C670FF0A4FEDDE90C2306460F46DDE908010FF09EFED2
:2006E0000B4600210246C3F6F071002010F072F9CDE90E01DDE90E233046394610F040F8B2
:20070000CDE90601DDE906896110002041F00051CDE9028901F500210290DDE902896B18F6
:2007200000224046494614461D4610F029F802460B46304639460FF06FFEDDE90C23064669
:200740000F46204629460FF067FE02460B46DDE908010FF061FE02460B464046494610F097
:200760000FF802460B46304639460FF055FEDDE90E2310F005F806460F46DDE906010246E8
:200780000B460FF0FDFF02460B4604460D460FF0F7FF7FA3D3E90023CDE90801204629464D
:2007A0000FF0EEFF7CA3D3E900230FF037FE22462B460FF0E5FF7AA3D3E900230FF02EFE38
:2007C00022462B460FF0DCFF77A3D3E900230FF025FE22462B460FF0D3FF75A3D3E90023AA
:2007E0000FF01CFE22462B460FF0CAFF72A3D3E900230FF013FE02460B46DDE908010FF0D4
:20080000BFFFDDE9062304460D46404649460FF005FE32463B460FF0B3FF22462B460FF0F5
:20082000FDFD4246CDE908014B46404649460FF0A7FF00230022C4F20803CDE90C010FF064
:20084000EDFDDDE908230FF0E9FD02980D46044622462B46404649460FF092FF22468046F5
:2008600089462B46304639460FF08AFF002306460F46204629460022C4F208030FF0CCFD77
:20088000DDE90C230FF0C8FD02460B46DDE908010FF0C2FDDDE906230FF072FF02460B4681
:2008A000304639460FF0BAFD06460F4632463B46404649460FF0B2FD41A3D3E900230298D3
:2008C0000D4604460FF05CFF3FA3D3E90023CDE90801204629460FF053FF4246CDE9060136
:2008E0004B46204629460FF097FD02460B46304639460FF091FD36A3D3E900230FF040FFEE
:2009000002460B46DDE906010FF088FD41F60033C0F201035B44D3E900230FF07FFD80460E
:20092000119889460FF0C6FE41F6F023C0F201035B44D3E9006704460D464246DDE90801C6
:200940004B46CDE906670FF069FDDDE906230FF065FD22462B460FF061FD029822462B4685
:2009600006460F460FF058FDDDE906230FF054FDDDE908230FF050FD02460B464046494658
:200980000FF04AFDCDE90601DDF800C024E000BFEF4E454A287ECA3F65DBC9934A86CD3F09
:2009A00001411DA96074D13F4D268F515555D53FFFAB6FDBB66DDB3F033333333333E33FE5
:2009C000000000E009C7EE3FF5015B14E02F3EBEFD033ADC09C7EE3FDDF81080DDF82890C5
:2009E00008F1FF3353EA090962464FF0000953464FF000000CBFCBF6F079C3F6F079CDE9E8
:200A000002234FF000080290CDE90A89DDE902896046514642464B46CDF800C00FF0FCFC6C
:200A20003B4632460FF0ACFEDDE90623DDF800C004460D46604651460FF0A2FE02460B467E
:200A4000204629460FF0EAFC3B46CDE904013246404649460FF094FE04460D462B46DDE9AE
:200A6000040122460FF0DAFC4FF6FF73C4F28F03994282468B460F4640F31C8101F13F4328
:200A800003F5E003034340F01A82A7A3D3E90023DDE904010FF0C2FC2246804689462B464A
:200AA000504659460FF0B8FC02460B464046494610F0F6F8D846002840F015824FEA2853F1
:200AC000A3F2FE334FF4801119413944C1F30A534FF6FF72A3F2FF36C0F20F02C3F58260B7
:200AE000C1F3130A42FA06F603304AF4801A4AFA00FA21EA0603002F4FF00002204629464B
:200B0000B8BFCAF1000A0FF087FC04460D462246DDE904012B460FF081FC4FEA0A5B002696
:200B200083A3D3E9002330460F460FF029FE2246804689462B46304639460FF06DFC0246AC
:200B40000B46DDE904010FF067FC7BA3D3E900230FF016FE7AA3D3E9002304460D463046F8
:200B600039460FF00DFE02460B46204629460FF055FC04460D4622462B46404649460FF0A4
:200B80004DFC42464B4606460F460FF045FC02460B46204629460FF03FFC3246804689465D
:200BA0003B46304639460FF0EBFD67A3D3E9002304460D460FF0E4FD65A3D3E900230FF08C
:200BC0002BFC22462B460FF0DBFD63A3D3E900230FF024FC22462B460FF0D2FD60A3D3E9D4
:200BE00000230FF019FC22462B460FF0C9FD5EA3D3E900230FF012FC22462B460FF0C0FD9E
:200C000002460B46304639460FF006FC04460D4622462B46304639460FF0B2FD0022CDE954
:200C200002014FF08043204629460FF0F5FB02460B46DDE902010FF0CDFE424604460D469A
:200C40004B46304639460FF09BFD42464B460FF0E5FB02460B46204629460FF0DDFB3246C2
:200C60003B460FF0D9FB0B4600210246C3F6F07100200FF0D1FB8B44BBF5801F0B460246AA
:200C8000A8BF5B46C0F23B81DDE90A010FF078FD06468B46FFF7CBBB002FFFF6FEAB4846A5
:200CA000594613B0BDE8F04F0FF01EBA002DBFF680AC26E44CF6FF33C4F2900321F00048E9
:200CC000984540F3E88001F17D5303F53C1303F55053034340F00D8122462B460FF09CFB85
:200CE00002460B46DDE904010FF0C6FF00283FF4E5AEDDE90A011EA3D3E900230FF040FD31
:200D00001BA3D3E900230FF03BFD06468B46FFF78EBB002DBCBF66460AF1004BBFF649AC5F
:200D2000FFF785BBAFF30080FE822B654715973C00000000432EE63FEF39FAFE422EE63FD1
:200D4000396CA80C615C20BED0A4BE726937663EF16BD2C541BDBB3E2CDE25AF6A56113FDF
:200D600093BDBE166CC1663F3E5555555555C53F59F3F8C21F6EA5014FF6FE73DDF8089036
:200D8000C3F6EF73994591DD0023029EC3F6F0739E423FF7B4AB00230022C3F6F073CDF872
:200DA00000C00FF039FB5CA3D3E9002304460D460FF0E6FC5AA3D3E900238046894620460D
:200DC00029460FF0DDFC2246CDE902012B46204629460FF0D5FC002306460F4620462946FC
:200DE0000022C3F6D0730FF0CBFC02460B464EA1D1E900010FF010FB22462B460FF0C0FC2E
:200E00000B4600210246C3F6E07100200FF004FB02460B46304639460FF0B2FC44A3D3E912
:200E200000230FF0ADFC02460B46DDE902010FF0F3FA04460D4622462B46404649460FF00F
:200E4000EDFA002042464B4606460F460FF0E4FA02460B46204629460FF0DEFADDF800C01A
:200E6000CDE90601B8E50B4600210246C3F6F07100200FF0AFFDFFF7A2BB84BBC2F582624C
:200E8000033248FA02F000FA02F242453DD000220492FFF7EDBA0023C3F6E07398453FF7D0
:200EA0000DAEDDF808B0DA4639E6049E012E08BF01F1004B06467FF42CABFFF7B8BA1EA317
:200EC000D3E90023DDE90A010FF05AFC1AA3D3E900230FF055FC06468B46FFF7A8BA00208C
:200EE0000490FFF7DABADDE90A0113A3D3E90023EAE713A3D3E90023DDE90A01FEE65246BB
:200F000000F022F802460B46BEE600F00100C0F102000490FFF7ACBA000000604715F73F04
:200F200044DF5DF80BAE543E555555555555D53FFE822B654715F73F9C7500883CE4377ECC
:200F400059F3F8C21F6EA501C1F30A532DE9F041904606460F460A4643BB21F000430343A1
:200F600039D00023C4F2503300220FF009FC43F6B043CFF6FF73984506460F463BDBC1F33B
:200F80000A53363B0A46434440F2FE718B4216DD29A1D1E9000132463B460FF02FFA26A3DC
:200FA000D3E900230FF0ECFBBDE8F08140F2FF74A34227D0434440F2FE718B42E8DC002BF1
:200FC0000BDD22F0FF4222F4E00242EA035730463946BDE8F081BDE8F08113F1350F17DAFE
:200FE0004CF250339845D3DC15A1D1E9000132463B460FF003FA12A3D3E900230FF0C0FBF0
:20100000BDE8F08102460B460FF008FABDE8F08122F0FF4222F4E002363342EA03570023AD
:20102000304639460022C3F690430FF0A9FBBDE8F08100BFAFF300809C7500883CE4377E05
:2010400059F3F8C21F6EA5014EF62853CEF200031A68B2F5806F03D01B689B0500D4FEE70E
:20106000704700BFFEE700BFFEE700BF10B509F0FDFF40F2000140F29663C2F20001C2F231
:20108000000399420ED2CC431C4424F0030441F650600434C0F201000023C258CA500433A8
:2010A000A342FAD1064807494FF000028842B8BF40F8042BFADB00F0EDF9FFF7C5FF10BDC7
:2010C000980600206234002008B541F68C33C0F201039B6801218120984708BD08B541F6D5
:2010E0009C33C0F201039B6801218120984708BD030910B504460F2B0CD8DFE803F0089571
:2011000085898D9165696D7175797D81999D302002F062F904F00F04013C0E2C0ED8DFE80D
:2011200004F012171C21262B30353A3F44494E088F004520BDE8104002F04EB93020BDE86C
:20114000104002F049B93120BDE8104002F044B93220BDE8104002F03FB93320BDE810409D
:2011600002F03AB93420BDE8104002F035B93520BDE8104002F030B93620BDE8104002F0FF
:201180002BB93720BDE8104002F026B93820BDE8104002F021B93920BDE8104002F01CB920
:2011A0004120BDE8104002F017B94220BDE8104002F012B94320BDE8104002F00DB944208F
:2011C000BDE8104002F008B9362002F005F9A1E7372002F001F99DE7382002F0FDF899E713
:2011E000392002F0F9F895E7412002F0F5F891E7422002F0F1F88DE7432002F0EDF889E724
:20120000442002F0E9F885E7322002F0E5F881E7332002F0E1F87DE7342002F0DDF879E7A5
:20122000352002F0D9F875E7312002F0D5F871E7452002F0D1F86DE7462002F0CDF869E7F1
:201240004620BDE8104002F0C7B800BF70B5038882B00446B3B1B3F5A07F0ED1882929D023
:2012600043F25E43C2F200031B788B4232D04FF4A0730120238002B070BD002303800320BD
:2012800002B070BD40F21470C2F20000802104F0ADF941F69C33C0F201039B680121812048
:2012A000984741F68C33C0F201039B68012181209847DCE740F21473C2F200039A42D6D148
:2012C0000220019200F090FA019A8021104604F08DF9CCE741F6D433C0F201039A426ED012
:2012E00041F68C33C0F201039A4242D041F69C33C0F201039A42BAD155680120A847B0F1C3
:20130000004F11D048F21F53C5F2EB1383FB0023C217C2EB6312642303FB120040F20C7358
:20132000C2F2000358801A800220A847B0F1004F11D048F21F53C5F2EB1383FB0023C217C7
:20134000C2EB6312642303FB120040F20C73C2F20003D8809A8040F2C86041F2DD02C2F2DA
:201360000000C0F200024FF4A061002304F00EF87DE7536800209847B0F1004F11D048F22F
:201380001F53C5F2EB1383FB0023C217C2EB6312642303FB120040F20873C2F200035880B7
:2013A0001A8040F2E86041F2C902C2F20000C0F200024FF4A061002303F0E8FF57E740F202
:2013C0000876C2F20006308840F20C75000AFFF78FFE3078FFF78CFE2C2001F0FDFFB07854
:2013E000C2F20005FFF784FE3B2001F0F5FF2888000AFFF77DFE2878FFF77AFE2C2001F006
:20140000EBFFA878FFF774FE3B2001F0E5FFA888000AFFF76DFE2879FFF76AFE2C2001F053
:20142000DBFFA879FFF764FE012000F0DDF91EE7F0B5002783B005463E463C46284600F0BF
:20144000BDF90194019B9E4206DD00BF019B01330193019B9E42F8DC284600F0B9F90194CA
:20146000019BC6F5C876B34206DA00BF019B01330193019BB342F8DB0137B7F5487F06D0FA
:20148000B7F5C87FCCBFC7F548763E46D6E703B0F0BD00BF2DE9F0434FF4EC74C1F2000451
:2014A00023684FF4804085B05B68C4F2030001219847236801214FF480400A461B68C4F2B3
:2014C0000300984709F078FC02F0B8F902F046F901F08AF802F084F900F066F944F20C0175
:2014E0000822C4F20902C4F20901012442F22C030C6020461460C4F209031B68FFF798FFA1
:2015000009F05EFC01F0BCFC01F012FC04F05AFA01F0BEFD04F06AF941F2342003F092F881
:2015200001F044FF04F00AFB40F214500021C2F2000004F015FA03F0EDFE03F08BFF022093
:20154000FFF776FF41F6B453C0F20103DB69984700270AF027FE02A80821019743F20845D6
:2015600001F0CEFD41F684469DF80F209DF80E90C2F20005C0F2010602AB03CB42EA09296C
:20158000D6F82C802860696002204AF6CD31C04749460320C04719212046C047082202A9E4
:2015A000736B0B209847B36A01A9204698472868696842F6E413C2F2000342F68812C2F26A
:2015C000000218605960A2F800900AF081FF40F298503946C2F2000004F0C2F90220FFF720
:2015E00027FF40F238403946C2F2000004F0B8F941F63030C0F2010003F02EFE01F058FD94
:201600002046FFF715FF04F00FF9044601F06AFD14F0FF0FF7D101F03FFFF4E72DE9F04191
:2016200005888046792D42D0802D36D025B1002303800320BDE8F08104F0D0F840F24846BB
:20164000C2F2000643F25E4340F224743268C2F20003C2F2000418702560002A62D02B464D
:2016600042F6C8151F46C2F20005EF5493688020002198472368013356F823202360002A5C
:20168000F3D1DBB242F69E11C2F200010B707923A8F800300120BDE8F08143F25E43C2F2B5
:2016A00000031B788B4223D00120BDE8F08142F69E17C2F2000740F2247440F228763A78A9
:2016C000C2F20004C2F2000600239342336023600ADA42F6C815C2F20005E956002923DB72
:2016E000013393422360F4DB3368002BECD1CEE740F2247442F6C81542F69E1740F22876BB
:20170000C2F20004C2F20005C2F20007C2F2000623683268E85C511C00F07F003A78E854B0
:201720003160DDE71346ADE743F25E4140F24842C2F20001C2F20002097852F8232000203E
:2017400004F0DCF80028E3D18023A8F800300120BDE8F08110B442F69E13C2F200031C7843
:2017600004B340F24842C2F20002136898424FF0000304D106E052F8041F884202D00133B1
:20178000A342F8DB42F6C812C2F20002D15C40F2384061F07F01D154C2F200005DF8044BA4
:2017A00004F000B92346EDE708B500F027F842F69F13C2F2000300221A7008BD42F69F1377
:2017C000C2F200031A78024310461A7000F034B842F69F13C2F200031A7822EA0002104628
:2017E0001A7000F029B800BF42F69F13C2F200031A78424010461A7000F01EB810B540F27D
:201800002C73C2F200031A68A2B901224FF4DA741A60C1F2000423680A20DB6B984723684B
:201820000F20DB6B984742F2A003C4F202034FF404421A6010BD00BF42F6A01342F2A00272
:20184000C2F20003C4F202024FF4044118701160C20741BF42F29003C4F202034FF4806226
:201860001A60830741BF42F29003C4F202034FF400421A60704700BF813801289DBF40F2FD
:201880007073C2F2000318680020704740F2707341F65C30C2F200030322C0F201001A6076
:2018A000FFF758BF10B57721044682B0002001F0B5F94CB98DF807400DF107010122F42075
:2018C0000BF0D0FC02B010BD25238DF80730F3E730B5802885B023D081281AD140F2707485
:2018E000C2F200042068C8B1002939D00120FFF7D9FF40F2507041F68D02C2F20000C0F2F0
:2019000000020321002303F041FD0220206005B030BD40F27073C2F20003186805B030BD1B
:2019200040F27074C2F20004012500207721256001F074F940F23871C2F2000118228820A6
:201940000BF082FCB62304A901F8013D2A46E0200BF088FC0020FFF7A5FF206805B030BD7E
:2019600040F25070C2F20000019103F05BFD01990846FFF797FF0120206005B030BD00BF6E
:201980002DE9F04140F27073C2F200031B680546032B40F09E80431E012B00F29A8040F21F
:2019A00030740023C2F20004184677212360A38001F034F92146F72006220BF045FC0028E4
:2019C0007FD0E278207940F23873C2F200036179120342EA0012188842EA1112C0EB121147
:2019E00001FB01F1B3F904700E134000B3F90210C0EBD20207FB06F601FB02F1B61306EB94
:201A0000E1214A10A2F57A42961006FB06F6B3F90870B3F90AC0701307FB02F700FB0CF065
:201A2000B3F90EC07F100CFB02F207EBE000B3F806C08014B3F9107000F5004052000CFB11
:201A400000F0F61207FB062627786278B3F90C8094F802C03F034FEA084447EA0217C0137D
:201A6000996104EBA60447EA1C1726D07F42A7EB243440F6354606FB04F404F1434414F59F
:201A8000A0044DBFB4FBF0F06400B4FBF0F24200D00800FB00F0B3F91470B3F9166094081F
:201AA000400B07FB04F400FB06F0B3F91230641304EB2030184402EB2010012D0DD0BDE823
:201AC000F081204606210BF0E5FB4FF00040BDE8F0814FF00040BDE8F08101EB810101F1A3
:201AE00080000012BDE8F081813801289DBF40F29873C2F2000318680020704740F2987378
:201B000041F66C30C2F200030322C0F201001A60FFF720BE10B544210446002001F07EF81A
:201B200042F68A13C2F20003002C14BF1024002402201C8019460246BDE810400BF092BB20
:201B400010B5802882B023D081281AD140F29874C2F200042068C8B1002938D00120FFF720
:201B6000D9FF40F2787041F6FD22C2F20000C0F200022421002303F009FC0220206002B001
:201B800010BD40F29873C2F20003186802B010BD4FF4DA74C1F20004236801209B6B9847AC
:201BA000236801209B694FF48041984723684FF08041DB69012098470020FFF7ABFF40F2D1
:201BC00098730120C2F20003186002B010BD40F27870C2F20000019103F024FC01990846D0
:201BE000FFF798FF0120206002B010BD38B540F29873C2F200031B680446032B07D18207FB
:201C000005D0032812D0012804D0022808D04FF0004038BD40F27473C2F20003186838BD2A
:201C200040F2A073C2F20003186838BD42F68A1500204421C2F2000500F0F0FF29460420AC
:201C400002220BF001FB00283DD140F29C75C2F2000540F29C70C2F2000004210BF01AFB10
:201C600000202C786978AA78EB7841EA042443EA02230028CBD098080FF026F94FF0745110
:201C80000FF076F90021C4F27A410FF071F90FF0BFFA40F27473C2F200031860A0080FF034
:201CA00013F94FF074510FF063F90021C4F27A410FF05EF90FF0ACFA40F2A073C2F2000330
:201CC0001860012038BD2B885BBA2B8040F29C755B04C2F20005BCD52946012002220BF068
:201CE000B3FA0028B5D02046A91C02220BF0ACFA0028B6D1ADE700BF40F2C473C2F2000378
:201D00001868704770B540F2C474054682B0C2F2000400204521266800F080FF75B906F021
:201D200002064FF486532660ADF806300DF10601022201200BF096FA02B070BD41F2C20273
:201D40000123ADF806202360F0E700BF00B5002083B0452100F062FF01200DF10601022272
:201D60000BF072FABDF90630002B0EDB40F2A47041F64D52C2F20000C0F200021021002324
:201D800003F004FB03B05DF804FB41F68C30C0F20100FFF7DFFC40F2C473C2F2000302228F
:201DA0001A6003B05DF804FB802810B50C460FD081280BD189B940F2A470C2F2000003F050
:201DC00031FB2046FFF79EFF204610BD002010BD0020FFF797FF002010BD0120FFF792FF7D
:201DE00040F2A47041F64D52C2F20000C0F200021021002303F0CAFA012010BD8138012884
:201E00009DBF40F2E873C2F2000318680020704738B542F6A114C2F2000440F2E873227812
:201E2000C2F2000303211960F2B140F2EC75C2F200050020432100F0F1FE0421284600F079
:201E4000C9FD20700020014600F0E8FE2888698842F68C1242F68E1340BA49BAC2F20002EC
:201E6000C2F2000310801980012341F69C302370C0F20100BDE83840FFF76CBC30B580284D
:201E800083B032D0812829D140F2E874C2F20004206840B3002955D042F6A115C2F20005B4
:201EA0002B785BB14321002000F0B8FE002000F069FD28700020014600F0B0FE40F2C870CC
:201EC00041F61162C2F20000C0F200020321002303F05CFA0220206003B030BD40F2E87391
:201EE000C2F20003186803B030BD40F2EC730024C2F2000342F68C1542F68E12C2F2000238
:201F000020461C60C2F20005432114802C8000F085FE02A91023022021F8023D02460BF074
:201F2000A1F942F6A113C2F2000318702146204600F074FE40F2E8730120C2F200031860D0
:201F400003B030BD40F2C870C2F2000003F06AFA0120206003B030BD08B542F6A513C2F2CA
:201F600000031B78032B2ED8DFE803F022170C020EF0A0FB00224FF07D530EF001FC0EF0D3
:201F800099FE08BD0EF096FB00230022C3F630730EF0F6FB0EF08EFE08BD0EF08BFB0023D0
:201FA0000022C3F620730EF0EBFB0EF083FE08BD0EF080FB00230022C3F610730EF0E0FBB8
:201FC0000EF078FE08BD002008BD00BF813801289DBF40F61803C2F2000318680020704787
:201FE00040F6180341F6B430C2F200030222C0F201001A60FFF7AEBB10B542F6A614C2F2A3
:2020000000040120682100F009FE3F23214601226C2023700BF026F921464F236B2001226F
:2020200023700BF01FF9BDE810400020014600F0F5BD00BF802870B511D0812809D111F00B
:202040003F013FD14FF40253C4F202031B68DB0459D440F61803C2F20003186870BD4FF456
:20206000DA74C1F20004236807209B6B9847236807209B694FF40051984723684FF0804110
:202080000720DB69984723680C20DB6B984723680C209B6A4FF480614FF44072984742F232
:2020A000A001C4F202014FF4805040F61C030860C2F20003002140F61802C2F2000219609F
:2020C000106870BD40F61C0342F29005C2F20003C4F202054FF4805640F6180440F2F870C4
:2020E00042F275121960C2F200042E60C2F200000125C0F2000208210023256003F046F9D5
:202100002560284670BD40F61C0340F2F870C2F20003C2F20000196003F084F9FFF76CFFFB
:2021200042F60402C4F20002136813F00103FBD140F6180242F2A001C2F20002C4F20201C7
:202140004FF4805013600860106870BD10B542F6A214C2F200040120682100F05FFD214624
:2021600001223A200BF070F80020014600F056FD207810BD2DE9F04140F61C04C2F200041B
:20218000236813F0380F5ED142F6A414C2F20004257803F03F06C5BB7EB9FFF72DFFBDE840
:2021A000F04140F2F87041F6E172C2F20000C0F200020521002303F0E9B842F6A617C2F2DC
:2021C00000070120682100F029FD0923394601226B203B700BF046F83F23394601226C206B
:2021E0003B700BF03FF842F6A311C2F2000101221C2025700BF036F839463A2001220BF04D
:2022000023F82846294600F009FDF6B22670002EC3D042F6A614C2F20004F6430120682144
:20222000267000F0FBFC214601226C200BF01AF80020014600F0F2FC4FF46250C0F2010011
:2022400008F0C2FDABE742F6A515C2F200052A78002A99D042F6A316C2F200060027012062
:202260006821377000F0DAFC31461C2001220AF0F9FF39460646384600F0D0FC06B12F7045
:20228000236881E708B54FF4DA73C1F200031B685B689847C0F3804008BD00BF40B1012812
:2022A00003BF40F63003C2F20003D868002070474FF40353C4F20203186800F0010080F0F0
:2022C0000100704740B1012803BF40F62003C2F20003D868002070474FF40353C4F20203EF
:2022E0001868C0F3001080F001007047813801284FF0000000D97047FFF7C4BF8138012867
:2023000001D9002070470420FFF7BCBF802838B514460CD0812809D151BB4FF4DA73C1F2DA
:2023200000031B6810465B6B984738BD38BD0122A24042F2E003C4F202034FF4DA751A604F
:20234000C1F200052B6820469B6B98472B684FF4804220461B680021C2F20702984742F275
:20236000C531E0B2C0F20001BDE8384001F020BA0122A24042F2E003C4F202034FF4DA75D1
:20238000C1F200051A602B6820469B6B98472B684FF4804220461B68C2F2070200219847EF
:2023A0002B6820461B6B984738BD00BF08B50022FFF7ACFF012008BD08B50422FFF7A6FF27
:2023C000012008BD38B5044610B104281AD038BD40F63004C2F20004204603F035FB002841
:2023E000F5D02046042103F01BFB4FF40353C4F202031B6813F0010526D100F0EFFCE5608D
:20240000A06038BD40F62005C2F20005284603F01BFB0028DBD02146284603F001FB4FF462
:202420000353C4F202031C68C4F30014CCB100F0D5FCAB68C31AEB6041F6E430C0F20100C5
:20244000BDE83840FFF786B900F0C8FCA368C31AE36041F6D430C0F20100BDE83840FFF74A
:2024600079B900F0BBFCEC60A86038BD4FF40353C4F202031868C0F3C0007047813801285A
:2024800008B501D9002008BD4FF4DA73C1F200031B6803205B689847C0F3804008BD00BF3B
:2024A000802810B50CD0812808D14FF4DA73C1F200031B68032061BB5B6B9847012010BDB6
:2024C0004FF4DA74C1F20004236803205B6B984742F2E002C4F2020208214FF4DC73116065
:2024E000C1F200031B684FF4A060DB69984723684FF400521B68C2F20302032000219847BE
:2025000042F21D51C0F20001032001F051F9012010BD1B6B9847012010BD00BF40F6400092
:2025200008B5C2F2000003F08FFA00B908BD41F6FC30C0F20100FFF70DF9BDE8084040F6FB
:202540004000C2F20000402103F06ABA10B54FF4DC74C1F20004236804205B699847236823
:2025600004205B6B98470128F9D110BDFFF7EEBF032808B503D0BDE8084000F031B90AF0B3
:2025800085FF41F65C33C0F201039B6800218120984741F68C33C0F201039B680021812026
:2025A000984741F66C33C0F201039B6800218120984741F69C33C0F201039B68002181208B
:2025C000984741F6B433C0F201039B6881200021984742F2A003C4F202034FF480521A6083
:2025E000BDE8084000F0FCB870B508F0E5FB0646FFF7ACFF4FF4DC73C1F200031B684FF452
:20260000A060DB69984742F22803C6F20803012142F228021960C4F2080213689B07FCD5CE
:2026200000F0A8F84FF4DA740AF028FF0AF01CFF40F26C40C1F20004C2F2000001F07EF893
:20264000236819209B6B984723684FF4005119209B699847236818209B6B984723684FF420
:20266000005118209B699847236817209B6B984723684FF4005117209B69984723681B2048
:202680009B6B984723684FF400511B209B69984723681E209B6B984723684FF480411E209D
:2026A0009B69984723680D20DB6B984742F2A0034FF40055C4F202031D6023684FF48072F3
:2026C00000210D209B6A9847236802209B6B9847236829469B690220984723680B209B6B7B
:2026E0009847236829469B690B20984723681D209B6B9847236829469B691D20984706B175
:2027000070BDBDE8704008F05BBB00BF10B54FF4D673C1F200031B684FF400505B68C4F2D4
:202720000000984710F00C0F044608D042F60403C4F2000304221A60022008F045FBD4F1C6
:20274000010038BF002010BD08B54FF4DC73C1F200031B6802205B6B9847012801BF42F228
:202760006003C4F20803186800F0010018BF002008BD00BF38B54FF4DC75C1F200052B687D
:2027800002205B6998472B6802205B6B98474FF4DC7301280446C1F20003F4D11B684FF4D4
:2027A0004070DB69984742F22803C6F2080342F228021C60C4F2080213689B07FCD54FF459
:2027C000D673C1F200031B684FF400504FF4D8411B68C4F20000C0F2DC210122984738BDA9
:2027E00040F2926310B5C2F20003FF221A70FFF7ABFF50B142F604014FF482630022C4F2AD
:202800000001C4F205230A601A604FF4DC73C1F200031B684FF440701B6A984742F2280374
:20282000C6F20803012142F228021960C4F2080213689907FCD54FF4DA74C1F2000423685D
:2028400008209B6B984723684FF4005108209B699847236809209B6B984723684FF4005189
:2028600009209B699847236805209B6B984723684FF4804105209B699847236806209B6B69
:202880009847236806209B694FF48041984710BD2DE9F84F42F6A713C2F200031A784FF419
:2028A00020535200C4F200031A60064642F608020078C4F2000242F6040388461060C4F22F
:2028C00000031A6842F604045106C4F20004F8D403232360022008F077FA2368DA07FCD4E6
:2028E000FFF714FFB8F1010F034631D968B3344614F8012F42F6080708F1FF3AA31B42F683
:20290000040BC4F200075345C4F2000B4FF002054FF001093A6008D345451BD214F8012FDB
:202920000135A31B53453A60F6D2CBF80090022008F04AFADBF80030DB07FBD4FFF7E6FE6A
:202940004545034604D20028E8D10020BDE8F88F002BFAD042F60404C4F200040523236007
:20296000022008F031FA2368DD07FCD4FFF7CEFE42F60402C4F2000213685C06FCD4BDE8C9
:20298000F88F00BF10B542F6A713C2F200031B784FF4205142F608025C00C4F20001C4F231
:2029A000000242F604030C60C4F2000310601A6842F604045206C4F20004F8D407232360F4
:2029C000022008F001FA2368D807FCD4BDE81040FFF79CBE2DE9F04F42F6A713C2F2000365
:2029E0001C784FF42052640044F00104C4F2000242F6040383B0824689461460C4F2000303
:202A00001D6842F6040615F04005C4F20006F7D10B233360022042F6080808F0D5F9C4F27A
:202A2000000809F1FF3701234FF0090BAF421BDD53B3336842F60404DB07C4F20004F8D4B5
:202A4000FFF764FE03460028F0D0D8F8002002200AF805200135C4F800B0EDB2019308F0E7
:202A6000B3F9AF42019BE3DC73B142F60404C4F2000405232360022008F0A6F92368D80772
:202A8000FCD4FFF743FE18B9002003B0BDE8F08F42F60803C4F200031B68D14442F6040295
:202AA00009F8013CC4F2000213685906EDD5FBE72DE9F04F42F6A715C2F200052E784FF4B7
:202AC00020547600C4F2000426600478804642F6080083B0C4F2000042F6040601920F4637
:202AE00099460460C4F20006336842F604045906C4F20004F8D403232360022008F064F9F7
:202B00002368DA07FCD4FFF701FE012F044625D918B9002003B0BDE8F08F42F6080642F6C6
:202B2000040B4FF0010AC4F20006C4F2000B18F8011F012231600220CBF8002008F044F9A1
:202B4000DBF80010CB07FBD4FFF7E0FD0AF1010ABA45044602D20028DBD0E8E7002CD8D085
:202B600029784FF42053490042F6040641F00101C4F200030B22C4F2000619600220326071
:202B800008F022F942F60808C4F2000809F1FF374FF0000B4FF0090ABB451AD2002CB8D0B0
:202BA000336842F60405DC07C4F20005F8D4FFF7ADFD04460028EFD0D8F80030019A022041
:202BC00002F80B30C5F800A008F0FEF80BF1010BE2E7002C9DD042F60404C4F200040523E9
:202BE0002360022008F0F0F82368D807FCD4FFF78DFD00288DD042F60803019AC4F200037A
:202C00001B68914442F6040209F8013CC4F2000213685906FCD401207CE700BF42F6A71349
:202C200010B5C2F2000304461970FFF78DFD38B340F29263C2F200031A78A2421FD042F65F
:202C400004004FF482620021C4F20000C4F205221C70016011601B78ABB1012B35D04FF4D4
:202C6000D673C1F200031B684FF400504FF4D8411B68C4F20000C0F2DC210122984710BD2C
:202C8000FFF778FDD4E74FF4DA74C1F20004236805209B694FF4C0419847236806209B693A
:202CA0004FF4C041984723684FF4005005210622DB6CC4F200009847236808209B6B984711
:202CC000236809209B6B9847C9E74FF4DA74C1F20004236808209B694FF4C04198472368FE
:202CE00009209B694FF4C041984723684FF4005008210922DB6CC4F2000098472368052086
:202D00009B6B9847236806209B6B9847A7E700BF10B54FF4DC74C1F20004236804205B6969
:202D20009847236804205B6B98470128F9D110BDF8B540F29861C2F2000100220023C1E924
:202D400000234FF4DC73C1F200031B6804205B6B9847012801D0FFF7DBFF4FF4DC73C1F2AD
:202D600000031B680020DB69984742F22803C6F20803012142F228021960C4F20802136834
:202D80009B07FCD50C23C4F2010319684FF4E47221F4807121F001011960C1F200021368FB
:202DA0000024C4F201044FF404511B682046C0F20041984704233C2108221F46C4F2010116
:202DC0003126C4F2010240F22125C4F22433012027600E6015601860F8BD00BF10B442F2EF
:202DE000080342F20C04C4F20903C4F209041968226818688142FAD1C90140F2986001EB06
:202E00005262C2F200000023C0E900235DF8044B03C8704710B542F2080342F20C04C4F237
:202E20000903C4F209041968226818688142FAD1C90140F2986001EB52620023C2F200003F
:202E4000C0E9002302F0FAFB00B910BDBDE8104002F0C6BB10B507F0AFFF42F20803C4F272
:202E600009031C6808B907F0ABFF204610BD00BF704700BF0146012000F058B807F088BF52
:202E80002DE9F04107F098FF002642F204034FF48032C4F2090301240027C4F224364FF4A6
:202EA00080714FF4C2753760C1F200051C6019601A602B6880461B683846232198472B68D9
:202EC00020461B68242198472B6802201B68252198474FF40053C4F20903196842F2080271
:202EE00041F4E021C4F209021960176007F050FF42F21C024FF4287300F50070C4F2243303
:202F0000C4F209024FF4D8711060C1F200011C6034600B6814201B699847B8F1000F01D09D
:202F2000BDE8F081BDE8F04107F04ABF431E042818BF012B10B42CD810F001021EBF42F239
:202F40001803C4F20903196010F002031EBF42F21C04C4F20904216010F004001EBF42F28C
:202F60002004C4F2090421602AB14FF42072C4F22432012111602BB14FF42873C4F22433D3
:202F800001221A6028B14FF43073C4F2243301221A605DF8044B704740F64803C2F2000398
:202FA0001868704708B5FFF769FF40F64803C2F200031860FFF72EFFA023C4F224331B6899
:202FC000BBB98023C4F224331B6863BBC023C4F224331B6863B14FF4307242F20403C4F2CF
:202FE00024320020C4F209034FF480311060196008BD42F20403C4F209034FF480721A604B
:2030000007F0C6FE00F2052020F4FF7242F21C03C4F2090322F001021A608023C4F2243305
:203020001B68002BD2D04FF4207242F20403C4F224320020C4F2090301211060196002F045
:20304000D9FCC3E7820741BF4FF44063C4F2080301221A60C30700D4704707F0B1BE00BFAA
:2030600008B507F0A9FE4FF44063C4F208031A68012A03BF4EF25152C1F6CC221A600023BA
:2030800008BF0223002814BF184643F0010008BD00224FF6FF714FF44063C4F20802C0F2C3
:2030A0000F01C4F20803012011601860704700BF38B5FFF7D5FF00244FF6FF750C214FF4BB
:2030C0008273C4F20804C0F20F050122C4F20033C4F2080125600A601A60BDE83840FFF72C
:2030E000B1BF00BF00224FF6FF710C23C4F20802C0F20F01C4F20803012011601860704797
:2031000010B44FF6C7734FF6CF74C0F20103C0F2010413F8012FFF2A12D1A342F9D141F24E
:20312000F022C5F2000241B10A44002312F8014C013AC45401338B42F8DB5DF8044B704788
:203140004FF6C872C0F20102EDE700BF38B54FF4DC75C1F200052B6802205B6998472B6884
:2031600002205B6B98474FF4DC7301280446C1F20003F4D11B684FF40070DB69984742F27B
:203180002803C6F2080342F228021C60C4F2080213689B07FCD538BD2DE9F0434FF4E876DA
:2031A00083B0C1F20006FFF7D1FF33684FF480504FF4D878DB68C4F20000C1F20008984789
:2031C000D8F8003041F238045B691520C4F200049847236841F2440523F4FE6323F0020357
:2031E000C4F2000540F2F2794FF4DA772360C1F20007C5F800903B681D20DB6B984742F220
:203200009003C4F202034FF000521A603A684FF0FF3300934FF48050176CC4F200001C2126
:203220001D22B84733684FF480504FF4D8415E68C4F20000C0F2DC214FF4E1326023B0474B
:2032400041F23403C4F20003142141F22C021960C4F20002116840F64C0341F010011160D3
:20326000C2F20003196840F2013640F2011041F23002002914BF31460146C4F20002116022
:20328000C5F800901B6843B12368152043F050032360D8F800301B69984703B0BDE8F08373
:2032A00008B54FF4DC73C1F200031B6802205B6B9847012801BF42F26C03C4F208031868F2
:2032C00000F0010018BF002008BD00BF38B50446FFF7E6FF30B141F21802C4F2000213680F
:2032E0001807FCD4032C06D040F64C03C2F200031B6803B138BDFFF7D3FF38BB4FF4DC7523
:20330000C1F200052B684FF400701B6A9847032C41D042F22803C6F20803012142F2280269
:203320001960C4F2080213689907FCD51D2000F027FA1C2000F024FA4FF0FF3000F020FA58
:20334000BDE838404FF0FF3000F01ABA4FF4E873C1F200031B684FF48050DB68C4F200003B
:2033600098474FF4D873C1F200031B6815205B69984741F23803C4F20003186841F24402AF
:2033800020F4FE6020F00200C4F2000240F2F27118601160B2E72B684FF400709B6A9847B0
:2033A0002B684FF400701B6B9847B2E710B507F003FD044640F28040C2F2000000F0BEF976
:2033C00040F64C03C2F2000300221A6004B110BDBDE8104007F0F4BC10B50446FFF760FF93
:2033E00038B9FFF7D9FE41F60C40C0F2010001F081FA4FF4E873C1F200031B684FF4805083
:203400002146DB69C4F20000984710BD08B5FFF747FF30B141F21803C4F200031868C0F38B
:20342000C00008BD70B5FFF791FE4FF48253C4F200031A6841F24403C4F2000340F2F27142
:2034400012F0500F196018D041F218054FF4E87640F64C04C4F20005C1F20006C2F2000407
:2034600006E03368C4F200001B69984723682BB92B684FF48050DB06F3D570BDC0B2984776
:20348000F6E700BF4EF61053CEF200031A6822F004021A6030BF704770B507F08DFC02F0D5
:2034A00021FA18B1BDE8704007F08ABC40F65000C2F2000002F05CFB0225044648B16368DE
:2034C00023B19847A84228BF2846C5B22468002CF5D1FFF7D3FC4FF42073C4F224331B68DA
:2034E0000446002B40F0B88002F0A8F803460146002840F0F280012D00F0CC80022DD1D1C8
:203500002846002B00F00581FFF710FD40F65000C2F2000002F02CFB06250446002800F0B9
:20352000AF80A368022003B198472369246825EA0305002CF5D1FFF7D5FD6A0705F0060443
:2035400000F1A180002C40F0E98000F0D3F900200AF024F94FF48052C4F20902116841F21F
:20356000080321F003011160C4F2090319684FF4DC7241F00F011960C1F2000213683920A3
:203580009B6998474FF482524FF484610023C4F20902C4F222311360184613600B6008F075
:2035A000B1F8062C00F0C38042F22C0542F22424C4F20804C4F209052B6823684FF4EC76D3
:2035C00023F003032360C1F2000633684FF48040C4F2030003215B6898474FF4DC73C1F234
:2035E00000031B689B6B98472B6808F0E3F94FF4C0730022C4F204331A6033684FF480405C
:20360000C4F203005B6801219847216844F20C0341F003010122C4F2090321601A602B68B7
:2036200008F008FA0AF082F8FFF7F4FBFFF75AFD40F65000C2F2000002F09AFA044628B107
:20364000E36803B198472468002CF9D107F0B8FBBDE8704007F0B4BB42F21803C4F2090394
:203660001B681B1A022B52D4A3F28F23002BB8BF0123BFF639AF9D4228BF1D46EDB233E7B3
:20368000FFF730FD062444F20C03C4F2090300221A6057E7002B4ED04FF6F873CFF6FF73CC
:2036A0001B1BCB4248BF04F1080106D404F58034631A31EA230128BF21460220FFF736FCE7
:2036C0004EF61053CEF200031A6822F004021A6030BFBDE8704007F073BB01F0B9FF06460E
:2036E000FFF77CFB361A002E15DDFFF755FC4FF67153CFF6FF731B1B00EB4621CB424FF092
:2037000001037FF5F8AE9D4228BF1D46F3E60023B1E7611EF8E600231946F4E74FF4DC7382
:20372000C1F200031B6820469B6998470DE7022007F000FC38E704F58031BEE7014640F613
:203740005000C2F2000002F015BA00BF014640F65000C2F2000002F061BA00BF40F6500012
:2037600008B5C2F2000002F0FFF94FF4C273C1F200031B6803201B682021984708BD00BFF3
:20378000411C10B5044611D04FF4DA73C1F200031B684FF4C0421B68002198474FF4D053E5
:2037A000A400C4F24423234300221A6010BD00BF38B504460D4607F0FFFA0121A14042F209
:2037C000E00240F65403C4F20202C2F20003116043F8245000B138BDBDE8384007F0F0BA85
:2037E00008B5084B002103F1800243F8041F9342FBD14FF4D873C1F200031B6810201B69A8
:20380000984708BD50080020F8B542F2E003C4F202031D6840F654071D60C2F2000700249B
:20382000012606FA04F32B42E0B203D057F8243003B198470134202CF3D1F8BD00B585B07E
:203840000022412302A80292039309F085FF042007F05EFB032814D00420032107F028FBAC
:20386000042007F055FB03280346F9D14FF420400093C4F20C0000214FF040521C2307F07F
:20388000C5FA02A809F0CAFF05B05DF804FB00BF00B583B00022412368468DE80C0009F09F
:2038A0005BFF012007F034FB012803D00320012107F0FEFA684609F0B1FF03B05DF804FBD9
:2038C00000B583B00022412368468DE80C0009F043FF012007F01CFB012805D04823C1F2C5
:2038E0000003986B07F03AFA684609F097FF03B05DF804FB10B582B0412368460024019392
:20390000009409F029FF0320214607F0D1FA012007F0FEFA28B14823C1F20003986B07F0A2
:203920001DFA684609F07AFF02B010BD08B509F0D9FF48B140F65833C2F2000358880228C8
:2039400014BF0220012008BD022008BD70B582B009F0C8FF60B940F65830C2F2000001A959
:2039600009F0C8FF012818BF00200CD002B070BD40F65834C2F200046388022B08BF012032
:20398000E9D102B070BDFFF779FA4FF6C076CFF6FF7640F65834361AC2F2000403E0FFF7CD
:2039A0006DFAC6420AD5608840F658350228C2F20005F4D1831E58425841D7E76888F9E704
:2039C00008B5B32994BF0A46B422014602480DF067FF002008BD00BFEA0B00202DE9F041E1
:2039E000044607F0E9F943F204030746C4F2040344B11A6840F6D803C2F200031A60BFB135
:203A0000BDE8F081D3F8008040F6D806C2F2000618F1804432684FF0000545F1000500236E
:203A20009D4208BF944207D3C6F80080002FE7D1BDE8F04107F0C4B9FFF720FA40F6D403A4
:203A4000C2F20003196840F65432C2F20002013110601960C6F80080E8E700BF10B588B0D8
:203A600002A8182140F602020AF0C0F940F2D443C2F200031B689DF81A2019799DF81B40A2
:203A800061F305028DF81A20597902A861F387128DF81A209A7940F2A84362F34704C2F260
:203AA0000003012201A98DF81B4007938DF8162009F020FF012818BF002001D008B010BD73
:203AC00002A809F06DFF421E5042504108B010BD08B5FFF7C3FF012801D0002008BDFFF785
:203AE00035FFC0B208BD00BF70B540F62035C2F2000542F6A8162C68C2F20006002006E0E9
:203B00002379022B06D024682B68A34211D02379032BF5D133780120002BF4D140F27C60C7
:203B2000C2F2000001F03EFF24682B680120A342EDD170BD10B582B00AF052F9044609F014
:203B4000D1FE08B902B010BD0120C0F2014001A909F0D0FE0128F5D1638803F44063002B32
:203B6000F0D1638803F44063002BF5D0EAE700BF0B280ED00C2801D001207047D1F10100CE
:203B800038BF0020042A18BF40F00100C0B102207047D1F1010038BF0020082A0CBF02466F
:203BA00040F00102002AF2D1094B0139A3F1080013F8012D834201F8012FF9D100207047F3
:203BC00040F61C33C2F200031B680B60704700BF880B002010B584B009F084FE08B904B0A9
:203BE00010BD002442F2034302A801A902940394ADF8083009F07EFE0028F0D09DF90A30CF
:203C0000803318BF2046EAD19DF80C00C0F38100411E48424841E2E710B582B009F062FE99
:203C200028B340F65834C2F200046388022B1ED1FFF7D0FF0028FBD1012001A9C0F20140B1
:203C400009F058FE02E06388022B03D109F04AFE0028F8D1638842F2074042F20242934262
:203C600018BF834214BF0020012002B010BD012002B010BD10B50AF013F9012832D0FFF789
:203C8000A9FF04460028FAD1FFF7C6FF09F07CFFFFF730FE40F6DC03C2F20003197940F658
:203CA0005832022908BF1C7140F66C13C2F20003C2F2000254801A79022A04BF00221A71D6
:203CC00040F6FC13C2F200031A79022A04BF00221A7140F68C23C2F200031A79022A04BF9B
:203CE00000221A71012010BD30B585B009F0FAFDC0B140F65833C2F200035B88022B11D144
:203D0000002442F2034503E09DF80A3058060CD102A801A902940394ADF8085009F0EAFDB8
:203D20000028F1D1FF2005B030BD9DF80C0005B030BD00BF0B2808B501D0012008BDD1F16D
:203D4000010338BF0023082A0CBF1A4643F00102022002B108BD0E4B083103F1080011F881
:203D6000012D03F8012F8342F9D109F0BBFD0028F0D040F65833C2F200035B88022B05D164
:203D8000FFF74AFFFFF7E2FD032008BD002008BD7F0B002010B50AF083F801280CD009F060
:203DA000A1FD48B140F65833C2F200035B88022B02D1FFF70FFF08B1002010BDFFF794FFDE
:203DC000FF28F9D0C0F3801010BD00BFF8B50AF067F8012842D0FFF75BFD09F083FD0028F4
:203DE00035D140F6DC0240F66C1040F6FC1140F68C23C2F20002C2F20000C2F20001C2F2FC
:203E0000000392F805C090F805E04F795E790125882465F3830C65F3830E65F3830765F368
:203E2000830682F805C0106080F805E00160C480D480CC804F710B601A60DC805E71FFF7E2
:203E40003FFD09F04DFFA8420AD00020F8BD40F65833C2F200035B88022BC2D10120F8BD57
:203E600042F6A813C2F200031878003018BF012009F054FFFFF7F2FDA842E6D1BDE8F84031
:203E8000FFF764BD70B584B0072800F2CE80DFE800F022762B373D70850440F65834C2F2E6
:203EA0000004217709F01EFD38B36388022B24D1FFF7B2FE012814BF0324002409F01EFF57
:203EC0000020FFF78BFDFFF741FD01280CBF2046032004B070BD012900F09980002900F066
:203EE0009080022004B070BD40F65834C2F20004618609F0F7FC0028D7D1002004B070BD91
:203F000040F65834C2F200042186CBE731F00703E7D140F65834C2F20004257E42F6A812DC
:203F200061F30005EDB2C1F34000C2F2000245F00205167860F38205607EC1F3800105F033
:203F4000870563F3C71563F3C7108E42607625761170A7D1228B40F64833C2F200031846C9
:203F600003A95A8009F0C6FC00280CBF03200020AFE731F0010308BFC8B2B2D1A9E7A1F129
:203F80000B030F2BADD840F65834C2F20004A37BC9B28B4218BFA17384D1AEE701F1150395
:203FA0001A2B9ED841F61445C0F201050C2455F8342041F614439142C0F201034FEAC40019
:203FC0002CDD14F1FF34F2D209F08CFC002880D005EBC40422796079A17902F03F024FF02B
:203FE000000360F3871261F34703102403A802A98DF80E208DF80F30ADF80C4009F07AFCD3
:204000007BE70191FFF736FE0199084661E7FFF7DDFE012814BF032000205AE740F2D442B9
:204020000344C2F200021360CEE7012051E700BF70B50C4682B069B1102800F2AF80DFE860
:2040400000F07E766E668F8C5D542E251DADAD1915100C00022002B070BD05230B60002014
:20406000F9E76FF014030B600020F4E71A230B600020F0E70B230B600020ECE742F6AA1364
:20408000C2F200031B7800200B60E4E742F6A913C2F200031B7800205BB20B60DBE709F0EF
:2040A00021FC00287CD040F65833C2F200035B88022B08BF002673D1002240F2034301A873
:2040C00069460192ADF8043009F014FC01280CBF9DF902506FF07F05002E67D1256015F10C
:2040E000800F0CBF03200020B5E740F65833C2F2000393F91C3000200B60ACE740F2D443D0
:20410000C2F200031B6800201B680B60A3E740F65833C2F200031B8E00200B609BE740F669
:204120005833C2F200035B8E00200B6093E740F65833C2F200039B7B00200B608BE709F0CB
:20414000D1FB38B140F65833C2F200035888861E70427041206000207DE7002008607AE75E
:20416000002240F658330A60C2F200031A7E02F001020A601B7E5D0742F6A813C2F200039D
:20418000187844BF42F002020A6000283FF463AF0B68002043F004030B605CE701205AE7A2
:2041A000FFF714FE012804D1064685E7FFF762FD94E76FF07F03236003204CE7F0B589B0D9
:2041C000074609F08FFB002858D040F65833C2F200035B88022B08BF00264FD1FEF74EFEE9
:2041E0004FF6E075CFF6FF752D1A03E0FEF746FEC5424CD5FFF7EEFC01280446F6D0002820
:2042000045D102A8182142F6014209F0EFFD42F6A815254BFFB2C2F200058DF817702978C9
:20422000069304949DF81430003118BF012164F3030301208DF8143009F0B0FD02A801A909
:2042400009F058FB38B3287800E050B3BDF80A3003F44063002BF8D0BDF80A40A4B2B4F52A
:20426000105418BF0124003018BF012009F0ACFD204656B1FFF7FEFC204606E0FFF7A6FDD2
:20428000012808BF0646A9D0012009B0F0BD2EB9022009B0F0BD28780124E4E7FFF7EAFC07
:2042A000F6E7FFF7EFF8CEE7EA0B002010B5B32994BF0A46B4220C46014604480DF0F0FA94
:2042C0002046BDE81040FFF779BF00BFEA0B002038B509F0E5FD012824D009F003FB38B9B4
:2042E000FFF774FD01280ED0FFF7C4FC012038BD40F65833C2F200035B88022BF0D1FFF745
:2043000069FC0028FBD10546FFF7EEFCFF2808BF012405D000F0030010F1FF3418BF01240E
:20432000204605B938BDFFF7A5FC204638BD00BF2DE9F04F40F6503885B0C2F20008074662
:204340000E46D8F8005009F0CDFA48B140F65833C2F200035B88022B02D10020FFF73EFB86
:20436000FEF78CFD4FF6FA64CFF6FF74241A03E0FEF784FDC44209D52B79022BF8D0032BA2
:2043800018BF002007D005B0BDE8F08F2B79032B18BF0020F7D1D8F8004040F65033227A80
:2043A000C2F20003032A05D9257AEDB2A5F10809B14507DD226800201A602071207205B080
:2043C000BDE8F08F04F109014A4638460DF068FAEB1C0535E25C42F6A91B6059C2F2000B5A
:2043E0008BF800200390E15C039B42F6AA1A40F6D40201F07F01C2F2000AC2F20002B3F11B
:20440000404F8AF80010126810D98DE80C00FEF735FD9DE80C0040F65431C2F200010968FE
:20442000401AB0F1877F48BF02F1FF3242F26C11C2F200016FF4BF76F61809684FF0FF375E
:2044400047F10007761A67EBE1770024A41942EB070540F2A0662902C2F2000643F6095218
:20446000002341EA14612002C6E900450CF0F6FE42F6A812C2F2000240F61C331278C2F208
:20448000000318604AB1D8F80030002219684846C8F800101A721A7175E79BF8001004206B
:2044A00049B289B207F0E6FF9AF80010032007F0E1FFE8E710B509F015FAC0B140F6583380
:2044C000C2F200035B88022B11D10020FFF786FABDE8104040F6283044F2B542C2F2000039
:2044E000C0F200024FF48731002300F04FBFFFF76DFC0128ECD10020FFF770FAFFF7BAFB7C
:20450000E6E700BF2DE9F84F40F2944040F6DC06C2F20006C2F20000FFF710F909F0B6FB7D
:204520003046002190220DF097FA40F66C1000219022C2F200000DF08FFA40F6FC10002182
:204540009022C2F200000DF087FA40F68C2000219022C2F2000040F65834C2F200040DF097
:204560007BFA002740F6203540F65033C2F20003C2F200052046394680221E6085E8C000B9
:204580000DF06AFA0722022363762276B4F818E040F6D83340F64832C2F20002FF2001216F
:2045A000C2F200034FF0A60C42F6010B4FF0190A4FF0B9094FF06F082561A4F800B084F8A8
:2045C0000EA084F80F90636184F81B8084F81CC0A076617384F8371042F20206A2F802E07A
:2045E00010711680FFF7F2FB0128044618BF3C4602D02046BDE8F88F41F67C40C0F20100EB
:2046000009F002FC2046FFF7E9F940F6283044F2B542C0F200023B46C2F200004FF48731C6
:2046200000F0B4FE40F27C603946C2F2000001F097F92046BDE8F88F08B500F0A3F880B20A
:2046400008BD00BF00F038B938B54FF4DC75C1F200052B6804205B6998472B6804205B6BE5
:2046600098474FF4DC7301280446C1F20003F4D11B6840F20140DB69984742F22803C6F2AB
:20468000080342F228021C60C4F2080213689B07FCD538BD40F6A043C2F20003186800281A
:2046A0000CBF0220012070472DE9F04103880646002B4AD0B3F5847F09D140F29363C2F271
:2046C00000031B788B4207D00120BDE8F081002303800320BDE8F08140F6A047C2F20007B2
:2046E0003B68B3B14FF4E673C1F200031A6848F20403C4F2020352680220D3F800809047E5
:204700000024221848F10003194610463B6898473C604FF4DC73C1F200031B6840F20140EE
:204720009B6A984742F22803C6F20803012142F228021960C4F2080213689907FCD540F29C
:20474000D840C2F20000FFF701F84FF4847333800120BDE8F08100BF08B54FF4DC73C1F2B9
:2047600000031B6804205B6B9847012801BF42F23C03C4F208031868C0F3400018BF002063
:2047800008BD00BF70B540F6A043C2F200031B68D3B140F6A440C2F200000023C15C40F655
:2047A000A442C2F2000229B90133042BF6D10020014670BD40F2A8610024C2F2000101EBBD
:2047C000C301D45403C970BDFFF7C6FF002842D048F20803C4F202031A680123C8F200039C
:2047E00013409BB949F6F073C4F2020301221A6018680028FCD102464FF4807107F05EF9D9
:204800004FF42A73C4F2502301221A6006F0D4FA48F208020646C4F202021368D807FCD5B9
:204820004FF4E673C1F200031A6848F20403C4F20203526802201C689047002223461418BA
:2048400043F1000516B12046294670BD06F0B8FA2046294670BDFFF7F7FEB9E738B54FF4F1
:204860002A750024C4F2502548F20C032C60C4F2020319684FF4D87221F001011960C1F26D
:204880000002136831205B699847204622464FF4807107F013F9012240F293632A60C2F219
:2048A000000340F2EC4022461978C2F20000BDE8384001F023B800BF10B540F29364C2F2A0
:2048C00000042378802B00D010BD00F087FF207040F2EC40C2F200000021BDE8104001F0D2
:2048E0003FB800BF08B51AB10846114608F0ACFF002008BD0FB400B583B004AB53F8041B89
:2049000040F2FC401A46C2F20000019300F022F803B05DF804EB04B0704700BF38B50C4617
:20492000054609E041F6D841C0F201012B6868681022103C984718B9102CF3D8204604B984
:2049400038BD41F6D8412246C0F201012B686868984738BD2DE9F04F41F6305491B0C0F2BC
:204960000104002582468946099204940295884698F80030002B00F0F080252B00F01983B7
:20498000444602E0252B04D02C466378651C002BF8D145450FD0C8EB050641463246DAF8CD
:2049A0000030DAF804009847002840F08F826378029C34440294002B00F0CF806B78002BAA
:2049C00000F0CB8001350024A3F12002AC46102A1CD8DFE802F0181B1B151B1B1B1B1B1BAE
:2049E0001B121B0F1B1B090044F0100401359CF80130E9E744F00104F8E744F00604F5E7DC
:204A000044F00804F2E744F00204EFE7A3F13102D2B2082A00F2E580A3F13002D2B2092A1C
:204A20009CBF01354FF0000B00F2DE800BEB8B0B03EB4B0BAC4615F8013BABF1300BA3F1D5
:204A40003002D2B2092AF1D92E2B00F0D2804FF0FF316C2B00F0EE80682B00F07B81782B82
:204A600000F28180DFE813F079007F007F007F007F007F007F007F007F007F007F007F008B
:204A80007F007F007F007F007F007F007F007F007F007F007F007F007F007F007F007F0026
:204AA0007F007F007F007F007F007F007F007F007F00A2027F007F007F007F007F007F00E1
:204AC0007F007F007F007F007F007F007F007F007F007F007F007F007F007F007F007F00E6
:204AE0007F007F007F007F007F009F027F007F007F009C02990296027F007F007F007F0050
:204B00007F007F007F007F007F007F007F007F007F007F007F007F0093027F007F007F008F
:204B20007F007F007F007F007F0090027F008D028A028702840281027F008A027F007F0033
:204B40007F007F007D007E027B027F007F0078027F0075027F007F007202029811B0BDE8FD
:204B6000F08F44F4E06404F4E063B3F5806F0CF1010800F0CF806DD9B3F5C06F00F0B281E3
:204B8000B3F5E06F00F0A781B3F5A06F7FF4F0AE099BBBF1010F1A6803F1040309938CBF7A
:204BA0000BF1FF3B4FF0000BE3078DF8282000F13E8350465946FFF7B1FE002840F08681D3
:204BC000029CDAF800305C44DAF804000AA9012202949847002840F079810BF1010B029D7B
:204BE00095E02A2B00F0C6802E2B4FF0000B7FF42EAF9CF801300CF10101A3F13002D2B2B4
:204C0000092A00F2C4800CF102024FF0000909EB890903EB490913789446A3F13001C9B277
:204C20000929A9F1300902F10102F0D96C2B49467FF412AF9CF801306C2B03BF9CF8023072
:204C400044F080040CF1020C0CF1010C18BF44F0600404E7B3F5807F00F0A780B3F5407F08
:204C60007FF486AE099A41F60C57116841F6F843C0F20103043214F4804FC0F2010718BF11
:204C80001F46099200230A46002900F057810DF13A00110902F00F0241EA0371BD5C1E097C
:204CA0000A463346014600F8015952EA0305F0D10DF13B035B1A18BFDD1C00F041817820C2
:204CC00030222323AB4501F8010C01F8022C01F8033CA1F103063AD84FF0000B14F00104E7
:204CE00006D150465946FFF719FE002840F0EE803146DAF80030DAF804002A46984700280F
:204D000040F0E48002980544002C40F0FB805D4402952DE6099B1E6804330993002E00F0DF
:204D20004A8233781D466BB1731C18781A4601330028FAD1951B8D4294BF00230123002995
:204D4000B8BF0023002B18BF0D46AB45C4D9C5EB0B0BC3E79CF80130682B03BF9CF8023087
:204D600044F020040CF1020C0CF1010C18BF44F0400474E6099B05F1010C1A680433002A93
:204D80000993B8BF44F0010493466B785CE62A2B18BF8C467FF45BAE099A9CF80230111DB8
:204DA00009910CF1020C116853E60029ABBF24F0100401250591059514F4005504F0E00357
:204DC000039500F0A780402B00F0208200F2F380002B00F0DE81202B40F00882099B1A1D68
:204DE000099293F90020D317002A73F10000C0F2DA81CDE906230025089504F4C053B3F593
:204E0000805F00F06481B3F5C05F00F07F81B3F5006F1CBF0DF13E054FF0000900F0328109
:204E2000059941F60803894504EA030341F20802C0F0E580934218BF002600F00A8241F6F9
:204E40000802934206EB090100F0FC8000273A46039870B1089B002B40F00E8104F006031F
:204E6000022B00F0CD810498062B08BF012708BF02467B189B458CBFC3EB0B0B4FF0000B30
:204E800014F00103039304D1E10640F19E815E449B463FB11146DAF80030DAF804003A4646
:204EA000984798B9102E344603D8B5E0102C40F2B38041F6E841C0F20101DAF80030DAF811
:204EC00004001022103C98470028EFD04FF0FF3011B0BDE8F08F099B029C1A6804331460C8
:204EE000099345E541F63C51C0F20101DAF80030DAF80400012298470028E7D1029C0134E7
:204F0000029435E550465946FFF708FD00283FF4FEAEDBE7402B00F080815CD8002B00F03D
:204F20002D81202B40F05B81099B039D18781A1D002108950992CDE906015EE70DF13B01CC
:204F4000302301F8013C04250139B8E644F4C85409E644F4106406E644F4806403E644F4AF
:204F6000407400E644F48854FDE544F48134FAE544F40074F7E544F40244F4E544F4245446
:204F8000F1E544F4A064EEE544F4C134EBE544F4B244E8E544F4A134E5E544F48444E2E596
:204FA00044F44244DFE544F4E134DCE544F4C064D9E5454602E5602B00F0EB80802B40F014
:204FC0001581099B073323F0070303F108020992D3E9002308E7602B00F0D080802B40F033
:204FE000FE80099B039D073323F0070303F10802D3E9000108950992CDE90601FDE6934230
:20500000C9EB01067FF41BAF002E08BF012600273A4606EB09011BE7002C40F0A1802946EC
:20502000DAF80030DAF804004A46984700287FF44DAF029B039C4B441F443E44ACB95E44DB
:20504000029695E4DDE9062313433FF4FFAE41F6245241F6205314F4804FC0F20102C0F285
:20506000010318BF1A460227F2E650465946FFF755FC0028E3D029E741F62852C0F2010227
:205080000127F6E6DDE90601014300F0B480DDE906670DF13D09304639460A2200230CF020
:2050A000DDF8303289F80020304639460A2200230CF0D4F806460F4656EA07024D4609F195
:2050C000FF39E8D10DF13E03C5EB0309A8E6DDE90623134300F08F80DDE906230DF13D01E7
:2050E000D00840EA4370DE0802F00707334602460D4652EA030007F13001297005F1FF31DA
:20510000EED10DF13E03C5EB030989E641F60C5741F6F84314F4804FC0F20103C0F2010713
:2051200018BF1F46DDE90623134364D0DDE906230DF13D01100902F00F0540EA03704FEA9A
:20514000131E7E5D0246734652EA03000D460E7001F1FF31EED10DF13E03C5EB03095FE611
:2051600041F6E8412246C0F20101DAF80030DAF80400984700283FF452AFA7E6039D099BCF
:2051800008951A680021043310460993CDE9060133E6099B1A6804330993D317002A73F15F
:2051A0000000BFF626AE504263EB43010125CDE90601089521E6052941F63456C0F2010613
:2051C0008CBF002301230625BCE5504659460192FFF7A4FB019A00283FF45BAE76E6002594
:2051E000002000210895CDE9060106E600200021CDE90601FFE54FF000090DF13E050FE6C8
:2052000041F62C52C0F20102012732E6099B1A1D0992B3F90020D317E6E5099B039D188809
:205220001A1D002108950992CDE90601E5E5DAF80030DAF804000AA90122984700287FF42F
:2052400045AE50465946FFF769FB00283FF4C5AC3CE60126DBE600BF10B50446006830B1DF
:20526000002100F07DFB54F8040F0028F8D110BDF8B5038806461546EBB14A2B17D18829FF
:2052800046D140F6A840C2F2000000F071FC044648B1031D9D4202D126E09D4224D024684E
:2052A000231D002CF9D14A2333800120F8BD002303800320F8BD40F6A840C2F2000000F082
:2052C00057FC044630B1201DA16800F08FF92468002CF8D142F6AB13C2F2000301221A70B7
:2052E0004A2333800120F8BD40F6A840C2F20000214600F093FC40F6B4456269A369C2F246
:2053000000052F682A600BB1E06998472F60CAE70120F8BD10B542F6AB1340F6A840002470
:20532000C2F20003C2F200001C7000F01DFC40F204502146C2F20000BDE8104000F010BB1C
:2053400070B542F6AB14C2F20004049D267882610446C36145614EB9A16040F6A8402146B6
:20536000C2F20000BDE8704000F004BC40F6B445C2F200052E6840F20453C2F20003043082
:205380002B6000F033F92E60E7E700BF10B540F6B444C2F20004246882B00094FFF7D0FF89
:2053A00002B010BD70B542F6AB13C2F200031B7804466BB140F6B445C2F200052E6840F2F3
:2053C0000453C2F2000304302B6000F019F92E6040F6A8402146C2F20000BDE8704000F0F2
:2053E000C9BB00BF70B542F6AB13C2F200031B7804466BB140F6B445C2F200052E6840F2EF
:205400000453C2F2000304302B6000F003F92E6040F6A8402146C2F20000BDE8704000F0C7
:20542000A9BB00BF10B542F6AB13C2F200031B78044653B9C360036140F6A8402146C2F22E
:205440000000BDE8104000F0E9BB043000F00CF9F2E700BF704700BF10B540F6AC44C2F2ED
:2054600000042368CBB1FDF7B9FC236859681A689B680A44121A4BB193E812009B6821443C
:20548000091A8A4228BF0A46002BF5D140F6B0430244C2F200031A6010BD40F6B042C2F2AC
:2054A0000002136010BD00BF2DE9F041038805467BB1592B08D1872915D0822926D0592393
:2054C0002B800120BDE8F081002303800320BDE8F08140F6AC42C2F20002136059232B8097
:2054E0000120BDE8F08140F6AC47C2F200073B68002BE4D0D9688A4203D02BE0D9688A4217
:2055000027D19B68002BF9D13B60D8E740F6AC47C2F200074FF000083C68002CCFD0002681
:2055200004E0A3682646002BC9D01C46204600F08BFA0028F5D0E0688821224600F0DEF902
:20554000034640F21450C2F2000073B100F02AFAE7E73B6099680029B1D0C86882420BBFAE
:2055600089680B4699608968F5E7E360A3682EB1B360C4F80880FFF76FFFCDE73B60F8E70D
:2055800010B5044640F21450C2F2000000F00AFA40F6AC42E368C2F20002116853B149B122
:2055A0008C4218BF0B4602D110E09C420ED09B68002BFAD140F6B443C2F200031B68A16015
:2055C000E3601460BDE81040FFF746BF40F6B443C2F200031B68E360BDE81040FFF73CBF94
:2055E00040F21450C2F2000000F0DCB910B5044600F016FA2046BDE81040FFF7C1BF00BF3D
:2056000010B5044600F014FA2046BDE81040FFF7B7BF00BF10B5044600F010FA2046BDE8E3
:205620001040FFF7ADBF00BFC068D0F1010038BF0020704705C81044704700BF40F6AC4385
:20564000C2F200031868003018BF0120704700BF40F6AC43C2F20003186820B140F6B0431F
:20566000C2F200031868704710B540F6AC43C2F200031A680446904217D04AB1936883425B
:205680000AD02BB19A68A24207D01346002BF9D10023A360E36010BD1346A2689A60FFF7C0
:2056A000DBFE0023A360E36010BD82681A60FFF7D3FEEDE72DE9F84340F6B848C2F2000899
:2056C000D8F8004040F6B446221CC2F2000618BF0122844218BF002C0546894637682346AD
:2056E00004D01B689D4218BF002BFAD163B3AB7BE3B10023AB736AB1A54220464FF0870167
:205700002A4604D0A37BDB0701D500F029F82468002CF1D1AB683BB14D4505D0356005F1F3
:205720000C00832100229847D8F80040A54212D04CB12368AB4209D02BB11A68AA4206D071
:205740001346002BF9D13760BDE8F88323462A681A603760F8E72B683760C8F80030F3E765
:2057600070B5856804460E468DB140F6B443C2F200030220A0731C6004F10C00A84702387C
:20578000012805D9832E1CBF0123A37300D070BD20462146BDE87040FFF78CBF70B540F681
:2057A000B843C2F200031C6842F6AE13C2F2000300261E7084B1012501E0246864B1E37B14
:2057C000002BFAD0A573E673204682210022FFF7C7FF2468002CF2D170BD00BF42F6AF131B
:2057E000C2F200031878421C1A70704770B442F6AD1040F6B84140F6B442002342F6AF1530
:2058000042F6AC14C2F20000C2F20001C2F20002C2F200058A26C2F2000403700B601360FF
:205820002E70237070BC70472DE9F04142F6AE14C2F2000423780BB1FFF7B0FF42F6AD1565
:20584000C2F20005287818B342F6AC12C2F20002117840F6BC4301EB410C4FEA8C0CC2F2FC
:20586000000303EB0C0701380131BE68C0B201F01F012870117013F80C807F68B6B1B8F169
:20588000810F04BF0123B37306D0B37BDA0703D423781844BDE8F081304641463A46FFF72F
:2058A0005FFF287823781844BDE8F08140F6B843C2F200031E6836B9EAE7B37BD9070AD4C3
:2058C0003668002EEDD02378002BF6D0FFF766FFB37BD907F4D5304641463A46FFF740FFCF
:2058E000EEE700BF42F6AE1242F6AD13C2F20003C2F200021278187810447047F0B442F6B6
:20590000AD13C2F200031D78202D08BF012315D042F6AC14C2F20004277840F6BC442F4466
:2059200007F01F0707EB4707BF00C2F20004E6190135E1551D7072600023B0601846F0BC8C
:20594000704700BF38B5837B40F6B444C2F20004DB07256801D5FFF703FF256038BD00BF8A
:2059600070B440F6B845C2F200052E680446864218BF002E334604D01B689C4218BF002BBA
:20598000FAD1A3420BD0012000232660A073A3810A4620462C60812170BCFFF7D3BF70BCB7
:2059A000704700BF60B1837B013BDBB2012B9FBF42F6AE130122C2F200031A7098BFC27326
:2059C000704700BFFDF754BA38B540F63C62C2F200020446156804986360A060216015B16B
:2059E0001460002038BD08461460FDF743FA002038BD00BF10B540F63C64C2F20004236879
:205A000063B1184600225B68816822609847236823B11868BDE81040FDF72CBA10BD00BFAB
:205A200010B541600446FDF7D9F9206010BD00BF90E80C0013440360704700BF10B5044621
:205A4000FDF7CCF9206010BD10B50446FDF7C6F994E80C00C2F10102104483422CBF00201C
:205A6000012010BDF8B504880546672C0ED0792C04D064B3002303800320F8BD852933D183
:205A800040F64874C2F200040023236040F6487440F6C866C2F20004C2F2000607E00A28D5
:205AA00024D022687E2ADEBF511CB054196040F6C060C2F2000000F0E7F840F64873421C11
:205AC000C2F20003EBD167232B800120F8BDFFF785FE43F25F4240F64873C2F20002C2F29E
:205AE000000310701C60D1E70120F8BD40F64874C2F20004276840F6C86343F25F41C2F2F6
:205B000000030026C2F200011A4607F1010E09783046DE55C4F800E0FFF7F0FE40F6B44369
:205B2000C2F20003324618688521FFF7E7FE0028AAD179232B800120F8BD00BF08B540F6C3
:205B4000C06040F64061C2F20000C2F20001802200F092F8BDE8084040F22450C2F2000082
:205B60000021FFF7FDBE00BF00230360704700BF0068704710B404685CB1A14225D02368D9
:205B80000BB906E01346994210D01A681C46002AF8D100230B6002680AB911E01A461368E9
:205BA000002BFBD111605DF8044B704764B10A68226000221A6000230B600268002AEED19C
:205BC00001605DF8044B70470C46226823460260EFE700BF30B4056865B1A94219D02B68FF
:205BE00043B12C4600E01346994207D01A681C46002AF8D10D60016030BC704744B10A68A5
:205C0000226000221A6005680D60016030BC70470D462A682B460260F3E700BF10B4046807
:205C20005CB18C4215D023680BB906E01346994206D01A681C46002AF8D15DF8044B704733
:205C400034B11A68226000221A605DF8044B70470C46226823460260F5E700BF03682BB1DB
:205C600000201B680130002BFBD170471846704700B10068704700BF0023013A01600271CC
:205C800043718371704700BF10B40346827940791979801A08421FBF1868541C2140805CA4
:205CA00014BF99714FF0FF305DF8044B704700BF013A30B48D18A94214D20B461C785A7833
:205CC000023302EB042292B2104480B2824284BF013080B29D42F1D8CB432B4423F001030C
:205CE00002331944A94201D030BC70470B7830BC1B02184480B2834284BF013080B2704777
:205D000030B542F6B01342F6EC14C2F20004C2F200031D7823796279C5EB0323134483B090
:205D20009BB2ADF80630BDF8063004F108019BB21844202280B2FFF7BBFFBDF8062005F1B4
:205D40002801214492B2FFF7B3FF18B94FF6FF7003B030BD40BA80B203B030BD2DE9F04191
:205D600042F6B016C2F20006327842F6EC132832C2F20003991891F8018042F6B21C4FEA7F
:205D8000C808022708F10708C2F2000C3846404549DC81185D5C42F6EC14012D1944C2F251
:205DA000000416D01BD3632D0BD142F6B2158CF80070C2F2000503F0F3FD98B90120BDE8F9
:205DC000F08105F0C005802D18D0C02D25D0402D1ED0497802310844C0B20746D7E70130D8
:205DE000C0B2FAE732782B7828321A44144462780020134402332B70BDE8F0818CF80070C8
:205E000002440221042002F0FFF80220BDE8F0818CF800700120BDE8F081237E8CF8007014
:205E2000FF2BEDD1CAE78CF800700020BDE8F08170B4C47842F6E0130C44C2F20003E4B277
:205E4000DC7082780D0A2A44D2B29A70467895425E700078187003D90136F6B25E70A6B1A6
:205E6000C9B28C420FDA0132D2B242F6E0119A70C2F200013AB94B780133DBB24B7013B953
:205E80000B7801330B7070BC704701301870E7E710B542F6E454C2F200042368014603F1B3
:205EA0001400FFF7C5FF42F6E013C2F20003226858781C789978DB78147550759175D37544
:205EC00010BD00BF3A20FFF71BBF00BF08B501F019FC02F0AFF902F0C3F9134B002103F1CF
:205EE000280223F8021F9342FBD142F6E853C2F2000303F5F071002283F8252030338B4206
:205F0000FAD142F6901242F6FC73C2F200024FF48061C2F20003118003F5A07100221A824C
:205F200020338B42FBD108BDCE2F00202DE9F04142F6B014C2F2000425782DB342F6D816F5
:205F4000C2F20006378805F12703BB4204DB002333802370BDE8F081DFF83080A7F1280204
:205F6000521B05F128017D1B4144ADB208F128000BF00CFDA5F1280319120022358088F8B1
:205F8000053088F804102270BDE8F081EC290020084A002332F8021F814203D00133142B92
:205FA000F8D1704742F6D072C2F20002002122F813107047CE2F00202DE9F04F42F6E45737
:205FC000C2F20007042889B0D7F800A036D0D24A42F6E05B42F6DC13C2F2000BC2F2000300
:205FE0000328CBF800201A6042D0022800F0C380052800F06D8112F83C1CA2F13C0501F078
:20600000F001602900F0F28042F6D45642F6D81442F6B01842F6B119C2F20006C2F20004AA
:20602000C2F20008C2F200090023238088F8003089F80030337009B0BDE8F08F42F6D456DE
:2060400042F6D81442F6F879C2F20006C2F20004C2F20009B9F80030002B40F05F8142F6F0
:20606000B01842F6B119C2F20008C2F20009DBE79AF8251001F00F01032900F0F680022996
:20608000C2D1A2F13C0542F6D45642F6D81405F1180CC2F20006C2F2000440234FF0020ED5
:2060A00004270020602285F8351085F83CE085F83D7085F83E0085F83F30238085F8342073
:2060C0009AF8143042F6EC1785F830309AF81530C2F2000785F831309AF8163085F83230AB
:2060E0009AF8173085F833309AF8183085F82C309AF8193085F82D309AF81A3085F82E30C8
:206100009AF81B3085F82F30BAF810302B85BAF812306B859AE80F008CE80F0007F108002C
:2061200007F1180101F04CFA9AF8253003F0100303F0FF02002B40F07A81402387F83620A8
:2061400087F83730218843F24413C2F2000328391C79062200230F12104669712F71EC71DE
:20616000AA7185F83B3085F83A302B87FFF7C8FDC04328870EE140F64C72C2F20002D07835
:2061800042F6D814013042F6B01842F6F8790021C0B2C2F20004C2F20008C2F20009D070FD
:2061A000218088F80010A9F8001030B991780131C9B29170002900F04D819AF8251001F0BE
:2061C000FD02052A40F0F0809AF826300133DBB2782B8AF8263000F0758342F6D45642F64B
:2061E000B119C2F20006C2F200091DE7297942F6D8146879C2F200040902268801EB000C4A
:20620000B44500F31A812E7A28300144FF2E218000F0138142F6D85642F6B01842F6B119F8
:20622000A8790021363AC2F20006C2F20008C2F20009326088F8001089F80010002840F06E
:206240006881012289F800200193FFF787FD0128019B00F0C181C0F05081022840F05981D7
:2062600042F6D456C2F2000699E0BAF81C2042F6D456002A7FF4CAAE0822C2F2000632709E
:2062800042F6D814019342F6F87902F0A1F9019BC2F20004C2F20009317801F0200202F052
:2062A000FF00002A00F0298342F6EC15C2F20005002314228AF82530A9F8003085F8352054
:2062C00005F1180C3C232380502385F83430F7E642F6DC51C2F200010968098A00293FF4F7
:2062E00093AE42F6F87942F6D81442F6D45600210C3AC2F20009C2F20004C2F20006082070
:20630000CBF800201A60A9F8001039602180307002F05EF99EE600BF282A002042F6DC5231
:20632000C2F20002126803F1080042F6EC15C2F2000540BA002192F814C0A885E985118A90
:20634000303329859BB2508AA3F128014FEA212E1127238085F807C085F804E06885697179
:20636000AF7105F118040FCA84E80F00214605F1080001F025F942F6E053C2F2000305F10B
:206380003C0238461A60FFF7BBFCC04383B2002B4AD0EB85002360222A706B706B80002305
:2063A000337009B0BDE8F08F00293FF416AFBAF81C20002A00F093829AF82620501E8AF857
:2063C0002600002A7FF409AF9AF82720082A00F0E382481EC0B2012840F2DB82042A9CBFC9
:2063E0000325954001F00F0194BFEDB230250132481E8AF827208AF8265007283FF6EDAEFF
:2064000001A252F820F000BF876400009F640000B56400006B640000DB6100006B640000DF
:20642000DB6100006B6400004FF6FF73B1E7002387F8373087F8363084E642F6D45642F610
:20644000B01842F6B119C2F20006C2F20008C2F20009E9E551780131C9B2517000297FF49E
:20646000ACAE117801311170A7E642F6EC15C2F2000542F6D45605F1180CC2F2000611239D
:2064800085F835301EE742F6EC15C2F2000542F6D45605F1180CC2F200061221FDE542F6A0
:2064A000EC15C2F2000542F6D45605F1180CC2F20006F2E542F6D4560422C2F20006327031
:2064C000019302F085F8B9F80020019B1B68CBF80030002A00F04282BAF81C30002B00F0DF
:2064E0003D8242F6EC15C2F2000518223C33238085F8352005EB020CE6E698F8001001F171
:2065000028022A445078083101EBC001326088F80010DFF8DCC401936046CDF808C000F0E5
:2065200023FF019BDDF808C0002800F0638242F6B01142F6B11AC2F200013268C2F2000AFA
:20654000069110783C2800F2B381DFE810F01101B101B101B101B101B1011B01B101B101BF
:20656000B101B101B101B101B101B101B101B101B300B101B101B101B101B101B101B101FA
:20658000B101B101B101B101B101B101B101B101B101B101B101B101B101B101B101B101DB
:2065A000B101B1018E004500B101B101B101B101B101B101B101B101B101B101B101B1014C
:2065C000B101670045004A000193FFF799FB4FF6FF729042019B76D042F6D456C2F200066F
:2065E00022E599F80000810740F1EB81410600F15F8140F040008AF800000193CDF808C0B3
:20660000FFF7ACFB0128019BDDF808C0E4D0C0F0DB8102283FF424AE326892E73A20FFF729
:206620006FFB4FF6FF739842D6D198F8003042F6B0162833E85C01F02DFE98F80030C2F2CB
:2066400000062833EA18E85C517801F0B3FC012802BF002323803370238842F6D456C2F216
:206660000006002B3FF4E0AC99E699F80000039000F0040000F0FF010591002840F018811C
:20668000039A98F8000042F00402039200F128022A44D178049103998AF8001004990029A5
:2066A00040F0B2825178083000EBC10006993260087046E70193FFF739FC1120EA8DA87173
:2066C000019B002A80D16E8D42F6EC12C2F20002002E81D042F6FC7142F6DC59C2F2000176
:2066E000C2F2000903932346B2F8288034460D46C9F8001001F5A07A1E4607E005F120027B
:206700005245C9F8002000F0E18115462A8A002AF4D09442F2D16A8A0AB14245EED12A6892
:206720002AB96A681AB9AA680AB9EA6832B1AD48294610220BF080F80028DFD135883446AF
:20674000A94A039B42F6D45642F6F8790021303DC2F200060220C2F2000925803070A9F890
:2067600000103960CBF800201A6001F031FF71E499F80000C10700F19B8040F001008AF885
:2067800000003AE70193CDF808C0FFF7CFFB06221046AA71FFF7B4FA4FF6FF7142F6EC12CF
:2067A0008842C2F20002019BDDF808C07FF414AF508D039000283FF40FAF128D0592002A01
:2067C0003FF40AAF42F6E856C2F20006CDF818900795C146B246B8461D462746644605E038
:2067E00082480AF1300A824500F07A819AF825300493002BF4D0BAF81020039B9A42EFD15F
:20680000BAF81220059B9A42EAD17648514610220BF012F80028E3D12B46079D014695F80C
:20682000350042F6D456A446C2F200063C4642F6EC12474610F0040FC846C7F800A0DDF883
:2068400018903170C2F2000240F0318292F8342021881209283992008A1A049992B201F04B
:206860000F0102290391228000F0E9830399012900F0258212B9820700F02682AA8DBAF819
:206880001410049242F6EC12C2F200020692049A8A4200F0C883810706D5039B012B3FF4B5
:2068A000FCAD022B00F0C783102385F8353009E5521B0420012142F6D45601F0A5FBC2F26B
:2068C00000066CE5002342F6D45642F6B1198AF82530C2F20006C2F20009FFF7A5BB01F045
:2068E0000F01032942F6D45648D042F6B119C2F20006C2F20009FFF797BB01F0100202F02C
:20690000FF059AB142F6EC15C2F200050121042211238AF82700AAF81C108AF82520A9F8DB
